:020000040002F8
:10600000E05C0020F9620200016302000363020009
:10601000056302000763020009630200000000003C
:106020000000000000000000000000000B63020000
:106030000D630200000000000F6302001163020004
:106040001966020013630200196A0200136302005A
:106050001363020013630200516402001363020021
:106060001363020013630200136302001363020050
:106070001363020013630200136302001363020040
:1060800013630200716602001363020013630200CF
:10609000F566020013630200F96602001363020052
:1060A0001363020013630200136302001363020010
:1060B00013630200136302000000000000000000F0
:1060C00013630200136302001363020013630200F0
:1060D0001363020013630200136302000000000058
:1060E00000000000000000000000000000000000B0
:1060F00000000000000000000000000000000000A0
:10610000000000000000000000000000000000008F
:10611000000000000000000000000000000000007F
:10612000000000000000000000000000000000006F
:10613000000000000000000000000000000000005F
:10614000000000000000000000000000000000004F
:10615000000000000000000000000000000000003F
:10616000000000000000000000000000000000002F
:10617000000000000000000000000000000000001F
:10618000000000000000000000000000000000000F
:1061900000000000000000000000000000000000FF
:1061A00000000000000000000000000000000000EF
:1061B00000000000000000000000000000000000DF
:1061C00000000000000000000000000000000000CF
:1061D00000000000000000000000000000000000BF
:1061E00000000000000000000000000000000000AF
:1061F000000000000000000000000000000000009F
:10620000DFF80CD000F012F9004800476D8B020057
:10621000E05C002030B4044654E8000F0D4644E82A
:106220000053002BF8D1156030BC704730B40446E1
:1062300054E8000F40EA010544E80053002BF7D171
:10624000156030BC704730B4044654E8000F00EAD3
:10625000010544E80053002BF7D1156030BC7047AE
:1062600030B4044654E8000F80EA010544E80053C6
:10627000002BF7D1156030BC704730B4044654E8A9
:10628000000F00EB010544E80053002BF7D1156027
:1062900030BC704730B4044654E8000FA0EB010551
:1062A00044E80053002BF7D1156030BC704770B440
:1062B00004464FF0000054E8006F0D68AE4207BF7F
:1062C00044E80023012044E800630E60002B1CBF5B
:1062D0000020F0E770BC704730B4044654E8000F6B
:1062E00088422CBF451A054644E80053002BF5D1DF
:1062F000156030BC704700000648804706480047DC
:10630000FEE7FEE7FEE7FEE7FEE7FEE7FEE7FEE765
:10631000FEE7FEE7FD660200016202002DE9F05F84
:106320000546002092469B46884606468146402404
:106330001BE0284641464746224600F067F8534690
:106340005A46C01A914110D311461846224600F011
:1063500016F82D1A67EB01084F462246012000214E
:1063600000F00DF817EB00094E41201EA4F10104C6
:10637000DFDC484631462A464346BDE8F09F202AE6
:1063800004DB203A00FA02F1002070479140C2F18C
:10639000200320FA03F319439040704700487047E8
:1063A000CCBC020040EA01039B0703D009E008C906
:1063B000121F08C0042AFAD203E011F8013B00F8CA
:1063C000013B521EF9D27047D2B201E000F8012B16
:1063D000491EFBD270470022F6E710B513460A4665
:1063E00004461946FFF7F0FF204610BD421C10F886
:1063F000011B0029FBD1801A7047034611F8012BBD
:1064000000F8012B002AF9D118467047202A04DB36
:10641000203A21FA02F00021704721FA02F3D0401D
:10642000C2F120029140084319467047064C074DBF
:1064300006E0E06840F0010394E807009847103454
:10644000AC42F6D3FFF7E0FEACC40200CCC40200BD
:106450002DE9F04700268AB0DFF85091B0464FF49E
:106460008075012437460696284603F0AFF938B107
:10647000D9F80403204203D0284603F09DF92643AF
:106480002D1D64007F1CADB2082FEDD34FF4BE74F8
:10649000204603F09BF948B1204603F08DF946F001
:1064A000004606AA0121002003F072F9404D16F0C3
:1064B000FF0F15D00127002437420DD009EB8401CE
:1064C000D1F81005D1F81015C0F3042055F8242098
:1064D000C1F3014102B190477F00641C082CEBD34B
:1064E000002E5FDA4FF0FF30CDF8108054E028190D
:1064F00010F8507F90F9000027F0C008401C3BD0F6
:1065000007A9404602F0CBFD10B34FEA9719404669
:1065100001F088FE55F820701FB1B9F1030F03D0C8
:1065200006E0B9F1030F27D104A9404602F0BFFDF0
:106530004FF0A04101EB8800D0F8000706A9C0F396
:10654000014A404602F0ABFD18B1BAF1020F03D088
:1065500012E0BAF1030F0FD1B9F1030F08D1BAF16C
:10656000020F1DD00221404603F0E8F8761CF6B277
:1065700017B149464046B847641C042CB7D3002ED7
:1065800010D06A460121002003F002F90699009814
:10659000884207D006900498002634460790A6E764
:1065A0000321E0E70AB0BDE8F0870000006000408A
:1065B000AC32002000F01F02012191404009800010
:1065C00000F1E020C0F88012704700F01F020121A6
:1065D00091404009800000F1E020C0F800117047B0
:1065E00000F01F02012191404009800000F1E020ED
:1065F000C0F8001270474907090E002806DA00F0BB
:106600000F0000F1E02080F8141D704700F1E02039
:1066100080F800147047000070B54FF48076304663
:1066200002F08CFE114CB50560B1304602F08DFED3
:106630000120C5F80803607920B901206071216844
:10664000002088474FF48276304602F077FE00281B
:106650000AD0304602F079FE0220C5F8080321680E
:10666000BDE870400120084770BD0000082B0020E5
:1066700007480021C0F84011C0F84411C0F8481183
:10668000C0F84C11C0F80011C0F8041104F0E0BDCE
:106690000010014000F0C6B970B50E46144900EB79
:1066A000400001EBC0051446E86A183520B1012806
:1066B0000FD0022805D113E0284600F0E7F9A042E8
:1066C00001D2002411E022463146284600F016FA95
:1066D0000BE0284600F0DAF9A042F4D20446F2E7D3
:1066E0003146284600F0DDF90446204670BD000022
:1066F000583A002004F0FABC03F0BCBDF0B5B54830
:106700000023021D0178101D01254FF08054062939
:106710000BD11678360708D10678C6F30316032E78
:1067200006D0042E04D0052E02D0062907D00EE094
:10673000B4F82463A84FC6F304263E6002E016783E
:10674000360704D10678C6F30316032E02D00629B5
:1067500004D00FE0A24FA14E7E670EE016783607F8
:1067600008D10678C6F30316032E06D0042E04D0F3
:10677000052E02D0062907D00EE0D4F84462994FC6
:10678000C6F342363E6002E01678360704D106783A
:10679000C6F30316032E02D0062906D011E0924E4E
:1067A000376827F0807737600EE01678360708D113
:1067B0000678C6F30316032E06D0042E04D0052E49
:1067C00002D006290AD011E04FF08046C6F80C31FD
:1067D000C6F81031834E361F336002E01678360754
:1067E00004D10678C6F30316032E02D0062905D07D
:1067F0000CE07C4F032664373E600AE016783607CB
:1068000004D10678C6F30316032E02D006290DD054
:1068100014E0764F05263E60744E78363560734E30
:10682000083633603F263F1D3E6002E0167836078B
:1068300004D10678C6F30316052E02D0062957D0D8
:1068400062E06B4E36686B4F3E60694E361D3668AF
:106850003F1D3E60664E083636683F1D3E60644E02
:106860000C3636683F1D3E60614E103636683F1D5F
:106870003E605F4E143636683F1D3E605C4E1836F3
:1068800036685C4F20373E60594E1C3636683F1DD7
:106890003E60574E203636683F1D3E60544E2436CB
:1068A00036683F1D3E60524E283636683F1D3E60BA
:1068B0004F4E2C3636683F1D3E604D4E30363668A2
:1068C0004C4F40373E604A4E343636683F1D3E607E
:1068D000474E383636683F1D3E60454E3C3636687A
:1068E0003F1D3E60424E403636683F1D3E6002E02E
:1068F0001678360708D10678C6F30316032E06D09D
:10690000042E04D0052E02D0062907D019E0D4F8B1
:106910005812394A01F04F01116002E0117809075D
:106920000FD10078C0F30310032803D0042801D04E
:10693000052806D131480168C90702D06FF001016E
:106940000160D4F83001062808D1D4F834010628B3
:1069500004D12B48016841F48061016022487438F9
:10696000016841F470010160BFF34F8FBFF36F8F77
:106970004FF01021D1F80002002803DBD1F8040207
:10698000002822DA1F4A15601F480468002CFCD03A
:106990001524C1F800420568002DFCD0C1F804425E
:1069A00001680029FCD0136001680029FCD0BFF306
:1069B0004F8F0D48F0380168144A01F4E06111432B
:1069C0000160BFF34F8F00BFFDE712491048086018
:1069D000F0BD0000E00F00F0403501400DF0ADBA11
:1069E00000C007403C050040FCED00E010560040B0
:1069F0000404001020C50040E40E004000040040E4
:106A00003C17004004E5014000E401400400FA05A1
:106A10000090D003B42B002001480068004700001C
:106A2000102B002010B5124C02202061606111A0D3
:106A3000A06104F17800E0614FF400702062002052
:106A4000A06260620BA1A164E06204F51E71E164C2
:106A50001021A065C4E91410E06509A1E01DFFF74D
:106A6000CCFC08A12046FFF7C8FC2020A07110BD77
:106A7000583A00205465726D696E616C0000000028
:106A80005254540053454747455200000269C168BB
:106A90008A4203D88068401A104400E0501A401E11
:106AA00070472DE9F047C4681746894606464FF0FF
:106AB00000083069A04201D9051B02E0B168201A24
:106AC0000D1AB0686D1E001BA84200D80546BD42D5
:106AD00000D33D4670682A4620444946FFF762FCD1
:106AE000B0687F1B2C44A844A944A04200D10024D4
:106AF000F460002FDDD14046BDE8F0872DE9F0417C
:106B000004468846D4E90207C51BE168606816465A
:106B10000844B54206D94146FFF744FCB819E06085
:106B2000BDE8F0812A464146FFF73CFC761B08EBA6
:106B3000050132466068FFF735FCE660F0E70000CB
:106B4000014A024900F026B82B870200502B002092
:106B500002E008C8121F08C1002AFAD17047704726
:106B6000002001E001C1121F002AFBD17047000084
:106B70000121202803DA81400548014003E0402834
:106B800002DA2038814009B10120704700207047A7
:106B9000FC06FFBD2DE9F04116460F4604460025D0
:106BA00003E03946B047641C6D1C20780028F8D1FA
:106BB0002846BDE8F08110B501220221002001F035
:106BC00081F908B1072810D107220221012001F024
:106BD00079F908B1072808D100210A22084601F0F6
:106BE00071F908B1072800D1002010BD2DE9F0414E
:106BF00098B018223E496846FFF7D4FB3C493C2236
:106C0000183106A8FFF7CEFB3B493C4A394E891A9A
:106C10000425C908F078032206F1280802EB014494
:106C2000D0B1012846D1204635A102F0B9FF8DF838
:106C300015508DF81650B07800283ED0012839D173
:106C40002046384902F0ACFF08208DF800000021F2
:106C50006A46701C72DF47E0204633A102F0A0FFB5
:106C600001278DF815708DF81670B07810B10128D5
:106C700007D00CE0204635A102F092FF8DF800709D
:106C800005E0204640A102F08BFF8DF8005008F18E
:106C9000040206A8D8F8001000F000FB08B100F0CC
:106CA000B9F814496A462831A1F1270072DF1BE0C8
:106CB00000F0B0F818B0BDE8F0812046424902F07B
:106CC0006FFF06208DF8000008F1040206A8D8F82E
:106CD000001000F0E3FA08B100F09CF805496A469C
:106CE0002831A1F1270072DF0028E1D1E2E700009E
:106CF00020B90200A02A002024C50200DCC4020042
:106D000053657474696E6720616476207061726186
:106D10006D732050485920746F20434F44454420E0
:106D20002E2E200018BD020053657474696E672012
:106D300061647620706172616D73205048592074CF
:106D40006F20314D202E2E2000000000416476651A
:106D500072746973696E67207479706520736574E5
:106D600020746F20434F4E4E45435441424C455F83
:106D70005343414E4E41424C455F554E4449524566
:106D80004354454420000000416476657274697381
:106D9000696E6720747970652073657420746F2044
:106DA0004E4F4E434F4E4E45435441424C455F5328
:106DB00043414E4E41424C455F554E444952454336
:106DC0005445442000000000D0BC020010B572B64B
:106DD00002F086FF02F0CAFD0028FBD107480849EF
:106DE000401AC008012101EB004006A102F0D8FEC4
:106DF00007480068C00700D000BE10BD24C50200CF
:106E0000DCC40200466174616C206572726F7200AE
:106E1000F0ED00E00EB500210091CDE901106A46C9
:106E200044F20100FFF7D2FF0EBD10B58268C368BF
:106E3000934203D001F052FC002010BD052010BD8C
:106E400029B112B1531E134203D0092070470E20FE
:106E500070470160838000218160C16008467047EF
:106E600010B58268C3689A1A83889A4203D801F0E1
:106E70003FFC002010BD042010BD0000074B9B7894
:106E800023B12AB120B10068037C1BB108207047F0
:106E9000072070474174426100207047583300203A
:106EA00070B503F065FF104800240B210470447096
:106EB0000E4D817014206C602C706C70FFF77AFBA3
:106EC00006211420FFF797FB1420FFF77EFB0848EC
:106ED000046006211120FFF78EFB0548001F0068A3
:106EE000A860002070BD000058330020182B00203F
:106EF000081501402DE9FC47DFF8789099F8023039
:106F000073B368B3052902D20720BDE8FC87436943
:106F100033B3437C012B25D0002704460025884647
:106F200016468DF80050684600F0CEF801A804F02F
:106F30005BFCC8B1012101700F4944600968C0E9D8
:106F40000218C0E904769DF8040089F801009DF854
:106F5000000000F0DDF81420FFF742FB2846D4E7DC
:106F60000820D2E70F46D8E704259DF8000000F07E
:106F7000CFF8F3E75833002004150140064989781B
:106F800039B130B1416921B100210174022104F00D
:106F90003BB90820704700005833002070B50A4EF6
:106FA00001460A48B578FFF740FF04464DB100207E
:106FB000B070711C0122C81D02F048FA08B1FFF739
:106FC00029FF204670BD00002C2B002064340020D7
:106FD000F0B5244E89B01F460D00044672603FD0C4
:106FE000A888296882B22048FFF72AFF002835D1F7
:106FF000A889A96882B21C481030FFF721FF002839
:107000002CD1202219496846FFF7CCF96069069017
:10701000207C00B101208DF814008DF81C70607C7C
:1070200000B10E208DF81500E0680290A068039072
:1070300020680190606800900A480D4A694608304F
:1070400002F0D0F9002809D1B0702068401C05D0AA
:1070500004490122491CC81D02F0F8F909B0F0BD2D
:107060000720FBE72C2B002064340020E8B9020045
:1070700069B3020010B501461048FFF7F1FE0400A5
:1070800019D10F480F4A0178515C19B1001D03F066
:1070900047FC02E00C3003F02BFB60B908490748BD
:1070A0000839FFF7C2FE30B9054901220839044802
:1070B00002F0DCF90446204610BD000074340020C4
:1070C000342B0020FC2A002030B5EFF3108172B67B
:1070D0000D4A9468012324B10370002900D162B6DF
:1070E00030BD93604FF0E023D3F88051074C25402A
:1070F0001560C3F88041D3F8844154605A17C3F82F
:10710000842100220270E8E784340020FC06FFBDE1
:107110000B498A68002A11D000280FD1EFF31080A4
:1071200072B60B684FF0E022C2F800314B68C2F82B
:10713000043100228A60002800D162B67047000046
:10714000843400202DE9F041064608680C46411CB5
:107150004FF0A0474FF0010506D005FA00F1C7F83F
:107160000815206802F0D6FA6068411C02D00021A0
:1071700002F0B6FA3168A069C1F82405607D227D6D
:1071800031681043C1F86C05D4E900123068C0F8CA
:107190001425C0F80C15207D012815D1A068411CCC
:1071A00002D0002102F09CFAE068411C05D0854025
:1071B000C7F80855E06802F0ADFAD4E90212306869
:1071C000C0F80825C0F81015BDE8F0812DE9F041A0
:1071D000064608680C46411C4FF0A0474FF00105D9
:1071E00006D005FA00F1C7F80815206802F09CFAED
:1071F0006068411C02D0002102F07BFA3168A0696E
:10720000C1F82405607D217D32680843C2F86C0511
:10721000D4E900123068C0F80C15C0F81425207DA0
:10722000012815D1A068411C02D0002102F061FAAA
:10723000E068411C05D08540C7F80855E06802F0B9
:1072400073FAD4E902123068C0F80825C0F81015A6
:10725000BDE8F08170B51500044609D00020286013
:1072600034B1206820B1A079800703D0072070BD19
:107270000E2070BD084600F07FFAC0B2142804D07A
:107280002179814203D8042070BD052070BDE288B9
:10729000216800FB02102860002070BD2DE9FC472A
:1072A000002517880646158090F82D00144689465B
:1072B00030B13A462146484600F072FA051E09D11F
:1072C000B0784FF00C0A18B32088C846001DB842A9
:1072D00002D95046BDE8FC87684679DF0028F9D11D
:1072E0002088032108F8001020881921401C80B252
:1072F000208008F800102088401C80B2208000EB1D
:107300000801BDF8000004F0BDF921880844208080
:10731000F0780222C8B1218896F9033001F1030CFC
:107320004846BC45D5D8425421884FF0010C491C31
:1073300089B2218000F801C02188491C89B22180CE
:1073400009F801302088401C20807068B8B121887D
:1073500090F9003001F1030C4846BC45B9D84254BD
:1073600021880A22491C89B2218042542188491C63
:1073700089B2218009F801302088401C20803089A2
:1073800050B1CDE900474B460622022106F1080024
:1073900004F042FA051E9DD1308A50B1CDE9004774
:1073A0004B460722032106F1100004F035FA051EB2
:1073B00090D1308B50B1CDE900474B4615221421B6
:1073C00006F1180004F028FA051E83D1306A30B1A6
:1073D0003B462246494601F08CF8051EDBD1706A17
:1073E00030B13B462246494601F0E2FC051ED2D1AF
:1073F00096F82C0038B13B4622464946304603F009
:107400009BFD051EC7D1307838B13B462246494620
:10741000304601F057FD051EBDD128465AE718B584
:1074200004460020ADF8000013466A46204600F0EE
:1074300006F8002802D0BDF80000204418BD70B541
:1074400088B182B10024158803E0065D641C3444D1
:10745000A4B2A54203D8061976789E4201D08C4288
:10746000F3D38C4201D3002070BDA11C1180005DBC
:10747000401E80B270BD10B50288102A1BD0112AA0
:1074800020D0262A1DD1007A0C46012801D00228DE
:1074900017D1A0780521401CB0FBF1F201FB1201CD
:1074A000204600F01EF800280BD0A16B002908D060
:1074B000BDE810400847C27B012A02D18088A1F8AC
:1074C000480210BD0C46002184F852128088B4F89E
:1074D00048128842F5D120790028F2D10121DFE756
:1074E00070472DE9F05F044600780F4698B1A77009
:1074F0000025C4F84A52A4F84E5284F85052A0799C
:10750000012608B1012F09D0E07980B1012F05D003
:10751000022F03D00BE00820BDE8F09F616B21B182
:1075200084F851620820884701E084F8515204F23F
:107530004B2100200A5C0AB1304603E0401C0628BB
:10754000F8D300204FF002084FF0030B012F06D0B4
:10755000022F0CD0032F0FD0042F15D110E0A179EA
:1075600029B194F8241011B908B130460DE0E17941
:1075700011B108B1404608E0207A08B1584604E04D
:10758000607A08B1042000E02846A070616B41B128
:10759000032801D0042804D1607910B194F8520274
:1075A000A0B184F8535204F13C0018210746FEF7BD
:1075B00012FF04F12C0084F83C60814603F058FB74
:1075C00058B194F82C0084F8510008E084F8545223
:1075D00084F8536207208847E5E784F8516094F8FF
:1075E000240050B1484603F043FB20B194F8280032
:1075F00084F8520001E084F8526084F85050A27878
:1076000004F24A2104F50D794FF0060A052A62D2E8
:10761000DFE802F07A030F22410084F83160C4F8F9
:107620004452C4E9101584F83C808020A4F8480036
:1076300053E084F8318094F82420384612B10722B0
:10764000027001E080F800B0228A8281C4F84452BE
:107650004160E168B96040E06069B860208BB88142
:1076600094F824003D4610B184F83CA001E084F871
:107670003C60204604F09AF850B185F8148004214B
:10768000204601F03EF830BB052184F8311020E09F
:1076900084F831B01DE0E069B860208CB88194F8BE
:1076A00024003D4610B184F83CA001E084F83C6021
:1076B000204604F07BF848B185F814800421204668
:1076C00001F01FF838B984F831A002E0042084F8F2
:1076D0003100C4F84492A07878B13A4604F15400DD
:1076E000D4F8441272DF00287FF416AF94F83010FB
:1076F00094F8540073DF0028F6D1616B11B194F84F
:1077000031008847002007E784F83150F5E7000092
:1077100070B5040012D001461C221448FEF742FE48
:107720001248134D0560206850B17ADF002806D159
:107730002068016829604068686005E00E2070BD1F
:107740000B487BDF0028FAD108484FF6FF71143848
:10775000084A20F8041B0549343901600021FFF76D
:107760008DFB0028EBD0032070BD00000432002008
:10777000F42A002045B7020010B5044600F006F8D0
:1077800008B1204610BD142010BD0000142801D3FC
:10779000002070470146014801F0F2BB243200206E
:1077A0007CB5054608880C460930904201D90C206A
:1077B0007CBD68466DDF0028FAD121880820685416
:1077C00020881B21401C80B2208029542088401C26
:1077D00080B220802844DDF801100160BDF805105A
:1077E00081802088801D80B220809DF8001049088B
:1077F00000D0012129542088401C208000207CBD1D
:10780000F8B5324D01880446EE88212949D015DCAF
:107810002F48304A1029A0EB02004FEAD0004FF069
:10782000030202EB004013D0112927D0132941D1C4
:1078300000231A46852130467FDF19E03B2940D0DE
:10784000522938D0562935D18088132176DF0FE0B0
:1078500021A102F0A5F901202870072000F054FBB7
:1078600008B1FFF7D7FAA188E9801E4801F0EEFCC5
:1078700000281FD0BDE8F840FFF7CCBA1AA102F0EB
:107880008FF94FF6FF70E880BFF34F8F1A480168F9
:107890001A4A01F4E06111430160BFF34F8F00BF4A
:1078A000FDE700200090A08869468FDF002801D006
:1078B000FFF7B0FAF8BD00231A4619463046B1DF8B
:1078C000D6E78088132176DFD2E70000A02A0020C7
:1078D00024C50200DCC40200436F6E6E65637465EC
:1078E00064000000E02E0020446973636F6E6E65D3
:1078F00063746564000000000CED00E00400FA050C
:1079000010B51A4C0188606810290ED011292BD1AE
:10791000401E606028D1FFF74EF9002824D021686E
:10792000002921D0BDE810400847D0B9002101222C
:10793000084600F0C7FA08B107280FD10722022134
:10794000012000F0BFFA08B1072807D10422022164
:10795000002000F0B7FA20B1072802D0216801B159
:1079600088476068401C606010BD0000EC2A002061
:107970002DE9F04701883B4E40F2F3194FF6FF75B1
:1079800010291BD011293ED0122954D0502946D19C
:10799000C188F289841D914241D1618902293ED179
:1079A0008688304600F01AFF050038D004F10C003C
:1079B00000F0B4F9A8B3294630464EE0C17B878871
:1079C000044601292BD1A846284600F007FF0500F0
:1079D00017D02F8000202872234843464A4601686A
:1079E000C5F80A104068C5F80E0004F1100105F151
:1079F0000A0000F0ABFF6872F08900280FD1294619
:107A00002AE0042013E0808800F0E8FE040006D09D
:107A10006068FFF7B3FA08B103F05EFA2580BDE8AD
:107A2000F087FFE76868FFF7A9FA0028F7D0BDE8FC
:107A3000F04703F051BA87880646384600F0CEFE7C
:107A40000400ECD02B464A4606F1080104F10A0076
:107A500000F07CFF607221463846BDE8F04700F038
:107A60008FBD000004320020F42A00202DE9F04FE1
:107A70000746858802883D48012197B08346102A31
:107A800009D0112A49D01A2A6CD1387AB1EB101FCB
:107A900045D2012244E0354C083CA068C0430B901D
:107AA00061680BA801F08DFA0B990CA800F002FD9B
:107AB0002C220CA96846FEF775FC0026E946A04674
:107AC00010E000BF09EB46005FF00004B0F804A02E
:107AD00008EB84005146001D01F047FA641C1D2C80
:107AE000F6D3761C0098B042ECD8142D05D317B00D
:107AF0000420BDE8F04FFFF78DB92946584601F044
:107B00004AFA294608F1040001F045FAF87B0128F9
:107B100028D016482946001D15E029461AE0002203
:107B20000221B1EB101F01D2012600E000260F490F
:107B3000083901F11000041D294682B101F02BFA29
:107B400036B12946204617B0BDE8F04F01F023BA00
:107B50002946204617B0BDE8F04F01F006BA01F003
:107B600004FAF5E717B0BDE8F08F000028320020D6
:107B7000F0B585B016460F4604001D4614D004AA81
:107B800019466069FFF766FB00280BD1A5F57F4019
:107B9000FF380BD0049848B1007848B13088F428F9
:107BA00008D9072005B0F0BD0E20FBE70520F9E756
:107BB0000820F7E700200090019002900390A08831
:107BC000ADF8000001208DF80200CDE9026769469A
:107BD0002846AEDFE6E7000070B5334D04008EB0F6
:107BE0002DCD08AE86E82D005BD0E9B30868A06112
:107BF000214608A862DF002851D1207801258DF8A0
:107C00003200ADF83050A21C0CA92846A8DF00288D
:107C100045D120216846FEF7DEFB0220ADF80000CA
:107C200020788DF802008DF80C509DF80D00F42698
:107C3000ADF8046040F00C008DF81150ADF806501E
:107C40008DF80D008DF81250608804F10C02694621
:107C500000F0F0FA002822D120216846FEF7BBFB95
:107C60000320ADF8000000E01BE020788DF8020052
:107C70008DF80C509DF80D008DF81150ADF8046092
:107C800040F010008DF81250ADF806508DF80D0040
:107C90008DF813506088221D694600F0CBFA0EB0B3
:107CA00070BD0E20FBE70000C0B9020070B588B0BF
:107CB0000446002924D0002C22D00846218810290F
:107CC00020D0502924D057291AD10546A1884069CF
:107CD00006AAFFF7BFFA002812D1069E30780028C6
:107CE0000ED018216846FEF776FB01208DF80000C3
:107CF0000195A088ADF808000396A96968468847F1
:107D000008B070BD08B02146BDE8704002F08EBEDC
:107D100008B02146BDE8704002F068BF007800F06E
:107D2000010070470649095C4FF0A040D0F81005EB
:107D3000C84010F0010000D0012080F00100704721
:107D400078B9020007490B5C4FF0A041D1F8042537
:107D50000120984020EA0203C1F808351040C1F81C
:107D60000C05704774B902000249085C012101F05A
:107D700004BD000074B902000249085C002101F052
:107D8000FCBC000074B902000649095C4FF0A04039
:107D9000D0F80405C84010F0010000D0012080F0A8
:107DA0000100704774B9020010B500242046FFF7A7
:107DB000DBFF641C042CF9D310BD10B50024204651
:107DC000FFF7DAFF641C042CF9D310BD10B502468E
:107DD000064B4FF0FF3000215C5C944201D1084615
:107DE00010BD491C0429F7D310BD000078B902006A
:107DF00070B50C4E0C004FF0000530600BD0012028
:107E000000F05AF808B1022004E0002000F054F815
:107E100000B10B202070706810B9FEF7CCFE05464B
:107E2000284670BDEC2A00202DE9F0470D4681461A
:107E3000FFF7CCFF0446042836D2DFF874801B48D5
:107E40001C4EA8F10C0725B3012D0ED0022D2BD10D
:107E500004EB440030444578002D25D0B968002952
:107E600022D02846BDE8F047084704EB4401755C82
:107E70000E44717849B10E4A4FF40041093A8068C6
:107E8000FFF738F808B987F80390B17808F80410BC
:107E9000E2E78068FFF772F804EB4401314418F818
:107EA00004008D78A842D7D0BDE8F0877CB90200E5
:107EB000E82A0020A4310020042801D2FFF732BFB5
:107EC0000020704770B50023042810D20D4D00EB40
:107ED0004004012A02D101290CD00022094E00EBF6
:107EE0004000304461B1012906D0022906D00723A1
:107EF000184670BD0E30C2B22A55F9E74270F7E756
:107F00008270F5E7A4310020044A0146002012796E
:107F1000D20702D0084600F003B87047DC2A0020E0
:107F20002DE9F05F6E4C054600266078B34618B127
:107F300084F801B000F02CFD6A4F4FF47A694FF4D9
:107F4000C87A4FF00108182D69D2DFE805F00C134C
:107F500013384754696E727B727BC5848484848431
:107F6000B3B6B9BCC5C500F013FD3868FFF706F815
:107F700006465CE00020FFF707FF00284FF00000F6
:107F800008D0FFF7F1FE022D02D14FF4E16008E0C6
:107F9000484606E0FFF7F0FE022D01D1C82000E0C0
:107FA0005046410CC0034FF4FA72801841F10001B1
:107FB000257052000023FEF7B1F901462AE00020A7
:107FC000FFF7E2FE00284FF0000004D0FFF7CCFEE0
:107FD0004FF44870E5E7FFF7CFFEDFE70020FFF73B
:107FE000D3FE00284FF0000002D0FFF7BDFECFE720
:107FF000FFF7C2FED4E70020FFF7C6FE00284FF0CF
:10800000000002D0FFF7B0FE01E0FFF7B5FE2570DB
:1080100041F69A1100223868FEF76CFF064646E0EA
:108020000020FFF78FFE257008E0002051E025704A
:108030003DE084F801800120FFF784FE002240F635
:10804000CD41E8E784F801800120FFF77BFE0022A4
:108050004FF48041DFE77868FEF790FF0646D5F1E0
:10806000110000D02EB10220FFF77EFE84F802B08E
:108070001DE0012816D980B2C8214843C117C903A1
:1080800041EA5041C0034FF4FA72801841F10001F7
:1080900052000023FEF742F9014600227868FEF7FD
:1080A00029FF06460220FFF767FE84F8028030466B
:1080B000BDE8F09F00F06CFCB9E700F069FCB4E7A4
:1080C00000F066FC04E000F063FC0020FFF754FEC3
:1080D0000120FFF751FEAAE7FFF76FFEA7E70000B8
:1080E000DC2A00207CB902002DE9F8430546861CF5
:1080F00000208DF8000090460F464FF001096846B9
:10810000FEF7E2FF1B4C20683860D4E90001401AFA
:10811000A16804F21C47081A0EE00121384600F05D
:108120004AFF00F0D5FC0146384600F044FFD4E990
:108130000001401AA168081A401C8642EDD8B8F127
:10814000000F03D0052065F3891002E0062065F3D7
:108150009F50A2682168114004EB8101C86020682B
:10816000304420609DF80000FEF7D2FF4846BDE88D
:10817000F88300003436002030B482680468531C51
:108180008360A154D0E901128A4202D330BC01F0CD
:108190008AB930BC70470000034803C8814201D14E
:1081A00001207047002070473436002038B504465F
:1081B00069460020FFF71CFE08B1FEF72BFE9DF874
:1081C000000002282BD000202070122001F09AFA23
:1081D000142001F097FA122001F0C1FA142001F0E6
:1081E000BEFA4FF49674204601F0B8F8122001F060
:1081F000BDFA142001F0BAFA204601F0AFF81220BF
:1082000001F0ADFA142001F0AAFA204601F0A6F818
:10821000122001F0ABFA142001F0A8FA38BD0120B9
:10822000D2E700000249084490F93000704700008E
:10823000AC3200202DE9F0438146887891B0904619
:108240000C4600B901208DF83E002088ADF83C00B6
:1082500000250095607C694602F0B2FE6E46A07C67
:10826000711C02F0ADFEE07B00289DF8020002D0F8
:1082700040F0080001E020F008008DF80200217CA9
:1082800011B140F0100001E020F010008DF8020064
:10829000217B11B140F0010001E020F001008DF8D8
:1082A0000200217D09B1022100E0012161F34200B9
:1082B0008DF802001C2102A8FEF78DF8607BC10634
:1082C00001D4800617D50E950EAFE07C791C02F024
:1082D00077FE9DF83800079720F00F00401C20F033
:1082E000F00010308DF838009DF83A0020F00600BC
:1082F000801C8DF83A00607B8DF80800A07B8DF81B
:108300000900142109A8FEF766F80FA8CDE90906AF
:10831000A088ADF83000A06820B1E088ADF82C004E
:10832000A0680D90A06998B301950088ADF8100081
:10833000A06901AD01A94088ADF81200A0694068AC
:1083400006950390A069007B02F03AFEA069691CC3
:10835000407B02F035FEA069807A00289DF8060077
:1083600002D040F0080001E020F008008DF806007F
:10837000A169C97A11B140F0100001E020F01000AD
:108380008DF80600A169097A19B140F0010002E0F8
:108390000DE020F001008DF80600A169897B09B18C
:1083A000022100E0012161F342008DF80600E0693E
:1083B00000B10590434609AA02A94846AADF11B0B8
:1083C000BDE8F08370B5084C050009D01034216871
:1083D000002907D008682060496828468847F6E7E2
:1083E0000834F4E770BD000098320020054A0121EE
:1083F00020B1012805D19170FFF7E4BF5170002032
:10840000FAE77047983200202DE9F05F264841686E
:10841000F1B3DFF898B00E688146DBF8004087685A
:108420008078E11B21F07F45ED1CB0B9DFF880803A
:108430004FF48030C8F84403C8F804031120FEF755
:10844000B9F81120FEF7C1F84FF0010AC8F800A0F2
:108450002F2001F0E5FF89F802A0B54200D2354691
:10846000124BE8193C3320F07F401860DBF8001015
:108470005A46091B21F07F41001B20F07F40C91C98
:1084800081420FD9106818602F2001F0C9FF00E069
:1084900004E0BDE8F05F1120FEF7A2B8BDE8F05F90
:1084A00002F066BCBDE8F09F182B002004150140C7
:1084B0000010014073B58CB00646002000900D9866
:1084C00080B100246D4621460DA800F059FD30B161
:1084D000009805EB400084800098401C0090641CCC
:1084E000142CF0D32C2269463046FDF75BFF0EB00A
:1084F00070BD2DE9F04117880646B81D14460D469B
:10850000984202D90C20BDE8F08131880722062963
:108510000AD34FF4486C4FF6FF73614501D9994275
:1085200002D17088062801D21046ECE7604501D9D7
:108530009842F9D1994203D0984201D08142F3D8B0
:108540000520E85520881221401C80B22080295443
:108550002088401C80B220804119308803F092F8B6
:108560002188084480B220804119708803F08AF87D
:108570002188084420800020C5E7FEF74BBC00009E
:1085800038B54A7A0F4B62B100220A725969002944
:1085900006D001228DF80020ADF802006846884719
:1085A00038BD0A7A62B19B684C680246194620467B
:1085B000FEF7A0FC0028F3D0BDE8384002F08CBCE8
:1085C0005B68F1E70432002070B588B006460020F1
:1085D00005900690ADF81410ADF8161001900290B9
:1085E00001AA05A9304690DF050021D001F0BCFEAC
:1085F0000346114811493246401AC108012000EBD8
:10860000014004460E4901F0D6FABDF8042012B923
:10861000BDF8060028B1BDF80630204609A101F0DA
:10862000CAFABDF808201AB12046164901F0BCFA72
:1086300008B0284670BD0000DCC40200DCC40200A3
:1086400060BD02005468652072657175657374655C
:10865000642054582F5258207061636B6574206CED
:10866000656E67746820697320746F6F206C6F6E1D
:10867000672062792025752F2575206F63746574D6
:10868000732E0000ACBD020010B50021024800F0BE
:10869000A3FC80F3100010BD503A00200E4910B525
:1086A0000A784C780023A24212D0521CD2B20A702F
:1086B000022A00D10B70084A0B780C3252F82320A2
:1086C00002608868104420F07F408860012010BD5F
:1086D0000360002010BD0000182B002082688388F2
:1086E0001A4003689A5C0A708168491C816070476F
:1086F000C26883881A4003689954C168491CC160E4
:10870000704770B50D460446B0F83812D0F8340200
:108710000122FEF784FE00B1057004F13C0204F56D
:108720000D7104F1540072DF70BD10B50446C0B283
:10873000FEF7A0FC204610BD0C484A88C3889A4228
:1087400013D10A88A2F52063773B0ED18988C91E10
:108750008AB20281064807491346401AC00803211D
:1087600001EB004004A101F026BA7047A02A0020C6
:1087700024C50200DCC4020044617461206C656E93
:108780002069732073657420746F20307825582811
:108790002564290010B50949094800F09EFC08B17C
:1087A000FEF738FBF721064800F08BFC002803D0C9
:1087B000BDE81040FEF72EBB10BD00003987020057
:1087C000CC2E00200448007800284FF0140001D07F
:1087D00000F0C5BF00F0CABFA02A00200146034830
:1087E00002888A4200D0002070470000F03100204B
:1087F0002DE9FC5F0E008346DDE90C47C6F1000061
:1088000098469246814600D40846012503E000BF01
:1088100090FBFAF06D1C5045FADAA84500D94546A0
:1088200024B1002E01DB780700D5641EB80702D5FD
:10883000B8F1000F0AD0F80708D13CB1A54205D223
:1088400020215846641EFFF797FCF6E7002E02DA57
:108850004E462D2102E0780703D52B215846FFF71D
:108860008BFC07F0030002280BD1B8F1000F08D1F0
:108870003CB1A54205D230215846641EFFF77CFC6E
:10888000F6E7CDE90047434652463146584602F0E6
:10889000FFFEBDE8FC9F000070B50D460446006871
:1088A0004FF4887101F080FD4FF49071206801F061
:1088B0007BFD4FF49271206801F076FD4FF4A271B8
:1088C000206801F071FD20681249C0F80413206887
:1088D000690740F30730090E002806DA00F00F00A0
:1088E00000F1E02080F8141D03E000F1E02080F8A2
:1088F00000142068012140F3073000F01F0291406E
:108900004009800000F1E020C0F88012C0F800119A
:1089100070BD0000100302000246002012685307D9
:1089200013D502F00300012802D002280CD105E083
:10893000C2F383100B68801C184404E0022308680B
:1089400003EB92521044086001207047F0B5848810
:10895000A518944200D82246A41AC288D6189A4272
:1089600000D81346D21A4B880788BB420CD34088E4
:10897000834209D88888A04206D3A84204D8C88870
:10898000904201D3B04201D90020F0BD0120F0BDDA
:108990000A4810B5807860B1002401E0022C06D0AE
:1089A0002046FFF7E1F9641C042CF7D310BD032423
:1089B000F6E7BDE81040FFF7F7B90000DC2A002019
:1089C000F721018017214180002101714171FB21B4
:1089D00081711B21C17170472DE9F047394E002785
:1089E00080463D46DFF8E090D6F804A057E003D07B
:1089F0000446D0F81C8035E099F8002002EB4201D3
:108A0000521CD2B289F8002009EBC10199F802305A
:108A1000091D9A4201D189F8005048680A78044635
:108A2000012A12D0022A02D0032A3BD108E002F028
:108A3000BBFB00B10127257434E00574C06900E078
:108A400070680028F9D170602CE0207C50BB8868E9
:108A50006060C868A0600869E0604869A061F0785B
:108A600000B165606268B168184B501A20F07F4011
:108A7000984202D2A168084406E0881AA16820F052
:108A80007F40814202D9081A206000E025606560BD
:108A90000120A56020742046E56102F067FBB8F173
:108AA0000000A4D199F8001099F801008142A3D1E7
:108AB00017B97168514502D00120BDE8F087002048
:108AC000FBE70000182B002058330020FFFF7F0039
:108AD0002DE9FF410026234800F06AFA2148001FD3
:108AE000074600F065FA204C60680090A56800E039
:108AF00000986946284004EB80000C30FFF70CFF1B
:108B00000028F5D101AA009901EA050304EB8303CB
:108B1000491CDB6842F82030401C00910228F2D347
:108B2000019800F0030001280BD0022810D1019811
:108B3000032101EB90500099BDF80A6001EB900011
:108B400005E00198BDF80A60C0F383100844009066
:108B5000384600F02AFA08B10098606004B0304648
:108B6000BDE8F0814C3A0020343600208CB0182249
:108B700068496846FDF716FC6748069067494FF458
:108B80008070CDE9070109900723654A06A9684668
:108B9000FEF71EFA08B1FEF73DF94FF40041002040
:108BA00001F068F808B1FEF735F900F0D1FEFEF7E4
:108BB00077F908B1FEF72EF90AA8FFF7F7FA01F0E6
:108BC0006FF908B1FEF726F901F01AFB08B1FEF7BC
:108BD00021F9002469460120009401F0B1F908B19F
:108BE000FEF718F9684601F043FA08B1FEF712F9EA
:108BF0009DF808004BA120F00F00401C20F0F00071
:108C000010308DF808000D2202A87CDF08B1FEF7B5
:108C100001F900941020ADF800003C200194ADF85B
:108C20000200ADF804404FF4C870ADF80600684685
:108C30007ADF08B1FEF7EEF8FFF7ACFD3D48019092
:108C400001A93D4800F00DFB08B1FEF7E3F83B48F1
:108C5000009069463A48FEF7BFFF08B1FEF7DAF820
:108C6000374D0C3DEC70FDF7C1FF1C216846FDF748
:108C7000B2FB4FF42030CDE900404FF47020029059
:108C800030480590032630488DF80C600690ADF80A
:108C90000E408DF810406846FEF73AFD08B1FEF729
:108CA000B9F801203FDF29A0FDF74AFF2C482D49E4
:108CB000401AC00806EB004004462BA100F070FFEC
:108CC000204634A100F06CFF1B4804220C3090F8C1
:108CD0005410012077DF08B1FEF79CF80121687875
:108CE00073DF08B1FEF796F80A48304A01211838B8
:108CF000FEF7C4F80748002218384FF48041006896
:108D0000FEF7F8F808B1FEF785F800F02FFE01F045
:108D1000DBF8FAE708B90200CC2C0020CC2D0020AB
:108D200001B30200426C75654E6F722035323833E4
:108D3000320000000D9F0200E02E00203DA902003D
:108D4000AC2A002011AA02007B8502000D0A5541C1
:108D5000525420737461727465642E0D0A00000011
:108D600024C50200DCC402004465627567206C6F94
:108D70006767696E6720666F722055415254206F95
:108D80007665722052545420737461727465642E37
:108D9000000000005374617274696E67206164762C
:108DA0006572746973696E672E000000C5870200E2
:108DB00070B5144682880E4605462088111D014470
:108DC000921C994201D8FE2A01D90C2070BD521C78
:108DD00032542088FF21401C80B2208031542088EA
:108DE000401C80B220808119288802F04BFC218829
:108DF000084480B22080AA8842B1A96841B13044B9
:108E0000FDF7D0FA2088A98808442080002070BD92
:108E1000072070BD2DE9F047C5881E1DB6FBF5F78C
:108E20008946B6FBF5F1044605FB176C40791668D8
:108E30006843DDF820A0F718001F874200D9C61A42
:108E4000166001E02468491E0029FBD1A5EB0C0740
:108E50008846B74216D818E004EB0C00001D09EB59
:108E60000803BAF1000F3A4602D00146184600E066
:108E70001946FDF797FA2468F61B4FF0000CB8442A
:108E8000B54201D9374600E02F46002EE4D1BDE8B7
:108E9000F087000030B5024651B100F009FF002113
:108EA000074C08E034F821301568AB4202D111605C
:108EB000002030BD491C8142F4D3052030BD0000A4
:108EC00000000000F8B50F46017814460546012958
:108ED00001D1687830B12088821C9A4232D80129A9
:108EE00002D006E00720F8BD69780144891C994248
:108EF00028D8181A801E86B2ADF800602188B81CE8
:108F0000084469467DDF0028EDD12978022904D084
:108F10006878BDF80020904205D3BDF80000B0424B
:108F200001D809200AE00820012905D16978B14259
:108F300002D8ADF8001001E0ADF80060BDF80010F7
:108F4000FE2901D90C20F8BD2288491CB95421887A
:108F5000491C89B2218078542088401C2080BDF8AB
:108F60000010084420800020F8BD01F01F030122FA
:108F70009A40D243490900EB8100114600F021B824
:108F80004A0950F8220001F01F02012191400840D7
:108F900000D00120704701F01F0301229A404909C7
:108FA00000EB8100114600F01CB8002100F00FB862
:108FB000012100F016B808B56A46FDF75EF9009881
:108FC00008BD08B56A46FDF73EF9009808BD08B52A
:108FD0006A46FDF738F908BD08B56A46FDF71AF983
:108FE00008BD08B56A46FDF721F9009808BD08B527
:108FF0006A46FDF74FF9009808BD38B504460025CC
:109000008DF800506846FEF75FF8216862680868CE
:1090100090420ED9401E08600178238AE26801FB65
:109020000325227A2168101AC0B20A79824200D23E
:1090300008719DF80000FEF76BF8284638BD38B57A
:10904000054600208DF800000C466846FEF73CF807
:10905000E868298A201AB0FBF1F12A681068431CDD
:10906000136001709DF80000FEF752F838BD10B58E
:1090700030B1017A42680368891AC9B21A6006E001
:109080000E2010BD03681A68541C1C601170491E24
:10909000C9B2F7D2006800210171084610BDC208AC
:1090A00000F007030120895C98400840704710B524
:1090B000C20800F00703885C01249C4020438854C8
:1090C00010BD28B1A1F11702E12A03D30720704790
:1090D0000E20704701800020704710B560B101611B
:1090E000F72120F8021B20F8021BFB2100F8021BCD
:1090F000FFF766FC002010BD0E2010BDF0B585887E
:1091000093B00C46002D39D1018800263F4F242909
:109110003BD006DC102909D011290CD0232958D1C5
:109120004FE03A290BD0552953D129E0014620467A
:1091300001F0B2FC4DE0A01DFFF742FC49E02246E1
:10914000408934F8061F814200D8084660801728FD
:1091500000D217206080106970B1607960B1D7E9E2
:109160000001CDE90301ADF80E506088ADF81000A4
:10917000136903A9104698476671267113B0F0BDB4
:109180000146204601F0DCFC23E0011D2C2206A84C
:10919000FDF708F9BDF81800BDF81C2004EBC0016C
:1091A0004A732269AAB1D7E90423CDE90423ADF8B3
:1091B0001200487B8DF814002269204604A99047CC
:1091C00007E0017A207B884200D201462846FFF75B
:1091D000FBF9A07A0028D1D0E1882846A5DF012537
:1091E00080B11128CAD001F0BFF8024608480949E9
:1091F00013B0401AC00805EB0040BDE8F04006A1DE
:1092000000F0D2BCA672E572B8E70000A8B902006F
:10921000DCC40200DCC4020073645F626C655F67DB
:10922000617474635F65786368616E67655F6D74B0
:10923000755F726571756573742829207265747520
:10924000726E65642025732E0000000020B1027844
:10925000DE2A03D0082070470E207047418000208E
:10926000704760B159B10278DE2A0AD009684160BE
:10927000DE2101704FF6FF714180002070470E2003
:109280007047082070477FB5054600294DD0002D56
:109290004BD008780C46DE2847D1A88861888842E0
:1092A00002D1204602F08EFA2888012825D0022813
:1092B0003BD011283AD0512837D135F8040F6188B6
:1092C000884232D1A978A81C02292ED1017A04291A
:1092D00003D0062901D0052927D1002100910222BF
:1092E0008DF8002001914FF4C07202910391ADF806
:1092F0000420007A05280FD010E0297A20460129A1
:1093000013D1A988428891420FD10121017204B082
:10931000BDE8704002F056BAADF8041028886946DE
:10932000B0DF002801D0616888477FBDA8886188C8
:109330008842FAD14FF6FF7060807FBD00F1804017
:109340000068002800D00120704708B500F1804077
:10935000002101600068009008BD00002DE9F04187
:10936000040007D0044E4FF47A47751C3846A847CE
:10937000641EFAD1BDE8F08100B9020070B50B4C53
:10938000207808B185250FE00020A0606060206192
:10939000E060074801F026F8054600F07DFF08B9B7
:1093A00001F008F801202070284670BD9832002096
:1093B000ED83020038B500258DF800506846FDF7B2
:1093C00083FE074CE068401EE060E06810B901F0E1
:1093D00019F8A5709DF80000FDF79AFE38BD000051
:1093E00098320020F0B505460478154889B0164635
:1093F00040F82420124A0869121DA2F1080742F819
:109400002400487F385520226846FCF7CBFF04949F
:109410002878385C48B10EB10A4A00E0002269465B
:10942000281D01F07DF909B0F0BD0EB1064A00E03B
:109430000022694605F10C0001F028F8F3E700006E
:10944000002B002061B5020009B4020030B403789B
:10945000054CE35C1BB130BC001D01F097B930BC7A
:109460000C3001F07DB80000FC2A002030B40378F5
:10947000054CE35C1BB130BC001D01F009BA30BCE7
:109480000C3001F0E3B80000FC2A00200FB408B54E
:109490000399002904D004AA00926A4600F00FF84C
:1094A00001B05DF814FB10B582680446002A05D0AF
:1094B000D4E90403216898470020A06010BD2DE97D
:1094C000FC4791460C00804676D014F8011B39B158
:1094D00025290ED04046FEF74FFE20780028F4D113
:1094E00098F80C00002867D04046BDE8FC47FFF71D
:1094F000DABF0020012221782B291BD02D2902D090
:10950000302908D102E040F0010001E040F0020003
:10951000641C002AEFD100252A290ED02178A1F160
:1095200030020A2A11D205EB850201EB4205641CC8
:10953000303DF1E740F00400EAE7D9F800100B1DD8
:10954000C9F800300968641C0D44217800232E29D5
:109550000BD114F8011FA1F130020A2A05D203EB46
:10956000830201EB4203303BF3E76C290DD06829FD
:109570000BD0692921D00BDC252918D0582931D0EE
:1095800063290ED0642915D117E014F8011FECE708
:10959000702969D0732932D075291BD0782909D157
:1095A00020E0D9F80000011DC9F8001001784046FC
:1095B000FEF7E2FD641C90E76CE0D9F800100A1D8C
:1095C000C9F800200968CDE900500A224046FFF79B
:1095D0000FF9EFE7D9F800100A1DC9F80020096853
:1095E0000A2206E0D9F800100A1DC9F8002009680F
:1095F0001022CDE90050404602F04AF8DAE7D9F8E7
:10960000001000270A1DC9F800200E68C00705D108
:1096100012E04046761C7F1CFEF7AEFD3178002933
:10962000F7D104E0202140466D1EFEF7A5FDBD42A6
:10963000C0D9002DF6D1BDE74EB13046FCF7D6FEBD
:10964000074604E0202140466D1EFEF795FDBD4211
:1096500006D9002DF6D103E04046761CFEF78CFDBE
:1096600031780029F8D1A5E7D9F80000011DC9F823
:109670000010056830214046FEF77EFD7821404607
:10968000FEF77AFD08200021CDE9000103461022F3
:109690002946B0E7BDE8FC8770B541EA4201DDE943
:1096A00004564FF0A04441EA830141EA052104EB4E
:1096B000800041EA0641C0F8001770BD70B541EA6C
:1096C0004201DDE904564FF0A04441EA830141EA3A
:1096D000052104EB800041EA0641C0F8001770BD87
:1096E0001CB500220B46009211460192FFF7D4FFF1
:1096F0001CBD1CB500220B46009211460192FFF7DB
:10970000DDFF1CBD4FF0A04202EB80000321C0F83A
:10971000001770471CB5002100910B4601220191F2
:109720001146FFF7B9FF1CBD1CB5002100910B4687
:10973000012201911146FFF7C1FF1CBD4FF0A0426D
:1097400002EB8000D0F8002722F44032C0F8002756
:10975000D0F8002742EA0141C0F8001770474FF0E7
:10976000A04201218140C2F80C1570474FF0A04281
:1097700001218140C2F80815704701224FF0A04333
:10978000824011B1C3F808257047C3F80C25704713
:1097900018B5084B6C4601441B68009306E000BFF7
:1097A00054F82030D3F81035401C08C28142F7D855
:1097B00018BD0000D0B90200034908B508440021D3
:1097C00001600068009008BD0060004002494058F8
:1097D000012800D0002070470060004030B5154AD5
:1097E00001460020D2F8104423460AE0DB681D79C8
:1097F000854205D1401C0A28F6DB4FF0FF3030BD12
:109800001B68002BF2D1431CF9D0CB681871D2F839
:10981000103443B1DB68CC681B682360D2F8102495
:10982000D268116030BDC2F81014C96800220A6005
:1098300030BD0000343600207047FCF72BBF704766
:1098400008B5034A00924023024A00F005F808BD1B
:10985000E9AE02009C340020F0B595B01C461546D8
:109860000F4608461A9E00F0F5FA182109A8FCF7E1
:10987000B2FD0E96CDE909540023082203A938460B
:1098800000F0FDFA05980690BDF81000ADF81C0038
:10989000BDF81200ADF81E0000208DF821000398DD
:1098A000082600F00300012802D0022818D032E078
:1098B00003983346850AC0F3C2008DF82000039850
:1098C0000FA9C0F38314A200384600F0D8FA09A803
:1098D000009006AB22460FA9284600F017FA1AE0BE
:1098E0000398840DC0F3C2008DF82000082C01D22B
:1098F000254600E0082533462A460FA9384600F0E1
:10990000BEFA2E44641B09AB06AA29460FA800F034
:109910005BF9002CEAD1384600F0A2FA15B0F0BD90
:109920000A4A012902EBC00007D0022907D0032907
:1099300007D0042907D00020704702207047042078
:10994000704700797047407970470000DCC402001E
:1099500010B5FFF772FF04210348FFF73FFF0249EC
:109960000120C968487110BDCCC402002DE9F04F38
:109970008DB0FEF711FC18B100200DB0BDE8F08FDE
:109980007E4C4FF0000BC4F818B4BFF34F8F6068E3
:109990000290A568D846284004EB80000CE000BF88
:1099A000D4F8180470B921680298814201D8616026
:1099B000E2E7284004EB80000C3002A9FEF7ACFF80
:1099C0000028EDD1002005AA029901EA050304EB65
:1099D0008303491CDB6842F82030401C02910228B6
:1099E000F2D3059800F00300022802D001284DD0E0
:1099F000AAE005985022810D8946B2EB905F00D80D
:109A000050210E4666F39F50059008315C4800F0E7
:109A1000D8F9070078D000F01DFA4346082205A9BE
:109A2000384600F034FA029908F1080A2940681A09
:109A30008000001D864222D9504D0C3530B1C2B293
:109A400004EB8101301A90460C3104E02946F2B251
:109A5000002590462846C6B25346384600F017FA0D
:109A60000AEB080325B132462946384600F00FFAC2
:109A7000029909F1030001EB900002903BE004EB36
:109A800081015346324638460C31EFE70598C0F362
:109A90008310062800D30620059960F38911C1F3CD
:109AA0008310801C05918100354800F08AF9070079
:109AB0004AD000F0CFF94346082205A9384600F005
:109AC000E6F908F1080800260FE00298434600EA8C
:109AD0000501401C04EB81010290042238460C3140
:109AE00000F0D5F908F10408761C0598C0F383103E
:109AF000B042EAD847B1D4F81054D4F8180478B179
:109B0000384600F0ADF934E01EE0E86840790128FD
:109B100004D12A682846394612689047E8680568E3
:109B2000002DF2D1384600F09BF98DF800B0684660
:109B3000FDF7CAFAD4F8180408B9029860609DF8D5
:109B40000000FDF7E5FA14E0D4F8104405E02168C0
:109B5000204689688847E0680468002CF7D10948E6
:109B60000949401AC008022101EB004007A100F09A
:109B700017F8FEF711FB80F00100FEE634360020F6
:109B800044C5020024C50200DCC402004261636BCC
:109B9000656E647320666C75736865640000000010
:109BA00000231A4601F05CBA08B5012300926A4608
:109BB00001F056FA08BD1CB5CDE9002302236A4620
:109BC00001F04EFA1CBD00002DE9F0470E4680461C
:109BD0001C46924608293ED894F80C900020207329
:109BE0001946104601F06CF80025B54206D218F867
:109BF00005201AA12046FFF749FC03E019A12046E1
:109C0000FFF744FC6D1C082DEFD317A12046FFF78A
:109C10003DFC0025B54210D218F80570FCF7BEFBDC
:109C20000068C05D10F03E0F01D03A4600E02E22E1
:109C30000EA12046FFF72AFC03E00DA12046FFF706
:109C400025FC6D1C082DE5D301222146504601F06C
:109C500019F884F80C90BDE8F08700002025303218
:109C600078000000202020007C0000002563000018
:109C7000200000000B4810B5FF2181600021016029
:109C80004160C0F81814C0F8141480F82014064875
:109C900000F0E4F8002803D1044800F039F900206E
:109CA00010BD00003436002044C5020098BB0200FD
:109CB00002480349401AC0087047000044C502002A
:109CC000DCC4020013B56846FFF7E4F808B10020D1
:109CD0001CBD0248009950F831001CBDDCC40200D4
:109CE00070B509480125D0F8104480F8205407E0E9
:109CF000E06845712168204649688847E068046843
:109D0000002CF5D170BD0000343600202DE9FF474E
:109D100081460C9D00200C462F7B287398461646E2
:109D20002946184600F0CCFF072E42D2DFE806F0A5
:109D300004090F161F2A360049462846FFF7A6FBDE
:109D400037E0494628462268FFF7A0FB31E0D4E916
:109D5000002349462846FFF799FB2AE0A0680090B7
:109D6000D4E9002349462846FFF790FB21E0D4E9D7
:109D70000201CDE90001D4E9002349462846FFF756
:109D800085FB16E004F1080007C88DE80700D4E958
:109D9000002349462846FFF779FB0AE004F1080052
:109DA0000FC88DE80F00D4E9002349462846FFF785
:109DB0006DFB00222946404600F064FF2F73BDE88A
:109DC000FF872DE9F041058A80462D1F4819C01CE8
:109DD000B0FBF5F0C6B24046FFF70FF9041E19D0EC
:109DE0000020207101206071E58000272546761E45
:109DF000C4F800800BE04046FFF7FFF860B16179DE
:109E0000491C6171286005467F1CC0F80080B7427C
:109E1000F1D32046BDE8F081204600F002F8002092
:109E2000F8E72DE9F041457901466B1E002201E07B
:109E30000968521C9A42FBD30F680146002605E0D0
:109E400038460C68FFF7FBF82146761CAE42F7D384
:109E5000BDE8F0810121001DFFF7ADB8FFF707B99C
:109E600010B504460121001DFFF7C1F810F0FF0FE7
:109E700004D12046BDE81040FFF7D3BF10BD1CB58C
:109E800001920122009201AAFEF7C4FF1CBD1CB57D
:109E900001920022009201AAFEF7BCFF1CBD000047
:109EA000064910B500204870091D0860BFF35F8F98
:109EB0000349044800F014FA002010BD482B00208C
:109EC00030BA02009034002008B500208DF8000060
:109ED0006846FDF7F9F8F1EE100A20F09F00E1EE78
:109EE000100ABFF35F8F08494020C1F880029DF837
:109EF0000000FDF70DF900F0CFF908B141DF08BD12
:109F000020BF40BF20BF08BD04E000E0FCF782BFD7
:109F10008268002191608268116182685161826863
:109F2000D1608268516080680160704720B1034948
:109F300009680160002070470E2070471CBC0200B9
:109F40002DE9FE4307460E460846FFF7EFFF0028BF
:109F50007CD100240094019406208DF800704FF00D
:109F60000108ADF8040002948DF8028069462020B3
:109F7000326869DF3649374A891AC908012202EB7B
:109F8000014530B100F0F0F9024628463249FFF7AA
:109F90000BFE00948DF801808DF80240019402942C
:109FA0008DF8034069464020326869DF30B100F027
:109FB000DBF9024628462949FFF7F6FD00948DF8A3
:109FC0000070F720ADF80200019402946946232046
:109FD000326869DF30B100F0C7F9024628462049EF
:109FE000FFF7E2FD0094019402948DF80080694629
:109FF0000120326869DF30B100F0B6F90246284628
:10A000001849FFF7D1FD4FF4B0600090019402941D
:10A010006946A120326869DF30B100F0A5F9024637
:10A0200028461149FFF7C0FD0094019402948DF871
:10A0300000406946A020326869DF30B100F094F931
:10A04000024628460949FFF7AFFD0020BDE8FE8320
:10A0500034C50200DCC402004CC3020094C30200F9
:10A06000E0C30200ACC20200F8C2020058C2020003
:10A070002DE9F0410546076860DF804619491A4816
:10A080002A68081AC608BA4219D9022000EB064409
:10A0900016A12046FFF784FD20463A461FA12B68F3
:10A0A000FFF789FD4FF08050D0F80C01296880023D
:10A0B00000F10050421A204625A1FFF775FDB8F1C6
:10A0C00000004FF001040AD000F04EF9024604EB04
:10A0D00006402AA1FFF768FD4046BDE8F0812F4801
:10A0E0000470F9E734C50200DCC40200496E7375E0
:10A0F0006666696369656E742052414D20616C6CBF
:10A100006F636174656420666F72207468652053A4
:10A110006F66744465766963652E00004368616EFE
:10A120006765207468652052414D207374617274B4
:10A13000206C6F636174696F6E2066726F6D203082
:10A1400078257820746F20307825782E0000000064
:10A150004D6178696D756D2052414D2073697A6546
:10A1600020666F72206170706C69636174696F6ED4
:10A1700020697320307825782E00000073645F62B8
:10A180006C655F656E61626C652829207265747507
:10A19000726E65642025732E00000000B32B002032
:10A1A00030B51548ADF5017D0078002821D04FF479
:10A1B000FA7500BFADF8005280A9684661DF38B17A
:10A1C000052816D00DF5017DBDE83040FCF722BE14
:10A1D0006C460A497DA800F083F806E0D0E900212A
:10A1E000204690477DA800F092F87F980028E1D0A3
:10A1F000F4E70DF5017D30BDB32B002020BC02003B
:10A200007CB5194C207808B108207CBD0120A070D5
:10A21000002000F033FE112819D0002000F046FE87
:10A2200012480026006801908DF800606846FCF72F
:10A230004BFF0F4901A810DF05000AD00020207055
:10A240009DF80000FCF764FF2DB128467CBD00207E
:10A250007CBD0120F3E7A670667000F0D5FE0120FA
:10A2600000F024FEF3E70000B02B0020B4BB020096
:10A27000CD6D02000EB50749684600F031F805E0E3
:10A28000D0E900108847684600F041F8029800289D
:10A29000F6D10EBDD0BB0200014800787047000027
:10A2A000B02B00201FB568464BDF30B1052814D015
:10A2B00004B0BDE81040FCF7ADBD084901A800F0AE
:10A2C0000FF806E0D0E900210098904701A800F0BF
:10A2D0001EF803980028E6D0F4E71FBD3CBC02003E
:10A2E000016009684160AFF3008010B5D0E900213A
:10A2F0005368994201D1002104E0D1E90034A3421E
:10A3000002D01946816010BD08314160F0E78168D4
:10A3100000290BD0026892680A44826041684B6849
:10A320009A4203D108314160FFF7DFBF7047000058
:10A330000C4A10B502F594730EE0991AC91001EB9E
:10A34000D171491002EBC1010C68844201D90B465E
:10A3500002E005D201F108029A42EED3002010BDBE
:10A36000486810BD50BA020000B5FFF7E1FF0028B1
:10A3700000D1014800BD00003CBA0200405800284E
:10A3800000D00120704708B500224250405800908C
:10A3900008BDD0F80403084000D0012070474058A1
:10A3A000002800D00120704708B5002242504058D4
:10A3B000009008BD09480068012110F0010F08D184
:10A3C0004FF0E020C02280F80024C0F88012C0F8CE
:10A3D00000110349012008607047000000E100E01F
:10A3E000180500400649024600200B790BB1852074
:10A3F00070470A6001220A7100224A71704700000A
:10A40000082B002004490120086004480168C1F3BA
:10A4100000410029FAD170470C00004018040040A8
:10A42000002802D00149800108477047E1B90200C5
:10A430000121B1EB507F01D101207047002070470E
:10A4400038B50D4600F088FC040014D000208DF8CB
:10A4500000006846FCF738FE207928B19DF800001E
:10A46000FCF756FE112038BD0120256020719DF8B3
:10A470000000FCF74DFE002038BD000001490248F5
:10A4800000F0DABF08330020002000402DE9F04141
:10A490000546007916460F4600EB40012D4A01EBB8
:10A4A000C00102EB810494F82A1011B10820BDE824
:10A4B000F081294951F820102868FFF7C1FF08B141
:10A4C0001120F4E739462846FCF73CFE66603869FF
:10A4D000206030004FF001062FD03F7F4FF48E7187
:10A4E0002868FFF750FF4FF4A2712868FFF74BFF71
:10A4F00028681A49C0F8041328684FEA471140F346
:10A500000730002806DA00F00F0000F1E02080F8A4
:10A51000141D03E000F1E02080F80014286840F3E7
:10A52000073000F01F0206FA02F14009800000F136
:10A53000E020C0F88012C0F8001128680421C0F89B
:10A5400000150020A061E06184F8290044F8140F90
:10A55000A675ACE708330020D4B9020080000200E1
:10A560002DE9F05F054600794FF4017600EB4003DA
:10A5700003EBC000344B03EB80040020636813B18D
:10A580002B68C3F80863A3694FF000096BB1E06959
:10A5900038B1606810B12868C0F804631120BDE8C4
:10A5A000F09FE2610120216105E0C4F82490A261DE
:10A5B000E160C4F81C9094F82910014302D12846A8
:10A5C00000F024FC60680028286803D0C0F8046309
:10A5D0000020E4E74FF4A2763146FFF7D4FEB246FE
:10A5E0004FF4927B59462868FFF7C8FE06464FF4A1
:10A5F00084712868FFF7C2FE804651462868FFF73D
:10A60000BDFE074648EA07003043EBD056EA070094
:10A6100007D12146286800F0C9FBA169606A814220
:10A62000E0D8C4F818900EB10320B8E70FB10F209E
:10A63000B5E794F8291001200029296801D00860A5
:10A64000C6E74860C4E70000083300202DE9F04762
:10A65000054600790B4600EB400101EBC0002349A1
:10A6600001EB8004284600F043F810B11120BDE84A
:10A67000F0874FF00008C4F82080A360626184F87E
:10A6800028804FF48E76474631462868FFF77BFED8
:10A6900028684FF00109C0F808902146286800F0AA
:10A6A00011FE606800BBD5F800A00EE094F8280009
:10A6B00008B10F2716E031465046FFF75FFE00282D
:10A6C000F4D02146504600F0FDFD216A60698142C8
:10A6D000F1D331462868FFF751FE0028F9D02868E9
:10A6E000C0F80C90C4F814803846C0E70833002046
:10A6F000007900EB400101EBC000044901EB800050
:10A700004069002800D00120704700000833002075
:10A710000149024800F03CBF3433002000200040D3
:10A720002DE9F0410546164600790F46154A00EB23
:10A73000C00102EB810494F8201011B10820BDE89B
:10A74000F081114951F820102868FFF779FE08B10F
:10A750001120F4E739462846FCF738FD6660386971
:10A7600020601EB1397F2846FEF796F82868082138
:10A77000C0F800150020A061E0610121606184F84B
:10A780002010DCE734330020D8B902002DE9F05F57
:10A79000044600790E4600EBC001DFF8F0A0174632
:10A7A0000AEB81053046FFF743FEB0B168684FF011
:10A7B00000084FF4047910B12168C1F80893A86922
:10A7C0004FF0000B80B1E86948B1686810B12068AB
:10A7D000C0F804931120BDE8F09F1020FBE7EF6163
:10A7E0004FF001082E6102E0EE60C5E9067B00250E
:10A7F0004FF488712068FFF7D7FD4FF4A2712068ED
:10A80000FFF7D2FD2068C0F83465C0F838752068BD
:10A81000B8F1000F12D0D0F8001241F02001C0F8BA
:10A8200000122079D04600EBC0010AEB810040689D
:10A8300038B12068C0F804932846CCE701210160B4
:10A84000EFE74FF4887A4FF4A27951462068FFF77A
:10A85000A6FD074649462068FFF7A1FD06464FF4CE
:10A8600092712068FFF79BFD014647EA0600084306
:10A87000EBD0227902EBC20308EB8302C2F818B0D6
:10A8800001B10325002ED7D00F25D5E734330020A2
:10A890002DE9F04704460E460079204900EBC00040
:10A8A00001EB800517463046FFF7C2FD30B1204668
:10A8B00000F036F820B11120BDE8F0871020FBE74A
:10A8C0006F61AE604FF49076002731462068FFF745
:10A8D0006BFD4FF4AC7841462068FFF765FD2068BA
:10A8E000AA686969C0F84425C0F8481520680121A4
:10A8F0008160686878B9B14649462068FFF74FFD26
:10A90000064641462068FFF74AFD0643F4D000B1F1
:10A910000F27002068613846CEE70000343300205E
:10A920000079054900EBC00001EB80004069002878
:10A9300000D0012070470000343300202DE9F041A1
:10A9400004460078002847D1244825490026401AAB
:10A95000C008012101EB004710E02069805DFCF791
:10A9600089FB050009D0112DF7D038462A461DA1D4
:10A97000FFF71AF92846FCF74DFA761CA08AB04278
:10A98000EBD8A18A2069084410F8010C0D2804D1E5
:10A990000A20FCF76FFB1128FAD0A08A06281BD1E9
:10A9A000206901784C2917D14178652914D1817823
:10A9B000642911D1C1784F290ED100796E2806D0B3
:10A9C000662809D1BDE8F0411220FEF7CFBEBDE8F0
:10A9D000F0411220FEF7C3BEBDE8F08124C502009D
:10A9E000DCC402004661696C656420726563656958
:10A9F00076696E67204E5553206D65737361676588
:10AA00002E204572726F7220307825782E2000003B
:10AA10000078002807D104483B21C08876DF002851
:10AA200001D0FCF7F7B97047A02A0020F0B58BB031
:10AA3000002601960D4604468988406901AAFCF764
:10AA400009FC0AA8CDE908600227ADF82070ADF82E
:10AA50002260218AA88808AAADDF002819D1A06940
:10AA6000002816D00998FDF759F9002811D0019E49
:10AA70000EB101203070182102A8FBF7ACFC8DF854
:10AA800008700394A888ADF810000596A16902A883
:10AA900088470BB0F0BD000070B58D88027900EBDF
:10AAA000C5042273C97BA41D012902D0022904D147
:10AAB00001E0008800E04088208021886088814291
:10AAC00011D92846A5DF0126B0B1112816D0FFF70D
:10AAD0004BFC02460B480C49401AC00806EB0040EC
:10AAE0000AA1FFF761F8A179E079814208D92846E7
:10AAF000BDE87040FDF768BD6671F4E72671F2E7C6
:10AB000070BD0000DCC40200DCC4020073645F623C
:10AB10006C655F67617474635F65786368616E67B5
:10AB2000655F6D74755F7265717565737428292032
:10AB300072657475726E65642025732E00000000C6
:10AB40007CB506468D88C88806EBC504A41D172869
:10AB500000D217202188814200D80846608000205A
:10AB6000207121882846B5DF60B1FFF7FDFB024662
:10AB70000F481049401AC008012101EB00400EA106
:10AB8000FFF712F86079002810D1306900280DD045
:10AB90001549D1E90201CDE90001ADF80250608804
:10ABA000ADF8040032696946304690477CBD00002C
:10ABB000DCC40200DCC4020073645F626C655F6722
:10ABC000617474735F65786368616E67655F6D74E7
:10ABD000755F7265706C7928292072657475726E64
:10ABE00065642025732E0000A8B90200F0B587B077
:10ABF0000C4605468E1D8988406906AAFCF72AFB8B
:10AC000018216846FBF7E7FB0195A088069AADF886
:10AC10000800039231882B89002704F11200994221
:10AC200002D17389022B0DD0AA8991421ED1A96944
:10AC300000291BD08DF8007004907089ADF81400C5
:10AC4000A96911E0002A11D0FDF768F820B1069932
:10AC500001200870022002E00698077003208DF89A
:10AC60000000A969002901D06846884707B0F0BDF7
:10AC70000068012803D0022801D00020704701207D
:10AC80007047000010B50C46017A052908D0407ABB
:10AC900038B1084808A102682046FEF7F7FB00E03B
:10ACA0001AB106A12046FEF7F1FB2046BDE8104090
:10ACB000FEF7F9BB8C2B0020257300000D0A000065
:10ACC00038B5C3880D46044633B114A0009015A2D0
:10ACD00016A12846FEF7DAFB217A05291CD0607AF6
:10ACE00048B1A088FEF71CFE164951F8202016A195
:10ACF0002846FEF7CBFBA0880021FEF7E3FF0346C2
:10AD00001049207A143951F8202001B02846BDE8B6
:10AD100030400EA1FEF7BABB38BD00001B5B306DA2
:10AD2000000000001B5B313B33316D0025734C6F1D
:10AD300067732064726F707065642028256429250C
:10AD4000730D0A008C2B0020257300003C25733EF8
:10AD50002025733A200000000349884201D10348AE
:10AD6000704700207047000000200040102B00209A
:10AD700070B5012670044FF0E0210025C1F8800174
:10AD8000084C4010C4F84803C4F8080366602F203C
:10AD9000FFF746FBA660044C2F20A560FFF740FBA1
:10ADA000A57070BD00100140182B002070B505463D
:10ADB00088690C4600284FF4847128460AD0FFF7B2
:10ADC000E2FAD5F81805626AE1688854606A401CA6
:10ADD000606270BDFFF7D7FAD5F8180570BD1FB5D2
:10ADE00001238DF80030CDE90121D0E90012684639
:10ADF00090471FBD1FB501238DF800308DF8081056
:10AE00000192D0E90012684690471FBD10B5044674
:10AE100000684FF49271FFF7B6FA4FF4847120681E
:10AE2000FFF7B1FA20680121016010BD38B500219B
:10AE3000012548B101280CD0032809D1FFF7BAFA3F
:10AE4000BDE83840FEF7B6BA4FF0E020C0F88051B8
:10AE500038BD8DF800106846FCF736F9064C2078AE
:10AE600008B9FEF78BFAE068401CE060A5709DF819
:10AE70000000FCF74DF938BD983200203EB504467D
:10AE800009496846FFF72CFA08E000BFD0E9002125
:10AE90002046904730B16846FFF739FA02980028FB
:10AEA000F4D13EBD11203EBDB8BB02003EB5044604
:10AEB00008496846FFF714FA07E000BFD0E900210F
:10AEC000204690476846FFF722FA02980028F5D1FD
:10AED0003EBD0000C4BB020002498969002900D0C0
:10AEE00008477047043200202DE9F04114008846DD
:10AEF00018D000250E4F032608EB0501224600203E
:10AF0000FBF7CAFB0544241A40B93878002809D059
:10AF100008494FF47A408847761E05D001203870E2
:10AF2000002CE9D1BDE8F08100203870FAE700007C
:10AF3000542B002091BB02002DE9F0410746806AA6
:10AF400014468846C8B3002531E000BFB96A05EB56
:10AF5000450001EB8006B088801CFE2802D90C2039
:10AF6000BDE8F0812288401C08F8020020881622E3
:10AF7000401C80B2208008F800202088401C80B24D
:10AF8000208000EB0801308800F07CFB2188084419
:10AF900080B22080B28842B1B16871B14044FBF701
:10AFA00001FA2088B188084420806D1CEDB297F822
:10AFB0002C00A842CAD80020D2E7FFE70720CFE73D
:10AFC0000A78062822F0FF020A7010D2DFE800F0AB
:10AFD000030507090B0D002008E0112006E02120E1
:10AFE00004E0312002E0122000E0222008707047C7
:10AFF000002805D10349012048700020FDF7E2B97F
:10B00000704700009832002010B51620FBF7B0FD05
:10B01000A0B1114890F800044009082811D201217C
:10B02000814011F0EC0F0CD00C4882684FF4800185
:10B030006AB1016841F48001016010BD42F2010073
:10B0400001E042F20200BDE81040FBF7E3BE4FF022
:10B05000E020C0F8001110BD16E000E084340020AC
:10B060002DE9F84F204D9246894606469846012222
:10B0700069461846AF68FDF737F858B300980021C5
:10B080000446801C09E000BF00EA07035AF82120AB
:10B0900005EB8303401C491CDA604145F4D34FEAB9
:10B0A000164AFDF7F1FA4AEA0041601C384005EB08
:10B0B00080003C4005EB8402C160D06866F3C500A7
:10B0C00068F3891069F39F2020F00300401C20F0F2
:10B0D0000400D06095F8200402E000BFFEF746FCB3
:10B0E0000028FBD1BDE8F88F343600202DE9F84F59
:10B0F0001D4C00256846D4E901A6FDF7CFFA0027CC
:10B1000038B30023009A61681CE0D1F800C00846FB
:10B11000944503D9ACEB02020A6015E0A2EB0C02E5
:10B1200063440760D0F80CC0C1698146BCF1000FD0
:10B1300008D006EB030828F07F48C0E9018CC9F865
:10B140001C5005460029E0D128466160FDF744FC0B
:10B1500003E02846FDF740FC10B15046FDF754F9D6
:10B16000E770BDE8F88F0000182B00200D4B10B5DC
:10B17000596831B102680C68A24204D8A21A0A6068
:10B18000C161586010BD0B4603E00B46C969121B34
:10B1900021B10C689442F8D3A41A0C600260C1611A
:10B1A000D86110BD182B00202DE9F041144E7768AE
:10B1B0003D462C4603E0844204D02546E469002C39
:10B1C000F9D11BE0D4B1A5420BD1F869706040B948
:10B1D0000C49012088600021B160F0702F20FFF73A
:10B1E0001FF92168E069E86110B10268114401604B
:10B1F0007068874202D00120BDE8F0810020FBE7A3
:10B20000182B0020001001407CB5064600240D4696
:10B210008DF800406846FBF757FF01A800F0E4FAFC
:10B2200070B10570094946609DF8040048709DF8AA
:10B230000000FBF76DFF1420FBF7D2F920467CBD20
:10B2400004249DF80000FBF763FFF7E75833002064
:10B250002DE9F041194D6C68002C2CD018480027BE
:10B260000068A968B846401A20F07F462068B042BE
:10B270000CD82146361A0744E469087C20B181F8CD
:10B280001080886949698847002CEFD1297868784F
:10B29000814206D1401CC0B26870022801D185F8F5
:10B2A0000180064869780C3040F82170BDE8F04113
:10B2B0001420FBF795B9BDE8F0810000182B0020A1
:10B2C0000415014070B50C4605464FF48E71FFF72A
:10B2D0005AF8216AA068415C206A401C2062C5F8C7
:10B2E0001C1570BD1FB500228DF8002002918168E9
:10B2F00001914261D0E90012684690471FBD0000ED
:10B3000038B5007800282AD1164C154D20792844EC
:10B31000FBF744FE2079401CC0B22918207111F8B7
:10B32000011C0A2904D00D2902D02189884216D394
:10B33000012812D92079ADF800000A48E3886A464E
:10B3400007490C30FCF714FC082806D01328F1D06C
:10B35000052802D008B1FBF75DFD0020207138BD43
:10B36000D82B0020A02A00207CB50178244D81B381
:10B3700001290BD002292BD18DF80010C068691C5F
:10B3800001900122C81DFEF761F82EE040680178A7
:10B390001C48FBF765FD1B4C012618B18DF80060B9
:10B3A000019006E0A068E168814205D000208DF898
:10B3B0000000696868468847A068E168081AA188A3
:10B3C000884207D80E490122491CC81DFEF73EF8E5
:10B3D0007CBD01E0AE70FBE70A4809491030FBF77D
:10B3E00024FD30B103208DF8000069686846884765
:10B3F000EEE70349012201F10800FEF737F8E7E71D
:10B400002C2B0020643400201FB50A4601788DF8EB
:10B41000001041680191017A8DF80810C06803900E
:10B42000044850F82210001F50F822206846904728
:10B430001FBD0000042B00202DE9FF470C460546E8
:10B440004FF40071FEF7A5FF01274FF401780026A5
:10B4500018B34FF4927949462846FEF78FFFE0B1C2
:10B4600049462846FEF78FFFC5F8088394F829005F
:10B4700000B96F6002208DF80000D5F88004C5F88F
:10B4800080040390A0690290E0680190A661E661E3
:10B49000D4E900126846904728E004212846FEF7C8
:10B4A00078FF18B34FF484712846FEF767FFE8B1C0
:10B4B00021462846FFF77AFC616AA069884215D1C7
:10B4C000E06938B1E268616AA0612069E66166629C
:10B4D000E06008E094F8290000B96F60C5F80883BF
:10B4E000A661E268616A2046FFF779FC4FF48E7826
:10B4F00041462846FEF742FF78B1206A61698842DA
:10B5000002D294F8280020B341462846FEF73BFFBC
:10B51000616911B12046FFF7E5FE4FF4A27841467C
:10B520002846FEF72BFF002818D041462846FEF794
:10B530002AFF94F8290000B12F60A06900280DD0DF
:10B54000A661E268616A04B02046BDE8F047FFF7F3
:10B5500046BC21462846FFF7B5FEDEE7BDE8FF877B
:10B560001FB50A4601788DF8001041680191017AF3
:10B570008DF80810C0680390044850F82210001F8E
:10B5800050F82220684690471FBD0000042B002081
:10B590002DE9FF410C464FF4927705463946FEF7F8
:10B5A000FEFE0026C0B139462846FEF7FDFE022009
:10B5B0008DF80000D5F88004C5F880040390D5F814
:10B5C0003C058DF80800E0680190A661E661D4E9C9
:10B5D00000126846904723E04FF4887739462846A2
:10B5E000FEF7DDFEE0B139462846FEF7DDFED5F870
:10B5F0003C15A069884213D1E06960B1E268D5F8D2
:10B60000000220F02000C5F80002E069A061206976
:10B61000E661E06001E0A661E2682046FFF7EAFB30
:10B620004FF4A27739462846FEF7B9FE60B1394695
:10B630002846FEF7B9FEA06930B1A661D5F83C15E1
:10B640002046E268FFF7D6FB4FF49077394628464C
:10B65000FEF7A5FE002813D039462846FEF7A4FEC3
:10B66000606900280CD0D5F84C058DF800608DF885
:10B670000800A06801906661D4E90012684690470E
:10B68000BDE8FF810870000A487002207047000082
:10B690002DE9F05F8346DDE90A4A994690460D465A
:10B6A0000846012703E000BFB0FBF8F07F1C4045CF
:10B6B000FAD2B94500D94F465FEACA7012D18CB1AF
:10B6C0005FEA8A7002D5B9F1000F01D0202607E0A9
:10B6D000302605E031465846641EFCF74DFD0CB19E
:10B6E000A742F7D35FF00106B9F1010F02D9A9F122
:10B6F000010903E0B5FBF6F0404502D306FB08F66E
:10B70000F2E7DFF83C9000BFB5FBF6F000FB165502
:10B7100019F800105846FCF72FFDB6FBF8F6002E7E
:10B72000F2D15FEACA7009D0002C07D0A74205D237
:10B7300020215846641EFCF71FFDF5E7BDE8F09F89
:10B7400008BA0200F8B5054680B2FDF747F80400D4
:10B7500013D0154E207A0027317B88420ED2A8B232
:10B7600004F10A0175DF28B1112806D0BDE8F840C0
:10B77000FFF7B2BB207A401C2072F8BD2772307CE4
:10B7800038B1A8B23B2176DF18B1082801D0FFF705
:10B79000A3FB71690029F0D08DF80070ADF802505C
:10B7A00068468847F8BD000004320020417939B16D
:10B7B00090F8521221B990F8540208B10120704754
:10B7C0000020704730B40446007A00280AD0608810
:10B7D000002166DF28B1112802D0616830BC08471B
:10B7E0000120207230BC70470A494A788B78521C7D
:10B7F000D2B2934200D100220B78934201D10020B3
:10B8000070470270487800EB400001EBC000001D5B
:10B8100070470000583300202DE9FC411646DDE951
:10B820000854CDE900541F468046022200F00CF86F
:10B83000002807D1CDE900543B461022314640464E
:10B8400000F002F8BDE8FC812DE9FC5F0026DDE98F
:10B850000C4B994692468E4680462788354630E006
:10B86000D8F80400002200EB8500694600680190CA
:10B8700001A864DF002830D19DF8000050451FD199
:10B880000EB1002100E00221228808441118594518
:10B8900022D846B9521C90B2208009F800E02088D6
:10B8A000401C20800126218801A801EB090269467D
:10B8B00064DF002811D120889DF800100844208002
:10B8C0006D1CB8F80000A842CADC56B12088C01B25
:10B8D000401E80B2FF2802D90C20BDE8FC9F09F869
:10B8E00007000020F9E70000000000000000000051
:10B8F000B82B002000000000000000000000000045
:10B900000338FDD8704700000B0000000C00000059
:10B9100005000000070000000000000000E0D70163
:10B9200001000000000000004000000000000000D6
:10B9300000000000000101100200000600000000ED
:10B9400000000000000000000000000000000000F7
:10B9500000000000000000000000000000000000E7
:10B9600000000000000000000000000000000000D7
:10B9700000000000111213140D0E0F10643100208E
:10B9800084310020B03100200D000300297E020028
:10B990000E000300297E02000F000300297E020032
:10B9A00010000300297E0200770A0000000000005A
:10B9B000770A0000000000007ADA000000000000B2
:10B9C0009ECADC240EE5A9E093F3A3B50000406E07
:10B9D000000000507DA4020011A70200000000003A
:10B9E0000338FDD870470000FFFFFFFFFFFFFFFF98
:10B9F000FFFFFFFFFFFFFFFF00000000000000004F
:10BA00000000D601060100003031323334353637BC
:10BA10003839414243444546000000000000000020
:10BA20000000000000000000000000000000000016
:10BA300018BA020030BA020004000000556E6B6EA6
:10BA40006F776E206572726F7220636F646500009D
:10BA5000000000007CC102000100000028C00200BC
:10BA6000020000001CBE0200030000009CC0020097
:10BA700004000000F0C0020005000000D0BF02007A
:10BA8000060000006CBF020007000000D8C00200E2
:10BA900008000000E4BF02000900000048C00200E6
:10BAA0000A00000064C102000B00000004BE020096
:10BAB0000C000000FCBF02000D000000CCC1020021
:10BAC0000E000000C8C002000F00000004C1020008
:10BAD0001000000038C1020011000000E0C10200A7
