:020000022000DC
:1060000000000120756302005D6302005F6302000F
:106010006163020063630200656302000000000028
:1060200000000000000000000000000067630200A4
:1060300069630200000000006B6302006D630200F0
:10604000D98502006F630200618A02006F6302005B
:106050006F6302006F630200DD8802006F6302005D
:106060006F6302006F6302006F6302006F630200E0
:106070006F6302006F6302006F6302006F630200D0
:106080006F630200617702006F6302006F630200BA
:106090006F6302006F63020045A702006F63020096
:1060A0006F6302006F6302006F6302006F630200A0
:1060B0006F6302006F630200000000000000000038
:1060C0006F6302006F6302006F6302006F63020080
:1060D0006F6302006F6302006F6302000000000044
:1060E00000000000000000000000000000000000B0
:1060F00000000000000000000000000000000000A0
:10610000000000000000000000000000000000008F
:10611000000000000000000000000000000000007F
:10612000000000000000000000000000000000006F
:10613000000000000000000000000000000000005F
:10614000000000000000000000000000000000004F
:10615000000000000000000000000000000000003F
:10616000000000000000000000000000000000002F
:10617000000000000000000000000000000000001F
:10618000000000000000000000000000000000000F
:1061900000000000000000000000000000000000FF
:1061A00000000000000000000000000000000000EF
:1061B00000000000000000000000000000000000DF
:1061C00000000000000000000000000000000000CF
:1061D00000000000000000000000000000000000BF
:1061E00000000000000000000000000000000000AF
:1061F000000000000000000000000000000000009F
:10620000354936480A1A02D0072291438D4634494F
:1062100034480A1A06D00722914381F309880222E2
:1062200082F3148830483149314A00F044F831484B
:106230003149324A00F03FF831483249324A00F0E1
:106240003AF832483249334A00F035F83248334997
:10625000334A00F030F833483349344A00F02BF821
:1062600033483449344A00F026F83448344900228F
:1062700000F02CF833483449002200F027F8334866
:106280003349091A082902DB002202604160314AC1
:1062900090471F481F49884205D00268043003B464
:1062A000904703BCF7E700208646EC46002000211B
:1062B000294A9047FEE7884207D0521A05D0037852
:1062C00001300B700131013AF9D17047884202D098
:1062D00002700130FAE770470000012000E0002062
:1062E00000000120000001203CBA0200F022002042
:1062F00048230020D0630200D0630200AEAB02004E
:106300003CBA0200F0220020F02200209CAC0200E7
:106310009CAC02009CAC02009CAC02009CAC020055
:106320009CAC02009CAC02009CAC02003CBA020097
:1063300094BA02004823002048230020482300206C
:10634000382C0020382C0020382C0020382C00203D
:10635000384C00209D63020095950200FEE7FEE7A1
:10636000FEE7FEE7FEE7FEE7FEE7FEE7FEE7FEE705
:1063700000F002B8FFF7FCBF0F484FF00701884359
:1063800085460E4880470E48016841F4700101605F
:10639000BFF34F8FBFF36F8FFFF732BF09480A4932
:1063A0000A4A884207D0521A05D0037801300B7090
:1063B0000131013AF9D1704700000120A5800200A7
:1063C00088ED00E09CAC0200F0220020F0220020CA
:1063D000F0B595B01C46164608460D4601F055FD31
:1063E0001A9B0D93CDE9086400242346082205A9D1
:1063F00028460A948DF82C400C9401F063FD079B0D
:106400000293069B03939DF814308DF8114003F01E
:106410000302012A1DD1BDF81440059EC3F3C20337
:10642000C4F383148DF81030A20008230EA9284667
:1064300001F048FDC6F3952608AB0093224602AB57
:106440000EA9304600F0D6FB284601F022FD15B01B
:10645000F0BD022AF8D1BDF81640C3F3C203A40967
:106460008DF810300827082C264628BF08263B4602
:1064700032460EA9284601F025FDA41B08AB02AA4E
:1064800031460EA8374400F019FC002CEBD1DBE7B5
:10649000014B01221A7070478923002070470000C9
:1064A00070B50E4D06460FCD88B06C460FC495E80A
:1064B0000F00002E84E80F004FF00603084A094839
:1064C000009308BF0022694602F020F808B100F0EE
:1064D000E7FD054B1E7008B070BD00BF9CAC02000C
:1064E00091640200F02200204823002007B5044BED
:1064F0000093044A4023FFF76BFF03B05DF804FBF1
:10650000096502004923002038B50D4B0D4D0020D0
:1065100018700D4804782D5DD2B21C4665B1043068
:1065200002F0FCFE08B100F0BBFD084B1A7812B176
:106530002378002BFBD038BD0C3002F0C1FCF1E712
:1065400089230020282A0020F02200204823002050
:1065500008B50848084A0378D35C3BB1043002F020
:1065600067FE0020BDE80840FFF79ABF0C3002F03C
:1065700043FCF6E7F0220020282A00200120FFF744
:106580008FBF000008B5FFF7F9FF0421034800F0B2
:106590009FFA034B01225A7108BD00BF8CAC020068
:1065A00004230020037813F0040216D003F0030341
:1065B000012B03D0022B09D0012070470A68008804
:1065C0000232C0F3831002440A60F5E70B68428888
:1065D000023303EB92130B60EEE7104670470000A6
:1065E0002DE9F04F87B000230446851C0DF107000C
:1065F0000F4690468DF8073000F046FF4548066884
:106600003E60D0E90132134401339B1B824600F205
:106610001C4600F5836900F21447AB421BD30022ED
:10662000B8F1000F70D0052363F3070264F38912F9
:10663000DAF80010DAF808309DF807000B40033351
:106640000D444AF82320CAF8005000F041FF012011
:1066500007B0BDE8F08F0121304601F05AF94846F5
:1066600001F06DF9384601F06AF9DAF80400DAF859
:1066700008B0029000EA0B0003300AEB800002A988
:10668000FFF790FF029B50BB0BEA03020AEB82026A
:1066900003F1020CD2680392013303EA0B0B0AEBFD
:1066A0008B0B02F00302012ACDF808C0DBF80C10B6
:1066B00022D0022A16D08346384601F043F910B1A1
:1066C000029BCAF804305946304601F022F9DAE953
:1066D00001231344DAF8002001339B1A9DE70BEAEB
:1066E0000300C9E7BDF80E309B0903334FEA114B95
:1066F0000CEB93030293DFE7BDF80C30C3F3831375
:106700004FEA114B6344F5E7062363F3070264F392
:106710009F528DE75C2400200B4B0C48FF2210B5E4
:106720009A600022C3F81824C3E90022C3F8142495
:1067300083F8202401F062FB044610B9044801F0FC
:1067400009FC204610BD00BF5C24002000AC020004
:10675000DCAC020030B50A4C71B10A4A0A49121B7E
:10676000D20800239A4201D1002030BD31F82350D5
:10677000854202D00133F5E7034654F83300F4E7CD
:1067800014AC02008CAC0200F0220020094B01394D
:1067900003EBC000032909D8DFE801F00A02040670
:1067A0000420704700797047407970470020704797
:1067B0000220704714AC0200034BD3E90030C31A27
:1067C00058425841704700BF5C2400202DE9F04337
:1067D00087B0FFF7F1FF0646002840F0FB807E4DB2
:1067E000C5F81804BFF34F8F6868AC68029020406A
:1067F000033005EB800002A9FFF7D4FE029B18B11D
:10680000D5F81824002A5FD004EA0302991C01334A
:1068100005EB8202234005EB8303D268DB68049317
:1068200002F00303022B0392029162D1BDF80E30F5
:106830006A484FEA9318B8F1500FC14628BF4FF08D
:10684000500969F38F1309F10801ADF80E3001F01A
:10685000EDFA0746002800F0A88001F016FB03A916
:1068600000230822384601F023FB029924EA01069E
:106870000136B600B14535D95FFA89F97EB3F6B273
:10688000A9EB0609214003315FFA89F4B146544E61
:1068900005EB810108234A46384601F009FB36B171
:1068A00009F1080322463146384601F001FB029BFC
:1068B00008F1030803EB98030293D5F81834002B72
:1068C0004BD1D5F810445BE02A689A4204D86A603C
:1068D000304607B0BDE8F08304EA030088E740498A
:1068E0003446D7E72140033108234A4605EB8101AE
:1068F000DAE7012B59D1BDF80C303848C3F38311C6
:10690000062928BF062161F3891302318900ADF8F9
:106910000C3001F08BFA0746002846D001F0B5FA9A
:106920000023082203A9384601F0C2FA0026BDF868
:106930000C20C2F38312B300964203F10803BCD2C9
:1069400002994A1C21400331029205EB8101042285
:10695000384601F0ADFA0136E9E7384601F099FA18
:10696000FFF72AFF80F00100C6B2B1E7E3685B7968
:1069700023B1236839461B6820469847E3681C68A2
:10698000002CF3D1384601F084FA0DF107008DF8A0
:10699000074000F079FDD5F818340BB9029B6B6005
:1069A0009DF8070000F094FDDAE7D5F8104454B9DB
:1069B0000C4B0D480D49C01AC008000440F00200FD
:1069C00000F06EF8CCE7236820469B689847E368A0
:1069D0001C68ECE700267BE75C24002000AC02008A
:1069E0006824002014AC02003CAC0200E8AC0200B9
:1069F0002DE9F74F284C80460F46924601A9012207
:106A000018469B46D4F80890FFF7EAFD80B3019D35
:106A10000026A91C5E4506EB010233D100211F4868
:106A200000F04CFF80F310006A1C02EA090204EB3C
:106A30008202000405EA0903033340EA1840D060EB
:106A400014F8232068F3C50204F8232034F8232027
:106A500066F3891224F8232054F8232067F39F2239
:106A600044F8232002F0F80242F0010204F8232047
:106A700094F820341BB1FFF7A9FE0028FBD103B026
:106A8000BDE8F08F09EA020204EB82025AF82630D0
:106A9000D3600136BEE700BF5C24002078280020C8
:106AA00000231A46FFF7A4BF07B50123019201AAEC
:106AB000FFF79EFF03B05DF804FB07B5CDE90023A7
:106AC00002236A46FFF794FF03B05DF804FB000061
:106AD00030B50F49D1F81024002314463CB9C468DE
:106AE000237152B9C1F810042260184630BDE46821
:106AF00025799D4206D02468F0E7D26811682160AC
:106B00001060F2E701330A2BE7D14FF0FF33ECE7D7
:106B10005C240020094A38B50123D2F8104482F8D9
:106B200020341D4604B938BDE3685D7123682046F2
:106B30005B689847E3681C68F4E700BF5C240020AA
:106B4000037A052B10B50C460FD0437A23B1084ABF
:106B50000849204600F059FF0749204600F055FF3C
:106B60002046BDE8104000F045BF002AF8D0F3E70A
:106B700033AD020038AD020058AD0200C38873B5D2
:106B800004460D4633B1144A00921449144A28466B
:106B900000F03BFF217A05291CD0637A4BB1A08815
:106BA000FFF7F4FD0F4B104953F82020284600F062
:106BB0002CFF227A0D4BA08853F822600021FFF7AA
:106BC000C9FD0B4903463246284602B0BDE8704075
:106BD00000F01BBF02B070BD33AD020043AD020038
:106BE0003BAD020000AD020038AD020068AD02000E
:106BF0005BAD02002DE9F04385B01F460C9D0023DC
:106C000006460C46904695F80C902B73294638465C
:106C1000FFF7B4FFB8F1060F09D8DFE808F0041257
:106C2000181F283340003146284600F0EEFE0022AF
:106C300029463846FFF784FF85F80C9005B0BDE87B
:106C4000F08322683146284600F0DFFEEFE7D4E902
:106C500000233146284600F0D8FEE8E7A3680093F9
:106C60003146D4E90023284600F0CFFEDFE7E36891
:106C70000193A36800933146D4E90023284600F02D
:106C8000C4FED4E723690293E3680193A3680093E9
:106C90003146D4E90023284600F0B7FEC7E7636910
:106CA000039323690293E3680193A3680093314639
:106CB000D4E90023284600F0A8FEB8E708292DE90A
:106CC000F84F80460E4617461C463AD8002593F8E2
:106CD0000C901D7319461046FFF750FFDFF884A093
:106CE000DFF884B0AE422ED918F805205946204668
:106CF00000F08BFE0135082DF4D11849DFF86CB097
:106D0000204600F082FE4FF0000A564520D918F8C0
:106D10000A507E2D03D8284603F0B8FE00B92E2570
:106D20002A465946204600F070FE0AF1010ABAF1DF
:106D3000080FEAD1012221463846FFF701FF84F807
:106D40000C90BDE8F88F5146204600F05EFED1E77A
:106D50000349204600F059FEE7E700BF2EAD0200D0
:106D60002CAD02002AAD020024AD020030AD0200BD
:106D7000C30710B507D4F0234008054A145C23402C
:106D80001943115410BD0901C9B20F23F4E700BF24
:106D90004829002030B5094B1C78094B196800239D
:106DA0009C4202DC0022104630BD11F8335085426F
:106DB00001EBC302F7D00133F2E700BF182900202E
:106DC0005829002070B504460D46FFF7E3FF30B1A7
:106DD000436823B129462046BDE87040184770BD7E
:106DE000034B044819680022490800F05EBA00BF4E
:106DF0001C2900202029002010B5C0B2FFF7CAFFCF
:106E00000446007801F060FD63785A1E53425341F6
:106E1000834208D1044BD3E90023134303D1BDE8D7
:106E20001040FFF7DDBF10BD4029002037B54308F3
:106E3000364AD35CC2074CBF1B0903F00F0304465C
:106E40000D46042B36D8DFE803F003262D393D002C
:106E500081B30121FFF78CFF00230DF107008DF8AE
:106E6000073000F011FB0122A4F12003C4F120003F
:106E7000274902FA03F322FA00F0034302FA04F46A
:106E8000D1E9002014430343C1E900439DF8070002
:106E900000F01EFB0EE0002918BF02212046FFF77C
:106EA00067FF07E041B10321FFF762FF01212046A0
:106EB000FFF788FF03B030BD0121EFE70029F9D1CA
:106EC0000421EBE709B10321E8E7FFF751FF294669
:106ED0002046FFF777FF0DF107008DF8075000F00F
:106EE000D3FA0122A4F12003C4F12000084902FAD8
:106EF00003F322FA00F0034302FA04F4D1E900207C
:106F000022EA040420EA0303BEE700BF4829002068
:106F1000402900202DE9F041124E134F0024337810
:106F2000A34208DC114BD3E90023134318D0BDE87A
:106F3000F041FFF755BF3D6805EBC40815F8340074
:106F400001F0C2FC98F801104B1E594259410A1A2F
:106F5000514215F834005141FFF768FF0134DEE774
:106F6000BDE8F08118290020582900204029002080
:106F7000092AF7B505460C4616463DD901F0C0FB77
:106F8000D8B11E4B1E481D601E4B1F4F1C701F4B5F
:106F9000002110221E6003F0A7FD1D4B00200021E0
:106FA000C3E90001013CE4B20326FF2C0BD1194ACE
:106FB0001948002100F06EF903E001F069FB002898
:106FC000DFD003B0F0BD20B29DF806308DF804602C
:106FD00005EBC00223F007038DF8063001A9937872
:106FE00015F830008DF805303A4601F093FB013C6E
:106FF000E4B20028D9D0E4E70720E2E758290020CE
:107000004829002018290020F96D02001C290020C1
:1070100040290020156F0200C8AD020070B5084D70
:10702000084E00242B789C4201D3002070BD3368A9
:10703000012113F8340001F0E1FB0134F2E700BF55
:10704000182900205829002073B5114D114E002435
:107050002B789C4214D300230DF107008DF80730E4
:1070600000F012FA0C4B00210020C3E900019DF84A
:10707000070000F02DFA094800F02FF902B070BDAA
:10708000336813F8340001F0FDFB0134E0E700BF82
:1070900018290020582900204029002020290020FC
:1070A0001FB50021039001AA44F20100CDE90111AE
:1070B00000F004F805B05DF804FB000010B572B6EE
:1070C000FFF728FDFFF782FB0028FBD1104B114C86
:1070D0001149E41AE408240444F00100FFF7E0FC3D
:1070E0000E4B1B68DB0700D500BE0D4944F00200C3
:1070F000FFF7D6FCBFF34F8F0A490B4BCA6802F467
:10710000E0621343CB60BFF34F8F00BFFDE700BFCA
:1071100014AC02003CAC0200D7AD0200F0ED00E080
:10712000E3AD020000ED00E00400FA05D0E902231F
:10713000D1E90201994208BF90422CBF01200020F2
:10714000704700002DE900480C4800F0F4FA0C4BA1
:10715000D3E9002312EB000B43F1000C094BD3E9F8
:1071600000239C4508BF93455846614603D21BF156
:1071700080704CF10001BDE8008800BF0C230020A6
:1071800060290020D829002037B505460C460A485A
:1071900001A900F002FB60B10570446001A9064836
:1071A00000F025FB18B1054800F0CAFA002003B032
:1071B00030BD0420FBE700BFC42900200C230020C1
:1071C000194B1B782DE9304804461BB90025284689
:1071D000BDE830880028F9D0037F03F0FF05002BBD
:1071E000F4D0FFF7AFFFD4E90223994208BF9042E1
:1071F00015D3236903B92377D4E90530984721696A
:107200000029E3D0237F03F0FF05002BDED0D4E973
:10721000022312EB010B43F1000CC4E902BC21462E
:10722000024800F0B6FED2E768290020F4AD020063
:1072300013B5114B114918680190082358221048C2
:1072400000F098FA044698B90E4A0F4801A900F0D8
:1072500063F9044660B901210B4800F04FFA01239D
:107260000A4A0948194600F0B5F9094B01221A707B
:10727000204602B010BD00BFF0AD02006C29002016
:10728000C4290020F57202000C230020FFFF7F00BC
:10729000682900203AB103685A614A1E514251419F
:1072A0001961002070470720704738B5037F0446F6
:1072B0000D4683B98261FFF745FF421941F1000392
:1072C000C4E90223236903B1256121460020BDE8FA
:1072D0003840FFF759BF002038BD0023014603772F
:1072E0000120FFF751BF0000014800F024BA00BFA1
:1072F0000C2300202DE9F04F85B0074600F006FA78
:1073000040B1594AD2E9003113F1807341F10001D3
:10731000C2E900310021384600F007FA38B1534C79
:10732000236823B12068FFF74BFF0023236001216E
:10733000384600F0FAF920B1FFF704FF4C4BC3E9DF
:10734000000103A94B48494D4B4C4C4E00F05FFAED
:10735000002845D1DFF820A1444CDFF828B1504681
:1073600000F02DFE2368002875D07BB12368D0E99A
:107370000201D3E90223994208BF90422DD223682B
:107380001B7F1BB12168504600F003FE504600F001
:1073900010FED0E9026305460193FFF7D3FE019B7F
:1073A000B6EB000863EB0109B8F1010F79F10003B6
:1073B00044DB334EB0453FD9FFF796FF82194FF4B7
:1073C00096030021584600F025F900283ED1236895
:1073D00013B9384600F0F6F8256005B0BDE8F08F27
:1073E0000378012B1DD05BB1022B11D14FF0000AA5
:1073F000204600F0DEFD002833D080F81CA0F7E71F
:1074000041680B7F23B901230B77204600F0C1FDB3
:1074100003A9184800F026FA03A9164800F0F7F966
:1074200096E741682B68994202D100232B60EFE771
:10743000204600F0C7FDEBE7AA68C0E700215846E8
:1074400000F069F92846FFF7BBFE01E00D28F9D0EE
:107450000023236083E7002BBFD1384600F0B6F845
:10746000BBE701233370D3E760290020E029002027
:10747000D8290020C4290020F4AD0200682900208A
:10748000FFFFB4000C23002070B5EFF3108672B636
:107490000C4A946801239CB993600B4B0B4DD3F8B5
:1074A000801029401160C3F88050D3F884105160D7
:1074B0004FF0FF32C3F88420047006B962B670BD85
:1074C0000370FAE7E429002000E100E0FC06FFBDBC
:1074D000084B9A6810B55AB150B9EFF3108172B6E3
:1074E000054A1C6814605C685460986001B962B613
:1074F00010BD00BFE429002000E100E0435882B045
:107500003BB10023435043580193019B012002B03B
:1075100070471846FBE70000F8B5224B4679224D2C
:1075200043F82620214A224BF7009B1AEA19DB0870
:1075300012791B0432B143F002001E49FFF7B0FA82
:107540000820F8BD02680C88C2F8084590F90420AC
:107550008978002AA8BF02F1604CD4B2BABF04F007
:107560000F0EDFF858C00CF5614C4FEA4111C9B25B
:10757000B4BF0CF80E108CF8001352090121DFF88B
:1075800040C004F01F042F4401FA04F44CF82240D8
:10759000397145F83600084943F00300FFF780FAD7
:1075A0000020CEE7F8290020F029002014AC0200CA
:1075B0004CAC020016AE020038AE020014ED00E042
:1075C00000E100E0036801221A60704703680122AD
:1075D0005A60704773B501F15005AD000068ADB257
:1075E0004FF480348C400026C0F80843C0F848436C
:1075F000465101F5A8714559019522F07F42019D40
:1076000040F82120C0F844430BB1C0F8044302B055
:1076100070BD00002DE9F74F884699464FF480363B
:10762000036808F150058E404FEA880AAD00C3F8A0
:107630004863ADB2C3F80863074603EB0A00D3F80A
:1076400004154FF0000B22F07F44D0F84025C0F81D
:10765000401543F805B05B590093009B531A23F083
:107660007F43012B0BD1244B4FF4806043F0010387
:1076700098473B6843F805B05B590193019B386814
:10768000D0F80455C0F84463631B23F07F43012BFB
:107690001AD108F5A878184B013440F8284043F077
:1076A00001034FF4806098473B68D3F804359D424E
:1076B00008D13B680020C3F84463C3F8046303B0F7
:1076C000BDE8F08F0D20FAE78244C9F1FF19CAF82E
:1076D0004045D0F80435E21A013A22F07F4209F51C
:1076E0007F499145EED3002AE3D10134CAF84045E1
:1076F000D0F804259342DBE710AE020003680222B3
:10770000C3F8442309B1C3F8042370474FF48271CE
:107710000068FFF7F3BE4FF4803303FA01F103680A
:10772000C3F84813C3F8081370475031890089B271
:107730000068FFF7E3BE0368D3F804057047000054
:1077400090F9043001215A0903F01F0301FA03F3F1
:107750004032024941F82230704700BF00E100E0AA
:10776000024B034A1B681068184700BFF829002025
:10777000F029002010B561B1B2FBF3F403FB14242F
:10778000A4B244B9C0E9001484608281C381204658
:1077900010BD0E20FCE70920FAE737B550E8013F9D
:1077A0009DB2C48925448489A54228BF2D1B048924
:1077B000A54202BFBFF32F8F002207E0C5EA0305F1
:1077C00040E80154002CE9D14FF001028DF803206C
:1077D0000193019B9DF803200B6002F0FF0322B18F
:1077E0000B880068184403B030BD1846FBE70A88D0
:1077F0004B889A4209D150E8012FC2EA024240E880
:107800000123002BF7D1012070470020704737B5C6
:1078100050E8023F1FFAA3F5C488A54202BFBFF398
:107820002F8F00220DE0C48925448489A54228BFFA
:107830002D1BC3EA054540E80254002CE8D14FF067
:1078400001028DF803200193019B9DF803200B603A
:1078500002F0FF0322B14B880068184403B030BD2A
:107860001846FBE70A884B889A4209D150E8022F54
:10787000C2EA224240E80223002BF7D101207047E0
:107880000020704701F01F024B090121914000EBDD
:10789000830000F01DB801F01F0301229A404B093C
:1078A00000EB8300D14300F029B84B0901F01F0120
:1078B00050F82300C84000F00100704750E8002F46
:1078C0000B4640E8003C9CF0000FF7D11046704793
:1078D00050E8003F43EA010240E8002C9CF0000F12
:1078E000F6D11046704750E8002F02EA010340E845
:1078F000003C9CF0000FF6D11046704750E8003F66
:1079000003EA010240E8002C9CF0000FF6D110467B
:10791000704750E8003F03EB010240E8002C9CF068
:10792000000FF6D11046704750E8003FA3EB01026C
:1079300040E8002C9CF0000FF6D110467047012162
:10794000FFF7C6BF0021FFF7CEBF10B590B1D0E959
:10795000012301689B1ADBB20A60013BDBB2FF2BFB
:10796000026802D10020107110BD11684C1C146017
:107970000B70F2E70E20F7E737B5054600240DF14E
:1079800007008DF80740FFF77FFD2A686B681168D4
:1079900099420ED9481E106011F8014CEB68298AF3
:1079A00001FB0434AB6811791B1ADBB2994238BF72
:1079B00013719DF80700FFF78BFD204603B030BD23
:1079C00037B5054600230DF107000C468DF807304A
:1079D000FFF75AFD2A681368591C1160E968641A98
:1079E000298AB4FBF1F41C709DF80700FFF770FDC5
:1079F00003B030BD826810B504462AB143690168FE
:107A0000006998470023A36010BD0EB403B5039925
:107A100021B104AB01AA019300F074F802B05DF843
:107A200004EB03B070470A2938B504460D4602D16D
:107A30000D21FFF7F8FFA3682268591CA160D554F7
:107A4000D4E901329A4204D32046BDE83840FFF71A
:107A5000D1BF38BD2DE9F84F9946DDE90A431746F5
:107A6000824688460A460126BA420FD24E4538BFA2
:107A70004E4613F0010B01D164B900240125B9F180
:107A8000010F1AD909F1FF397D43F8E7B2FBF7F28C
:107A90000136E9E79B070ED5B9F1000F0CBF302581
:107AA0002025A642EAD2013C29465046FFF7BBFFFB
:107AB000002CF6D1E1E72025F3E7B8FBF5F39F4270
:107AC000E2D9DFF83C90B8FBF5F3504619F8031003
:107AD00005FB1388FFF7A7FFB5FBF7F3BD4207D2FD
:107AE000BBF1000F02D00CB1A64203D3BDE8F88F62
:107AF0001D46E8E720215046013CFFF794FFF2E7DE
:107B00004AAE02002DE9F74F054617468846002980
:107B100000F0308118F8011B49B92B7B002B00F0D5
:107B20002981284603B0BDE8F04FFFF763BF252940
:107B300040F0C080002698F800302D2B424608F116
:107B4000010823D0302B24D02B2B25D000242A2B26
:107B500002F1010123D13B681A1D1B683A601C44E5
:107B60000A4613782E2B26D101324FF00009104619
:107B700010F8011BA1F1300CBCF1090F1DD80A232C
:107B800003FB0913A3F130090246F0E746F00106B2
:107B9000D1E746F00206CEE746F00406CBE711F83F
:107BA000013CA3F130000928DBD80A2202FB04348F
:107BB000303C0A46CBE74FF0000912F8011B01F0F8
:107BC000FB0068289046F8D069290ED04AD8582979
:107BD00064D006D825296DD098F80030002B99D1B3
:107BE0009BE7632962D06429F6D13A68D2F800A0F5
:107BF000111D8AEAEA723960A2EBEA724FF0010BBA
:107C0000092A5BDCCB4538BFCB462CB1BAF1000F5B
:107C100001DB720700D5013CB30702D5B9F1000FB3
:107C200004D0F00702D4002C4ED10024BAF1000F8A
:107C300052DACAF1000A2D212846FFF7F4FE06F0B9
:107C40000302022A05D1B9F1000F02D1002C47D15D
:107C50000024CDE900464B460A2251462846FFF74C
:107C6000F9FEB9E773294CD014D87029B4D13B6818
:107C70001A1D3A60302128461C68FFF7D4FE78218F
:107C80002846FFF7D0FE00220823CDE90032214626
:107C90001022E3E775292BD078299DD139680A1D78
:107CA0003A60CDE900464B46102228E03B681A1D99
:107CB00019783A602846FFF7B6FE8DE70A230BF1E4
:107CC000010BB2FBF3F29BE7A345AFD2202128467C
:107CD000013CFFF7A8FEA6E77107B0D52B21ABE763
:107CE000A345B6D230212846013CFFF79CFEADE704
:107CF0003968CDE900460A1D3A604B460A220968F8
:107D0000ACE73B681A1D3A6016F00106D3F800A0F4
:107D100020D1BAF1000F03D0504602F018FF0646FA
:107D2000B44200D9C4B90AF1FF3A1EE02846013630
:107D3000FFF779FE1AF806100029F7D1A642BFF422
:107D40004BAF002C3FF448AF20212846013CFFF701
:107D50006AFEF3E70026EDE720212846013CFFF705
:107D600062FEDDE72846FFF75EFE1AF8011F0029D4
:107D7000F8D131E703B0BDE8F08F2DE9F047B0F856
:107D800006904479D2F800A09DF8208009FB04F405
:107D9000043C06460AEB0300A0420F4688BFA4EB52
:107DA000030A191DC2F800A0B1FBF9F509FB151172
:107DB0004DB9A9EB0104544528BF5446BAF1000F50
:107DC00004D1BDE8F0873668013DF1E704317B1945
:107DD00070182246B8F1000F0ED001461846AAEBE3
:107DE000040A02F058FED145254436684C464FF04F
:107DF000000128BF5446E1E71946F0E7FFF7A5BDAB
:107E0000F8B546790146721E0546002393422D6857
:107E100003D30024A64202D8F8BD0133F6E70F6869
:107E20002846FFF7CDFD01343946F3E72DE9F84345
:107E3000068ACD1C0746FFF79FFD043E35440446E5
:107E4000B5FBF6F5F0B14FF48073EDB28380C680D8
:107E5000013D076081464FF00008A84512D2384620
:107E6000FFF78AFD064648B163790133637108F173
:107E70000108C9F8000007608146EEE72046FFF7D9
:107E8000BFFF34462046BDE8F88301210430FFF7E8
:107E900040BD10B5012104460430FFF745FD10F048
:107EA000FF0F04D12046BDE81040FFF7A9BF10BD69
:107EB0001FB503920022009203AAFFF75EFF05B0F0
:107EC0005DF804FB1FB503920122009203AAFFF79D
:107ED00054FF05B05DF804FB41DF7047064B10B559
:107EE00000241C70054B1C60BFF35F8F04490548DC
:107EF00000F039F8204610BD042A0020082A00208E
:107F00005CAE0200FC29002007B500230DF107003C
:107F10008DF80730FFF7B8FAF1EE103A23F09F031F
:107F2000E1EE103ABFF35F8F094B4022C3F8842182
:107F30009DF80700FFF7CCFA02F0EAFB20B1FFF74B
:107F4000CBFF03B05DF804FB20BF40BF20BFF8E7C4
:107F500000E100E0836800225A609A60C3E90422CD
:107F6000DA601A6070470B684A684360934208BF42
:107F70000023016008BF43607047436843B1026853
:107F8000916852680B449342436004BF00234360EE
:107F9000704770B5446806460D46206818B1B3684E
:107FA0002946984718B923682B60256070BD24685E
:107FB000F3E74368186808B102681A6070474368BD
:107FC000186870474368186800B97047884203D141
:107FD00002681A600120704703460068F4E7000059
:107FE00010B50D49A1F59472914201D800200FE01F
:107FF0008B1ADB1003EBD3735B1002EBC30452F854
:108000003330834205D802D204F10802ECE76068FD
:1080100010BD2146E8E700BFB8AF020008B5FFF782
:10802000DFFF024B002808BF184608BD7AAE0200E9
:108030000C4B1B78062B10D10B4B1B681A070CD16D
:108040000A4B186800F0F003302B08D000F0E00075
:10805000A0F140035842584170470020704701206A
:10806000704700BFE00F00F0E40F00F0E80F00F0F1
:10807000094B1B78062B0CD1084B1B681A0708D13B
:10808000074B186800F0F000A0F130035842584147
:1080900070470020704700BFE00F00F0E40F00F0D1
:1080A000E80F00F008B5FFF7C3FF28B17D4B7E4A0B
:1080B0001B68C3F304231360FFF7DAFF10B17B4B97
:1080C0007B4A1A60FFF7B4FF28B17A4B7A4A1B68E3
:1080D000C3F342331360FFF7CBFF20B1774AD36875
:1080E00023F08073D360FFF7A3FF40B14FF08043CC
:1080F0000022C3F80C21C3F81021C3F83825FFF77C
:10810000B7FF10B16E4B03221A60FFF7B1FF40B109
:108110006C4B05221A6001229A6700229A603F2266
:108120005A60694B1B78062B50D1684B1B681907A6
:108130004CD1674B1B6803F0F003502B46D14FF036
:108140008052644BD2F80414C3F82015D2F80814F6
:10815000C3F82415D2F80C14C3F82815D2F810145B
:10816000C3F82C15D2F81414C3F83015D2F818142B
:10817000C3F83415D2F81C14C3F84015D2F82014F3
:10818000C3F84415D2F82414C3F84815D2F82814BB
:10819000C3F84C15D2F82C14C3F85015D2F830148B
:1081A000C3F85415D2F83414C3F86015D2F8381453
:1081B000C3F86415D2F83C14C3F86815D2F840141B
:1081C000C3F86C15D2F84424C3F87025FFF730FFCC
:1081D00028B1414B414A1B6803F04F031360FFF77E
:1081E00027FF48B14FF08043D3F80024D20744BFA3
:1081F0006FF00102C3F80024394B1B68062B08D12D
:10820000384B1B68062B01BF374A136843F4806361
:108210001360364AD2F8883043F47003C2F88830CD
:10822000BFF34F8FBFF36F8F4FF01023D3F80022AF
:10823000002A03DBD3F80432002B2FDA2C4B012267
:10824000C3F80425D3F80024002AFBD04FF01022F5
:108250001521C2F80012D3F80024002AFBD04FF0F9
:1082600010231522C3F80422214B1A46D3F8001418
:108270000029FBD00021C3F80415D2F80034002BEC
:10828000FBD0BFF34F8F19491A4BCA6802F4E06262
:108290001343CB60BFF34F8F00BFFDE7164B174A68
:1082A0001A6008BD240300104035014074C0074027
:1082B0000DF0ADBA440200103C050040F0ED00E0C6
:1082C000A005004010560040E00F00F0E40F00F061
:1082D000E80F00F000C0004058020010E40E00401B
:1082E00030010010340100103C17004000ED00E0A8
:1082F00000E001400400FA05142300200090D003A0
:10830000044B1A5C012393404FF0A042C2F80C3595
:10831000704700BF72B30200044B1A5C0123934004
:108320004FF0A042C2F80835704700BF72B3020098
:1083300008B50020FFF7F0FF0120FFF7EDFF022056
:10834000FFF7EAFF0320BDE80840FFF7E5BFC207DB
:1083500008B501460CD54FF0A0430322C3F84427CB
:10836000C3F84827C3F84C27C3F85027FFF7E0FFAE
:108370008B070AD54FF0A0430C22C3F83427C3F86B
:108380003827C3F83C27C3F8402708BD38B5074C49
:10839000051E04F1080318BF1C4623682BB11A6898
:1083A00022605B6828469847F7E738BD142A00200A
:1083B00020B9054B01225A70FFF7E8BF012802D10E
:1083C000014A9070F8E770470C2A002020B9034B4F
:1083D00001225A70FFF7DABF704700BF0C2A002055
:1083E00038B50B4C237883B90A486360A3602361D6
:1083F000E36000F0C7F8054602F08AF908B900F01A
:10840000CDF801232370284638BD8525FBE700BF42
:108410000C2A0020B183020037B50B4C00230DF16C
:1084200007008DF80730FFF72FF8E368013BE360A2
:10843000E56815B900F0C4F8A5709DF80700FFF7CE
:1084400047F803B030BD00BF0C2A0020012813B547
:1084500009D018B103281CD002B010BD0F4B012267
:10846000C3F88020F8E70E4C00230DF107008DF8CB
:108470000730FFF709F823780BB9FFF7B1FFE3687E
:108480009DF807000133E3600123A370FFF720F894
:10849000E2E700F083F8FFF7BFFFDDE700E100E06F
:1084A0000C2A00201FB503788DF800304368019333
:1084B00083688DF80830C3680393054A054B684606
:1084C00053F8213052F82110984705B05DF804FBAD
:1084D000202A0020242A00201FB503788DF80030C0
:1084E0004368019383688DF80830C3680393054A95
:1084F000054B684653F8213052F82110984705B0D3
:108500005DF804FB202A0020242A0020F0B5184B37
:10851000077891F81DE043F82720164B16460A69A4
:1085200043F82720144B03F807E00C4684460FCC91
:1085300089B06D460FC594E80F0085E80F000497D9
:10854000BEF1000F0AD0002E0C4A694608BF324621
:108550000CF1040000F0A6FD09B0F0BD002E084AA1
:10856000694608BF32460CF10C0000F08BFBF3E7C4
:10857000242A0020202A0020282A0020A584020086
:10858000D9840200044A137923B901211060918033
:1085900018467047852070472C2A0020074B1A6820
:1085A000D2075FBFC02283F8002301221A604FF078
:1085B00080430122C3F81825704700BF00E100E0A6
:1085C000044B01221A604FF08042D2F81834DB03CA
:1085D000FBD470470C000040154B07B51A687AB100
:1085E00000221A601B680093009B4FF08043012219
:1085F000C3F808230F4B587910B95A711B68984774
:108600000D4B1A6882B100221A601B680193019B0E
:108610004FF080430222C3F80823064B1B68012059
:1086200003B05DF804EB184703B05DF804FB00BF2E
:10863000000100402C2A00200401004000F180408D
:1086400000F5C040002382B0036003680193019BE2
:1086500002B07047800000F1A040D0F8003723F44A
:108660004033C0F80037D0F8003743EA0141C0F882
:1086700000177047054B4FF0FF32072843F82020C2
:1086800084BF1B1883F84820704700BF342A00209D
:1086900010B5174C94F8583043BB04F13003202137
:1086A000FF22013911F0FF0103F8012BF9D1C8B203
:1086B000FFF7E0FF01310C29F9D1042200210D4818
:1086C00002F012FA0C4BC02283F8062340221A60F3
:1086D0004FF4BE70FFF7B2FF084B4FF00042C3F8F3
:1086E0000423012384F85830002010BD0820FCE743
:1086F000342A0020882A002000E100E000600040C9
:10870000034B93F85800003018BF0120704700BF9A
:10871000342A0020F0B5374B1C1894F93040002C57
:108720001C4664DA8D78C5F34005002D0BBF082385
:1087300000230C260826B34201D10420F0BD54F8D2
:10874000237001373FD1261844F8232086F83030B3
:1087500015B9E21882F848008A78550713D4D6076D
:1087600033D5820002F1A042D2F8005725F002056D
:10877000C2F80057204EC50800F007070122BA4092
:10878000775D3A4372558A780D7812F0020225D04F
:108790009B0003F1804303F5C0430202D3F8101598
:1087A00021F4473121F44071C3F810152D04D3F89A
:1087B000101502F4F85205F440352A430A43C3F871
:1087C00010250020BAE70133B5E74D7800F5E072D7
:1087D0004FF0A046AD0046F82250CBE7083B2344BB
:1087E00093F8501041EA851583F85050E9E70820C6
:1087F000A4E700BF342A0020882A002038B51F4C87
:10880000251895F93020072A17DD224492F84810E0
:10881000890903290CD14FF0A043D3F81035C34088
:1088200013F0010F08BF0221BDE83840FFF712BF67
:10883000012914BF03210221F6E7D3B2072B1CD86C
:10884000930003F1804303F5C043D3F8100540F0D3
:108850000100C3F8100502F14000800080B2FFF76C
:10886000EDFE51B195F9303054F823302BB101238E
:1088700003FA02F2024BC3F8042338BD342A002065
:10888000006000400E4B034493F93020072A02DDBC
:108890000021FFF7DFBED3B2072B10D8930003F1FE
:1088A000804303F5C043D3F8101521F00101C3F84C
:1088B0001015012303FA02F2024BC3F80823704794
:1088C000342A0020006000404FF0A043D3F8103558
:1088D00023FA00F000F00100704700002DE9F04F8E
:1088E00085B000245A4D01944FF48072012102F1A9
:1088F000804303F5C04390B21B68012B06D1D5F825
:1089000004330B4202D0FFF799FE0C430432B2F558
:10891000907F4FEA4101EAD14E4B1B68012B0AD1EF
:108920004FF4BE70FFF78AFE4FF0A04344F00044BE
:10893000D3F81035019314F0FF0F1AD0464F0025DD
:108940000126344210D0AB0003F1804303F5C0434D
:10895000D3F81005D3F8101557F8253023B1C1F31B
:108960000141C0F3042098470135082D4FEA46061F
:10897000E7D1002C64DA00224FF0FF33CDE9022367
:10898000354D01274FF0000A344E54464FF0A048B1
:1089900016F9012B531C46D0D2B222F0C0094FEA7F
:1089A000D90104A8084402F0070310F804CC07FA20
:1089B00003F31CEA030F36D005EB090C92099CF96E
:1089C00030C055F82CB0BBF1000F0AD1032A2AD1D0
:1089D0000DF1080E1EF801C04CEA030C0EF801C0A0
:1089E00001E0032AF4D009F5E07110F80C0C58F8F6
:1089F00021101842C1F3014105D0022913D1032AE5
:108A00000BD1114604E003290DD1032A05D102211F
:108A10004846FFF71FFE0134E4B2BBF1000F02D05D
:108A200011464846D8470AF1010ABAF1040FAFD1FE
:108A300034B14FF0A043019AD3F81035934202D1DC
:108A400005B0BDE8F08F0193029B03939AE700BF46
:108A5000006000407C610040342A0020842A00200D
:108A6000014B1B68184700BF902A00200E4B98420C
:108A700037B50D4602D0002003B030BD00230DF104
:108A800007008DF80730FEF7FFFC084B1C7914B97E
:108A900001221D601A719DF80700FEF719FD002CD8
:108AA000E9D01120E8E700BF00200040902A002014
:108AB000034B984201BF034B00221A601A717047A2
:108AC00000200040902A00200023435082B04358E9
:108AD0000193019B02B070470A4610B54FF48E71A6
:108AE000FFF7F2FF136A9168C95C136A01331362DE
:108AF000C0F81C1510BD8B690A4610B54FF484717F
:108B000023B9FFF7E1FFD0F8183510BDFFF7DCFF00
:108B1000536AD168D0F81805C854536A01335362B8
:108B2000F3E700001FB501238DF80030044BCDE9B9
:108B30000110D3E900126846904705B05DF804FBC8
:108B4000982A002030B54D4AD2F8043313F4007F40
:108B500085B015464FD0D2F82431002B4BD04FF4BE
:108B600092711046FFF7B0FF4FF40173C2F808335B
:108B7000434B93F8291009B9012151603F49022262
:108B80008DF80020D1F88024C1F8802403929A69DE
:108B90000292DA6801920022C3E906226846D3E90C
:108BA000001290473548D0F81C315BB134494A690E
:108BB0000B6A9A420A464BD991F82830002B47D1CC
:108BC000FFF78AFF2D4AD2F8443193B14FF4A271D6
:108BD0001046FFF779FF2A4B93F8291009B10121BC
:108BE00011609A692AB100229A61586AD968FFF720
:108BF00099FF05B030BDD5F804335B07D2D5D5F861
:108C00000831002BCED01E4C1C482146FFF773FFC5
:108C1000636AA2699A422346C4D1E269E1684AB113
:108C20002369E3600023606AA261E3616362FFF786
:108C300079FFB7E794F829200AB901226A600F4A40
:108C40004FF40170C2F8080300229A61586AEEE7F7
:108C50004FF48E710948FFF737FF5369002BB1D0ED
:108C600051690291002391688DF8003001915361A0
:108C70006846D2E900139847A4E700BF00200040EF
:108C8000982A00202DE9F843564F047991462C226A
:108C900002FB0472064692F82A200D46002A40F094
:108CA0009A8051490068FFF7E1FE8046002840F0B5
:108CB000958029683368481C0BD04FF0A0400122F2
:108CC0008A40C0F8082501F5E0724FF0030C40F827
:108CD00022C06868421C1FBF00F5E0724FF0A04C34
:108CE0004FF0000E4CF822E0AA6995F814C0C3F8C2
:108CF00024256A7DBCF1010F4CEA0202C3F86C2501
:108D0000C3F81405C3F80C151DD1AA68511C1FBF68
:108D100002F5E0714FF0A0404FF0000C40F821C088
:108D2000E968481C0BD04FF0A04C01208840CCF8DB
:108D3000080501F5E0704FF0030E4CF820E0C3F891
:108D40000815C3F810252C236343FA18C2F80490C1
:108D50002A69FA50B9F1000F2AD04FF48E713068A9
:108D60002D7FFFF7B1FE30684FF4A271FFF7ACFE24
:108D700032681E4BC2F80433120B51B20029A8BF4F
:108D800001F160404FEA4513BABF194802F00F05E0
:108D900000F56140DBB2B4BF435580F8003302F008
:108DA0001F02012303FA02F24909124B43F8212062
:108DB00033680422C3F800252C2303FB047300222C
:108DC000C3E9062283F829205A61012283F82A2068
:108DD0004046BDE8F8834FF00808F9E74FF0110866
:108DE000F6E700BF982A0020458B020080000200B1
:108DF00014ED00E000E100E0F8B5047900682D4DC5
:108E00000023C0F800352C2303FB04535B6873B1C7
:108E1000294BC0F80833020B53B201215B0902F061
:108E20001F0201FA02F22033244941F82320D0F82E
:108E30000C65D0F81415D0F80835D0F810254FF08F
:108E4000FF37BE42C0F8147518BF06F5E076C0F8CB
:108E50000C75C0F80875C0F810751EBF4FF0A0471C
:108E60004FF0020C47F826C04E1C1FBF4FF0A04623
:108E700001F5E071022746F82170511C1FBF4FF029
:108E8000A04102F5E072022641F822605A1C1FBF81
:108E900003F5E0734FF0A042022142F82310FFF7E0
:108EA00007FE2C2303FB0454002384F82A3063605C
:108EB000F8BD00BF982A00208402020000E100E013
:108EC0002DE9F84F224F06794FF02C0909FB067463
:108ED00080466569002D38D16261A16025624FF43A
:108EE0008E71006884F82850FFF7EEFDD8F8000076
:108EF000012383602146FFF7EFFD6368A1469BB91C
:108F0000D8F800A0D4F814B0236A9B4512D8D8F83A
:108F10000020D2F81C31002BFBD00123D3602C237E
:108F200003FB067300225A612846BDE8F88F94F8C7
:108F3000283043B9DAF81C31002BF8D049465046A6
:108F4000FFF7CAFDE0E70F25E9E71125ECE700BFD1
:108F5000982A00200023435082B043580193019B7C
:108F600002B070471FB501238DF80030044BCDE9E6
:108F70000110D3E900126846904705B05DF804FB84
:108F8000C42A00207FB5454AD2F82461002E63D060
:108F900010464FF49271FFF7DDFF02238DF8003089
:108FA000D2F88034C2F880340393D2F83C3502936F
:108FB0003B4BDA6801920022C3E906226846D3E9F6
:108FC00000129047354AD2F844317BB14FF4A27178
:108FD0001046FFF7BFFF324B996939B10021C3E951
:108FE0000611D968D2F83C05FFF7BCFF2B4AD2F82E
:108FF0002031B3B14FF490711046FFF7ABFF01235E
:10900000D360274B596961B1D2F84C150291002207
:1090100099688DF8002001915A616846D3E90012E1
:1090200090471E4AD2F85831A3B14FF4AC711046A4
:10903000FFF790FF1A4B596961B1D2F84C150291B4
:10904000002299688DF8002001915A616846D3E9A1
:109050000012904704B070BDD2F81031002BB1D08F
:109060004FF488711046FFF775FF0D4BD2F83C05A1
:1090700099698842A6D1DC69D96864B1D2F80052F6
:1090800025F02005C2F800521A699C61DA60DE61A1
:10909000FFF768FF96E79C61FAE700BF00200040F9
:1090A000C42A00202DE9F8435C4F0679914624221A
:1090B00002FB0672044692F820200D46002A40F07A
:1090C000A78057490068FFF7D1FC8046002840F090
:1090D000A28029682368481C0BD04FF0A0400122D1
:1090E0008A40C0F8082501F5E0724FF0030C40F803
:1090F00022C06868421C1FBF00F5E0724FF0A04C10
:109100004FF0000E4CF822E0AA6995F814C0C3F89D
:1091100024256A7DBCF1010F4CEA0202C3F86C25DC
:10912000C3F80C15C3F814051DD1AA68511C1FBF44
:1091300002F5E0714FF0A0404FF0000C40F821C064
:10914000E968481C0BD04FF0A04C01208840CCF8B7
:10915000080501F5E0704FF0030E4CF820E0C3F86D
:109160000815C3F8102524237343FA18C2F8049095
:109170002A69FA50B9F1000F39D04FF4887120688C
:109180002D7FFFF7E7FE4FF490712068FFF7E2FEB6
:109190004FF492712068FFF7DDFE4FF4A271206852
:1091A000FFF7D8FE20684FF4AC71FFF7D3FE2268BA
:1091B0001C4BC2F80433120B51B20029A8BF01F1B5
:1091C00060404FEA4513BABF174802F00F0500F59B
:1091D0006140DBB2B4BF435580F8003302F01F0298
:1091E000012303FA02F24909104B43F821202368B6
:1091F0000822C3F80025242303FB06730022C3E9D9
:1092000006225A61012283F820204046BDE8F883F7
:109210004FF00808F9E74FF01108F6E7C42A0020DC
:10922000858F02001003420014ED00E000E100E031
:10923000F8B5374D0479242303FB045306465B68D5
:10924000006873B1334BC0F80833020B53B20121ED
:109250005B0902F01F0201FA02F220332E4941F8A5
:109260002320D0F80032012223F02003C0F800327E
:109270004FF4AC714260FFF76DFE3068C260D0F809
:109280005831002BFBD00023C0F80035D0F80C6516
:10929000D0F81415D0F80835D0F810254FF0FF3766
:1092A000BE42C0F80C7518BF06F5E076C0F814751C
:1092B000C0F80875C0F810751EBF4FF0A0474FF0FA
:1092C000020C47F826C04E1C1FBF4FF0A04601F508
:1092D000E071022746F82170511C1FBF4FF0A041DA
:1092E00002F5E072022641F822605A1C1FBF03F506
:1092F000E0734FF0A042022142F82310FFF7D8FBA1
:10930000242303FB0454002384F820306360F8BD59
:10931000C42A00201003420000E100E001F0604395
:10932000B3F1005F2DE9F041074638D11E4B0679B5
:10933000242505FB063598466C69002C31D16A61FD
:10934000A96000684FF49071FFF704FE4FF4AC7110
:109350003868FFF7FFFD3B686A69A968C3F84415E0
:10936000C3F8482501229A606A68AAB9D3F8202177
:10937000D3F858411AB9002CF8D00F2407E0002C7C
:10938000FBD10122DA60D3F85821002AFBD0242334
:1093900003FB0686002373612046BDE8F08110249C
:1093A000FAE71124F8E700BFC42A002072DF7047F3
:1093B00073DF704776DF70477ADF70477CDF704776
:1093C0007FDF70478FDF7047B1DF7047FDF768BE02
:1093D00008B5064B01211878FFF7EAFF08B1FDF741
:1093E0005FFE0020BDE80840FEF78ABF3023002062
:1093F0000388212B13B5044652D024D8112B2DD02D
:10940000132B45D0102B41D12D4B2E482E49C01A7D
:10941000C008000440F00300FDF742FB0120FEF706
:109420006FFF0020FEF778FF284BA188284819809D
:1094300000F0E2FF08B1FDF733FEFDF7EFFD28B3C2
:10944000FDF72EFE22E0522B32D0562B01D03B2BC3
:109450001CD11321A088FFF7ADFFF0E7184B194886
:109460001C49C01AC008000440F00300FDF718FBB7
:109470000120FEF751FF154B4FF6FF721A80FDF7E2
:10948000E3FD08B1FDF70CFEFFF7A2FF02B010BD2F
:109490000E4800231A4685210088FFF791FFCEE78A
:1094A000002301A98088ADF80430FFF78BFFC6E7E1
:1094B000064800231A4619460088FFF785FFBEE7D5
:1094C00014AC02003CAC020098B30200322300202E
:1094D000542B0020A2B3020008B503784BB9054B0A
:1094E0003B211888FFF766FF18B1BDE80840FDF77B
:1094F000D7BD08BD322300200D2810B50C461AD167
:109500000F4B10481049C01AC008000440F0030077
:10951000FDF7C6FA0D4B0E491888224601F050F8A7
:1095200030F008020BD043F20202904207D043F21F
:109530000142904203D0BDE81040FDF7B1BD10BD1F
:1095400014AC02003CAC0200AFB302003223002096
:109550003C2B002010B50A4B0A4CE41AE408240402
:1095600044F0030402203AB1FEF7CAFE0649204641
:10957000BDE81040FDF794BAFEF7CEFE0349F6E7CA
:1095800014AC02003CAC0200C9B30200DAB3020022
:10959000FDF786BD00B54FF48041A7B00020FDF770
:1095A000BBF808B1FDF77CFDFCF7ECFF0120FEF7EE
:1095B000CEFEFDF73DFE08B1FDF772FD40F23332FD
:1095C00001216948FDF7D4FC08B1FDF769FDFEF7FC
:1095D00085FC08B1FDF764FD01F05CF808B1FDF70A
:1095E0005FFD002317A90120179301F0DBF808B1F4
:1095F000FDF756FD17A801F087F908B1FDF750FDFA
:1096000011235A488DF8203001F0A1FA574982B24F
:1096100008A8FFF7D3FE08B1FDF742FD082200219C
:1096200017A801F061FA524A4FF0C87317A8CDE9A4
:109630001723FFF7C1FE08B1FDF732FD00214D48A9
:1096400000F0D2FD08B1FDF72BFD0023089317A908
:10965000494B4A48179300F0BDFE08B1FDF720FDC5
:10966000474B4848089308A900F03CFF08B1FDF7B4
:1096700017FD41F22353ADF80430424B424C9B7C22
:109680008DF806303C22002108A801F02DFA0223B3
:109690008DF820303C2240F20163002117A8ADF87C
:1096A000223001F021FA22460123ADF86C3052F845
:1096B000041B01AB08A81C9300F0F0F808B1FDF7FB
:1096C000EFFC324AA16817A800F0E8F808B1FDF7EE
:1096D000E7FC1822002102A801F006FA002301226B
:1096E000ADF8143003934FF480738DF80820ADF873
:1096F0001C3002AA4023244925480493FFF756FE54
:1097000008B1FDF7CDFC1C22002117A801F0ECF9EF
:1097100000234FF4A022CDE91732ADF86A304FF4A0
:10972000A0328DF86C301B4B19921C9303221A4BFC
:109730008DF8682017A81D9300F078FB08B1FDF79D
:10974000AFFC164B16481749C01AC008000440F079
:109750000300FDF7A5F9FFF73BFEFDF737F80028FA
:10976000FBD1FEF7D1FBF8E718230020ECB3020091
:109770005000A000282B0020CD930200542B002085
:10978000559502003C2B0020202300202C23002094
:1097900030230020D99402009195020014AC0200FD
:1097A0003CAC0200FAB302006DDF704779DF70470E
:1097B0007DDF704764DF70472DE9F04F85B00025ED
:1097C0000E9CBDF83CB027880191804691469A4690
:1097D0002E46B8F80020B2420CDC3DB12288013A96
:1097E000D21B92B2FF2A3BD80AF80720002005B00E
:1097F000BDE8F08FD8F8042052F82600039000222C
:109800000DF10B0103A8FFF7D5FF0028EFD19DF85C
:109810000B204A4522D12288002D14BF00200220AF
:1098200002EB0901014459451ADC45B9013292B2F3
:10983000019B22800AF8023022880132228022888D
:109840000DF10B01524403A8FFF7B4FF0028CED15D
:1098500021889DF80B200A44228001250136B8E7B3
:109860000C20C4E72DE9F341089CBDF824501746AD
:10987000CDE90045022206469846FFF79DFF50B904
:109880004346102239463046CDE9084502B0BDE8CE
:10989000F041FFF791BF02B0BDE8F0812DE9F04F34
:1098A00000231688138090F82D3085B007460D46AA
:1098B000144653B3082E01D80C2027E102A8FFF765
:1098C00073FF002840F0228123880822EA5423886D
:1098D00001339BB21B222380EA542088013080B2DE
:1098E000208006220DF10901284401F0D4F82388D4
:1098F0009DF8082006339BB212F0FE0218BF012229
:109900002380EA54238801332380BB78FBB123886A
:109910000433B342D0D802A8FFF748FF002840F034
:10992000F58023880322EA54238801339BB219224D
:109930002380EA542388BDF8082001339BB2E9183C
:109940002380EA54120A4A70238802332380FA786B
:109950009AB12388D91CB142AED80221E954238898
:1099600001339BB201212380E95423880B449BB22D
:109970002380EA5423880B4423807A68AAB1238881
:10998000D91CB14298D8022192F90020E9542388C9
:1099900001339BB20A212380E954238801339BB20F
:1099A0002380EA542388013323803B89002B40F035
:1099B000A1803B8A5BB1CDE900462B4607220321FB
:1099C00007F11000FFF74EFF002840F09F803B8B0F
:1099D0005BB1CDE900462B461522142107F1180092
:1099E000FFF740FF002840F091803A6A002A40F0DB
:1099F0009080D7F82480B8F1000F30D0B8F8043048
:109A00002188981C8A1C0244B2423FF655AFFE28BA
:109A10003FF652AF03336B54238801339BB2FF22CE
:109A20002380EA54238801339BB22380B8F80020B6
:109A3000EA54E918120A4A702088023080B2208065
:109A4000B8F804205AB1D8F8081000296BD028447F
:109A500001F021F82388B8F804201344238097F8F4
:109A60002C30002B40F09A80387800284ED03B886C
:109A7000012B58D0228802F1020CB4453FF61CAFEE
:109A8000012805D17B78023313449E42FFF414AFC2
:109A9000023EB61AB6B202A905EB0C00ADF808609A
:109AA000FFF786FE90BB3978BDF80820022900F048
:109AB000BA807B78934202D3B24240F2B28001294D
:109AC00040F0B3809BB29E42C0F0AF80ADF808304A
:109AD0000821BDF80830FE2B3FF6EEAE2288013398
:109AE000AB542288013292B22280A95422881344B6
:109AF00023800BE0CDE900462B460622022107F128
:109B00000800FFF7AFFE00283FF453AF05B0BDE8F3
:109B1000F08FB4F800C00CF10603B3423FF6CCAEB0
:109B20001188052901D80720F0E76FF4486E01EB92
:109B30000E039BB24FF27D3E7345F4D95388052B3B
:109B4000F1D96FF44860181880B27045EBD94FF620
:109B5000FF70814203D0834201D09942E3D80523AC
:109B600005F80C30238801339BB212212380E9547D
:109B7000238801339BB223801188E954E818090A2D
:109B80004170238802339BB223805288EA54E9183B
:109B9000120A4A702388023323802AE7BB6A002B0B
:109BA000C1D04FF000094FF00C0A4FF0160B97F898
:109BB0002C305FFA89F293427FF656AFB96A0AFBFE
:109BC00002F201EB0208B8F80430981CFE283FF6B8
:109BD00073AE208803332B54238801339BB2238038
:109BE00005F803B0238801339BB223808A5AEA54D4
:109BF000E918120A4A702088023080B22080B8F832
:109C000004205AB1D8F8081000298CD0284400F05C
:109C100042FF2388B8F804201344238009F1010986
:109C2000C5E7092155E7B242FBD9ADF808604FE717
:109C300075DF704776DF70477ADF70477BDF7047EC
:109C4000034B1A8882420CBF18460020704700BFA1
:109C50007C2B0020024B9B6903B11847704700BF63
:109C6000602B002073B586B23046FFF7E9FF04464B
:109C700070B1164D027A2B7B9A420BD200F10A0189
:109C80003046FFF7D5FFE8B1112801D0FFF7E2FF1A
:109C900002B070BD002303722B7C43B13B213046E0
:109CA000FFF7C8FF30F0080301D0FFF7D3FF6B695F
:109CB000002BEDD000228DF80420ADF8066001A83D
:109CC0009847E5E7237A01332372E1E7602B002010
:109CD00013B50B46497A0F4C024669B9D4E9011015
:109CE0001C7A002C18BF01465868FDF7DEFA08B14F
:109CF000FFF7B0FF02B010BD002119726369002B9D
:109D0000F8D00121ADF806008DF8041001A898479D
:109D1000F0E700BF602B00204B8802889A4213D8DE
:109D200042889A4210D380888A8840F2F31398427E
:109D300094BF031AC31A934206D800F2F31090425C
:109D400034BF002001207047002070470388112B8A
:109D500070B5014648D002D8102B1ED070BD122B12
:109D600052D0502BFAD12F4BC288DB899A42F5D1C1
:109D7000038A022BF2D186883046FFF761FF054641
:109D80000028EBD001F1120000F03FF930BB686809
:109D9000FDF7A3FA0028E1D009E0C37B012BDDD158
:109DA0004FF6FF70FFF74CFF054620B90420BDE8D1
:109DB0007040FFF74FBF1C4A8E8806800023037255
:109DC0001368C5F80A300A30536843601031FFF752
:109DD000A3FF144B6872DB89002BBFD129463046A4
:109DE000BDE87040FFF774BF8088FFF729FF044685
:109DF0000028B3D04068FDF770FA08B1FFF72AFFDA
:109E00004FF6FF732380A9E786883046FFF718FFD7
:109E100005460028A2D008310A30FFF77DFF68729E
:109E2000DCE700BF602B0020902B0020F8B5064631
:109E300048B305460FCD154F3C460FC495E80700C3
:109E400084E807003068124C3C60B0B1FFF7F4FEC4
:109E5000C0B9326813682360536863600D480E4AC6
:109E60004FF6FF7303800D4B40F8043F0021FDF7D0
:109E700011FA002818BF032004E02046FFF7DEFE99
:109E80000028EBD0F8BD0E20FCE700BF602B0020BF
:109E9000902B00207C2B0020659C0200982B00203A
:109EA0000AB1FDF7EFBCFDF7F6BC73B50191019C5B
:109EB00006466CB100252C46294601A8FDF7F5FCA5
:109EC00018B106EB440301349D800135142DF3D104
:109ED0003046346002B070BD2DE9F04703888488B5
:109EE000103B8CB005460A2B1FD8DFE803F0063F75
:109EF0001E1E1E1E1E1E1E5F4400314EB368DB4335
:109F0000009371686846FDF7F9FC009901A8FFF716
:109F1000CCFF0DF108094FF00008019B984507D3CD
:109F2000132C13D90420FDF7BBF80CB0BDE8F08763
:109F300039F802AB00270137514606EB8700FDF7E1
:109F4000AAFC1E2FF7D108F10108E6E721461D48BB
:109F5000FDF798FC21461C48FDF794FCEB7B012B98
:109F6000E3D021461948FDF78DFCDEE72146154870
:109F7000FDF791FCD9E7057A15482D09032D94BF0B
:109F8000002201222146FFF78BFF022D94BF002201
:109F9000012221460F48FFF783FF012D0E4894BF91
:109FA000002201222146FFF77BFFBEE7037A002B48
:109FB000BBD1427A0648C2F3C0022146F3E700BF94
:109FC000B82B0020C02B0020BC2B0020C42B00206D
:109FD000D02B0020CC2B0020C82B0020AADF7047FC
:109FE000002301380B70042806D8DFE800F00306D0
:109FF000080A0C0011230B7070472123FBE7312363
:10A00000F9E71223F7E72223F5E7007800F00100D3
:10A010007047F0B58B7891B0002B0C4608BF012338
:10A020008DF80E3005460B88ADF80C300021164631
:10A030006846032200F058FD6946607CFFF7D0FFB8
:10A040000DF10101A07CFFF7CBFF9DF80230E27B10
:10A0500062F3C303227C62F30413227B62F30003E6
:10A06000227D002A14BF0222012262F34203002152
:10A070001C2209A88DF8023000F036FD637B13F036
:10A08000300F15D002AF03220021384600F02CFD1E
:10A090000DF10901E07CFFF7A3FF11238DF80830D3
:10A0A0009DF80A300E97012262F342038DF80A30C0
:10A0B000637B8DF824301422A37B8DF8253000219A
:10A0C00004A800F011FD03AB0493A388ADF81C3085
:10A0D000A368CDF814D01BB1E288ADF8182008931E
:10A0E000A369002B2ED001AF03220021384600F0D7
:10A0F000FBFCA3691A88ADF82C205A88187BADF8B0
:10A100002E2039465A680A920D97FFF769FFA36916
:10A110000DF10501587BFFF763FFA2699DF806303A
:10A12000917A61F3C303D17A61F30413117A927BBC
:10A13000002A61F3000314BF0222012262F34203EA
:10A140008DF80630E36903B10C93334604AA09A9DC
:10A150002846FFF743FF11B0F0BD90DF7047A5DF41
:10A160007047B5DF704700007FB50023ADF80810D9
:10A17000ADF80A106A4602A9064603930093ADF8AB
:10A180000430FFF7EAFF054600B3124B124CE41A05
:10A19000E408FDF743FF240444F00104034632467B
:10A1A0000E492046FCF789FCBDF80020BDF80230BE
:10A1B00052EA030103D00A492046FCF77EFCBDF8B1
:10A1C00004201AB107492046FCF76EFC284604B06B
:10A1D00070BD00BF14AC02005CAC020012B40200FF
:10A1E0005CB402009BB4020078B14FF01713036017
:10A1F0001B2303711723C380038141F61B32002305
:10A20000016143818281184670470E20704700002B
:10A2100013B5034680880C46A0B91A88232A00F09B
:10A22000A38011D8102A22D0112A51D0A37A4BB181
:10A23000E1880020FFF793FF002840F09B804FF457
:10A240008073638102B010BD3A2A49D0552A5FD08D
:10A25000242AEBD11A7A0B694A73002BE6D04DF60B
:10A260007A21ADF8040000918DF8042078E0DB7BC2
:10A270000A790A73012B13D0022B14D0E1882389A9
:10A280008B4205D20020FFF76AFF70B90123E37209
:10A29000217B637B8B42C9D20020FFF765FFC5E7B6
:10A2A0000B88E380EAE74B88FBE7112802D1012302
:10A2B000A372EDE7FDF7B2FE374A384B38499B1AD7
:10A2C000DB081B04024643F00100FCF7EDFBDFE76F
:10A2D0001723CB800B8141F61B3348818B81A5E787
:10A2E0005B89CA88934228BF1346172B0A6938BF77
:10A2F00017230B814AB1C97A39B140F67721009111
:10A30000ADF80430694620469047002363818DE70D
:10A31000DB88C988A072172B38BF17238B4228BF50
:10A320000B462381FFF71DFF60B1FDF777FE1A4A48
:10A330001A4B1C499B1ADB081B04024643F0010020
:10A34000FCF7B2FBE37A002B7FF470AF2369002B9C
:10A350003FF46CAF40F6772200922289ADF80420DA
:10A3600069462046984761E7197A237B994228BFBE
:10A37000194692E711283FF465AFFDF74FFE064AF4
:10A38000064B07499B1ADB081B04024643F00100F9
:10A39000FCF78AFB56E700BF14AC02005CAC02007D
:10A3A000F1B4020022B50200B0DF704766DF7047EB
:10A3B00010B5002104464088FFF7F8FF034608B9AE
:10A3C000237210BD112801D10123F9E76368BDE8AC
:10A3D0001040184760B159B10378DE2B0AD00B68E2
:10A3E0004360DE2303704FF6FF7343800020704705
:10A3F0000E2070470820704728B10378DE2B04D167
:10A400004180002070470E20704708207047F0B54B
:10A41000054685B00C46F1B1E8B10B78DE2B1AD1B8
:10A4200082884B889A4204D10B7A13B10846FFF711
:10A43000BFFF2B88112B32D0512B0ED0012B0AD10C
:10A440002B7A012B07D1A9886288914203D123720C
:10A450002046FFF7ADFF05B0F0BDAE886388B3427C
:10A46000F9D1AF79022FF6D1AD7B2B1F022BF2D899
:10A4700000211022684600F037FB052D14BF4FF471
:10A48000C0730023694630468DF80070ADF8043083
:10A49000FFF78AFF0028DED063689847DBE7638810
:10A4A000AA889A4204BF4FF6FF736380D3E7A8DF00
:10A4B0007047AEDF704762DF70470288502A10B4E1
:10A4C0000DD1C4884A88944209D1028A012A06D152
:10A4D0004B6923B1827C5DF8044B808818475DF896
:10A4E000044B7047F0B50B6843618FB0334B02AA41
:10A4F000044603F11007164618685968154603C547
:10A500000833BB422A46F7D104F112013046FFF767
:10A51000D2FF00284FD1A37C8DF80630224641F2AD
:10A52000235301A90120ADF80430FFF7C0FF002834
:10A5300041D10146202206A800F0D6FA41F2245368
:10A54000ADF81830A37C8DF81A309DF825302246DE
:10A5500023F0120301254FF0011643F0120332F8E5
:10A560000A0B079606A98DF825308DF829508DF82D
:10A570002B50FFF74EFDF0B90146202206A800F04F
:10A58000B3FA41F22553ADF81830A37C8DF81A3098
:10A590009DF825300796224623F00A0343F00A036C
:10A5A00032F8020B8DF8253006A98DF829508DF868
:10A5B0002A50FFF72EFD0FB0F0BD00BF5EB50200C0
:10A5C00070B588B00E468DF807201022054601248C
:10A5D0000DEB02000021ADF80E4000F085FA738902
:10A5E000ADF810300DF10703079304A90DF10E0328
:10A5F00028468DF812400693FFF75BFF08B070BD48
:10A6000010DF704713B5044609496846FDF7ABFCF7
:10A61000019808B902B010BDD0E900312046984732
:10A6200018B16846FDF7A9FCF2E71120F2E700BF78
:10A6300074B5020013B5044607496846FDF793FC5C
:10A64000019B0BB902B010BD2046D3E90021904711
:10A650006846FDF792FCF3E78CB502000B4991F8D0
:10A6600016335A09EC231341DB0706D5084B9A68C9
:10A670003AB94FF480030B60704742F20200FCF7D6
:10A680000FBD1A6842F480021A60704700E100E0D2
:10A69000E4290020F7B5194F3C7864BB184E01251A
:10A6A00020463570FFF7AEFF112821D02046FFF776
:10A6B000C1FF144B8DF80340186801900DF10300A1
:10A6C000FCF7E2FE104901A8FFF79AFF0446B0FA32
:10A6D00080F0400938709DF80300FCF7F9FE3CB9A2
:10A6E0000A4B34701C70FFF7B9FF2846FFF7A2FF32
:10A6F000204603B0F0BD0824FAE700BF352C002047
:10A70000342C00206EB50200BD700200362C0020F3
:10A71000014B1878704700BF352C002007B5084959
:10A720006846FDF720FC019B13B903B05DF804FBFC
:10A73000D3E9002090476846FDF71FFCF3E700BF10
:10A7400080B50200FFF7EABF60DF704769DF70473E
:10A7500061DF704730B5114B1B7891B0E3B1104DFC
:10A7600034240DF1020103A8ADF80240FFF7F0FF19
:10A7700070B9294601A8FDF7F6FB029B002BF0D02B
:10A7800003A8D3E90021904701A8FDF7F6FBF4E701
:10A79000052801D0FCF784FC11B030BD372C002017
:10A7A000CCB7020030B5054685B00C46002900F054
:10A7B00099804D4B0B600C22002101A800F094F908
:10A7C00001238DF8063022688DF80450062301A974
:10A7D0002020ADF80830FFF7B9FF60B1FDF71EFC8F
:10A7E000424A434B43499B1ADB081B04024643F091
:10A7F0000100FCF759F90C22002101A800F074F9BE
:10A8000001238DF805302268002301A94020ADF80E
:10A810000630FFF79BFF60B1FDF700FC334A344B75
:10A8200035499B1ADB081B04024643F00100FCF784
:10A830003BF90C22002101A800F056F90A232268F6
:10A840008DF8043001A90120FFF780FF60B1FDF70A
:10A85000E5FB264A264B29499B1ADB081B040246C6
:10A8600043F00100FCF720F90C22002101A800F0C0
:10A870003BF94FF4B0632268019301A9A120FFF7CF
:10A8800065FF60B1FDF7CAFB184A194B1C499B1ABA
:10A89000DB081B04024643F00100FCF705F90C221B
:10A8A000002101A800F020F99DF8043022686FF320
:10A8B000000301A9A0208DF80430FFF747FF0346ED
:10A8C00068B1FDF7ABFB094A094B0E499B1ADB083F
:10A8D0001B04024643F00100FCF7E6F8002318468B
:10A8E00005B030BD0E23FAE7F022002014AC0200C0
:10A8F0006CAC0200A0B50200E6B5020032B6020060
:10A900007EB60200CFB60200F8B506460768FFF72C
:10A910001BFF3368BB4205461DD9194B194C1A4918
:10A92000E41AE408240444F002042046FCF7B8F8D2
:10A93000336816493A462046FCF7BFF84FF080537B
:10A940003268D3F80C3112499B0203F100539A1A72
:10A950002046FCF7A9F825B90E4B01221A702846AB
:10A96000F8BD2846FDF75AFB054A064B0A499B1AD3
:10A97000DB081B04024643F00100FCF795F8EEE704
:10A9800014AC02006CAC020022B7020051B7020006
:10A9900082B70200372C0020ACB702004BDF7047B3
:10A9A0001FB50D4C01A8FFF7F9FF70B9214602A8A9
:10A9B000FDF7D9FA039B002BF4D00198D3E90021CD
:10A9C000904702A8FDF7D9FAF4E7052801D0FCF773
:10A9D00067FB04B010BD00BFE4B702007F2805D8B4
:10A9E000034B185C034B5B5C1840704700207047BA
:10A9F000FCB702007CB80200A0F16103192B98BFDC
:10AA000020387047A0F14103192B98BF20307047C0
:10AA10007F2805D8034B185C034B5B5C18407047DC
:10AA200000207047FCB702007CB80200A0F161036F
:10AA3000192B98BF20387047A0F14103192B98BFFC
:10AA4000203070477F299ABF017001206FF02E00DF
:10AA500070475AB10A787F2A0AD800B102600021F3
:10AA600019605960501A18BF0120704700207047C4
:10AA70006FF02E007047000008B5034B5B689B68C1
:10AA80001B68984708BD00BF3423002008B5092182
:10AA9000FFF7F2FF08BD844640EA010313F0030FFD
:10AAA00018D18446202A0BD32DE9F007B1E8F80726
:10AAB000A0E8F807A2F12002202AF7D2BDE8F007AB
:10AAC000042A07D351F8043B40F8043BA2F10402E6
:10AAD000042AF7D2002A05D011F8013B00F8013B07
:10AAE000013AF9D1604670478446002A2DD010F013
:10AAF000030F04D000F8011B013A26D0F7E7C9B2D2
:10AB000041EA012141EA0141202A12D3A2F12002A7
:10AB10002DE9F0030B460C460D460E460F468846BF
:10AB20008946A0E8FA03203AFBD2BDE8F0032032C0
:10AB30000BD0042A05D340F8041B043A05D0042A9C
:10AB4000F9D200F8011B013AFBD16046704700F1D1
:10AB5000010110F0030F11D010F8012B002A23D0AF
:10AB600010F0030F0AD010F8012B002A1CD010F0AF
:10AB7000030F03D010F8012B002A15D02DE9700027
:10AB80004FF001324FF0803350F8044BA4EB020534
:10AB900025EA04051D4000D1F6E7A0F1040070BCD1
:0EABA00010F8012B002AFBD1A0EB010070473A
:08ABB000CD830200000000004B
:10ABB800D99E02000000000011A20200282B0020EC
:10ABC8004D9D0200000000000FA40200542B00203D
:10ABD800BBA402003C2B0020F193020000000000FF
:08ABE8004D8402000000000092
:10ABF00055A7020000000000A1A90200000000000B
:10AC00008C230020542400205C2400209423002066
:04AC10001800000028
:10AC14007CB302000000000082B3020000000000C8
:10AC240089B30200000000008DB3020000000000A0
:10AC340092B3020000000000F9AC0200000003031C
:10AC4400CCAD02000000000000AE020000000000D5
:10AC540076B302000000000051B5020000000303B7
:10AC640098B5020000000303D8B7020000000303F4
:10AC7400F0B702000000030368AE02000000000009
:08AC840071AE020000000000A7
:10AC8C00BCAC020000000000C8AC02000423002091
:10AC9C00FFFFFFFFFFFFFFFFFFFFFFFFFFFFFFFFB8
:10ACAC0000000000000000000000D60106010000BA
:10ACBC00ED640200516502009D64020075617274BE
:10ACCC005F6C6F675F6261636B656E6400000000B0
:10ACDC00802800207F000000002900204261636B67
:10ACEC00656E647320666C75736865640061707062
:10ACFC000000000033AD02007CAD02003BAD020051
:10AD0C0084AD02008CAD020094AD02009CAD02003B
:10AD1C00A4AD0200ACAD020020253032780020201A
:10AD2C0020007C002563001B5B306D002573001B2D
:10AD3C005B313B33316D0025734C6F67732064724C
:10AD4C006F70706564202825642925730D0A003CFA
:10AD5C0025733E2025733A200000000000000000FF
:10AD6C00DDAD0200B4AD0200BCAD0200C1AD02000D
:10AD7C001B5B313B33306D001B5B313B33326D0061
:10AD8C001B5B313B33336D001B5B313B33346D004C
:10AD9C001B5B313B33356D001B5B313B33366D0038
:10ADAC001B5B313B33376D007761726E696E6700E8
:10ADBC00696E666F0064656275670000202900206B
:10ADCC006170705F627574746F6E00466174616C53
:10ADDC00206572726F720053797374656D207265A1
:10ADEC007365740001000600000000005C2900205F
:10ADFC002D7102006170705F74696D6572000000E6
:10AE0C00000000000338FDD8704752544320696E8F
:10AE1C007374616E636520616C726561647920691D
:10AE2C006E697469616C697A65642E005254433A98
:10AE3C0020696E697469616C697A65642E003031C1
:10AE4C0032333435363738394142434445460000B5
:10AE5C00B8AB0200B8AB0200040000007077725F60
:10AE6C006D676D7400736F72746C69737400556EDA
:10AE7C006B6E6F776E206572726F7220636F646594
:10AE8C000000000000000000B8AF0200010000004C
:10AE9C00C4AF020002000000E2AF02000300000099
:10AEAC0003B002000400000016B002000500000010
:10AEBC0027B00200060000003BB0020007000000B3
:10AECC0053B00200080000006BB002000900000043
:10AEDC0083B002000A0000009CB002000B000000CE
:10AEEC00B4B002000C000000CBB002000D0000005A
:10AEFC00DFB002000E000000F1B002000F000000F5
:10AF0C0000B102001000000014B10200110000009A
:10AF1C002BB10200120000003AB102001300000035
:10AF2C004FB102008000000063B1020081000000FC
:10AF3C0084B1020082000000A0B102008300000076
:10AF4C00BCB1020084000000DAB1020085000000F0
:10AF5C00FBB102008600000020B20200900000004D
:10AF6C0037B202009100000055B2020092000000BE
:10AF7C0073B202000082000088B20200018200005D
:10AF8C00A6B2020002820000C2B2020000840000DD
:10AF9C00DEB202000184000002B302000284000051
:10AFAC002CB302000384000051B302004E52465FE2
:10AFBC0053554343455353004E52465F4552524FEF
:10AFCC00525F5356435F48414E444C45525F4D4986
:10AFDC005353494E47004E52465F4552524F525FB3
:10AFEC00534F46544445564943455F4E4F545F4575
:10AFFC004E41424C4544004E52465F4552524F52D0
:10B00C005F494E5445524E414C004E52465F45529C
:10B01C00524F525F4E4F5F4D454D004E52465F456D
:10B02C0052524F525F4E4F545F464F554E44004E56
:10B03C0052465F4552524F525F4E4F545F535550DC
:10B04C00504F52544544004E52465F4552524F5257
:10B05C005F494E56414C49445F504152414D004E60
:10B06C0052465F4552524F525F494E56414C4944ED
:10B07C005F5354415445004E52465F4552524F5215
:10B08C005F494E56414C49445F4C454E475448002D
:10B09C004E52465F4552524F525F494E56414C49B3
:10B0AC00445F464C414753004E52465F4552524F07
:10B0BC00525F494E56414C49445F44415441004E05
:10B0CC0052465F4552524F525F444154415F53497F
:10B0DC005A45004E52465F4552524F525F54494DAD
:10B0EC00454F5554004E52465F4552524F525F4E9B
:10B0FC00554C4C004E52465F4552524F525F464F94
:10B10C005242494444454E004E52465F4552524FBE
:10B11C00525F494E56414C49445F41444452004EA3
:10B12C0052465F4552524F525F42555359004E5250
:10B13C00465F4552524F525F434F4E4E5F434F5501
:10B14C004E54004E52465F4552524F525F52455339
:10B15C004F5552434553004E52465F4552524F5243
:10B16C005F4D4F44554C455F4E4F545F494E4954CB
:10B17C0049414C495A4544004E52465F4552524F44
:10B18C00525F4D555445585F494E49545F464149AD
:10B19C004C4544004E52465F4552524F525F4D55FE
:10B1AC005445585F4C4F434B5F4641494C45440016
:10B1BC004E52465F4552524F525F4D555445585F63
:10B1CC00554E4C4F434B5F4641494C4544004E5203
:10B1DC00465F4552524F525F4D555445585F434F51
:10B1EC004E445F494E49545F4641494C4544004EDC
:10B1FC0052465F4552524F525F4D4F44554C455F3E
:10B20C00414C52454144595F494E495449414C497E
:10B21C005A4544004E52465F4552524F525F53546A
:10B22C004F524147455F46554C4C004E52465F4588
:10B23C0052524F525F4150495F4E4F545F494D50EF
:10B24C004C454D454E544544004E52465F45525276
:10B25C004F525F464541545552455F4E4F545F45E2
:10B26C004E41424C4544004E52465F4552524F525D
:10B27C005F494F5F50454E44494E47004E52465F22
:10B28C004552524F525F4452565F5457495F455294
:10B29C00525F4F56455252554E004E52465F4552E4
:10B2AC00524F525F4452565F5457495F4552525F5A
:10B2BC00414E41434B004E52465F4552524F525FF6
:10B2CC004452565F5457495F4552525F444E414376
:10B2DC004B004E52465F4552524F525F424C455FB7
:10B2EC00495053505F52585F504B545F5452554E17
:10B2FC004341544544004E52465F4552524F525FB3
:10B30C00424C455F495053505F4348414E4E454C6B
:10B31C005F414C52454144595F4558495354530081
:10B32C004E52465F4552524F525F424C455F495018
:10B33C0053505F4C494E4B5F444953434F4E4E451F
:10B34C0043544544004E52465F4552524F525F4261
:10B35C004C455F495053505F504545525F52454AEA
:10B36C0045435445440011121314636C6F636B0016
:10B37C00434C4F434B004750494F54450050525398
:10B38C00005541525400554152544500436F6E6E66
:10B39C00656374656400446973636F6E6E65637492
:10B3AC0065640053656E6420627574746F6E2073EF
:10B3BC0074617465206368616E67652E0052656305
:10B3CC006569766564204C4544204F4E21005265DA
:10B3DC00636569766564204C4544204F46462100E0
:10B3EC004E6F726469635F426C696E6B7900426C7C
:10B3FC00696E6B79206578616D706C652073746112
:10B40C00727465642E0073645F626C655F67617053
:10B41C005F646174615F6C656E6774685F7570649E
:10B42C0061746528292028726571756573742920EB
:10B43C006F6E20636F6E6E656374696F6E2030780B
:10B44C0025782072657475726E65642025732E00E4
:10B45C005468652072657175657374656420545801
:10B46C002F5258207061636B6574206C656E677425
:10B47C006820697320746F6F206C6F6E672062791F
:10B48C002025752F2575206F63746574732E0054F9
:10B49C0068652072657175657374656420636F6D82
:10B4AC0062696E6174696F6E206F662054582061FA
:10B4BC006E64205258207061636B6574206C656EED
:10B4CC006774687320697320746F6F206C6F6E677C
:10B4DC00206279202575206D6963726F7365636FC7
:10B4EC006E64732E0073645F626C655F6761747465
:10B4FC00635F65786368616E67655F6D74755F72B5
:10B50C0065717565737428292072657475726E6522
:10B51C00642025732E0073645F626C655F676174D1
:10B52C0074735F65786368616E67655F6D74755F72
:10B53C007265706C7928292072657475726E6564F9
:10B54C002025732E006E72665F626C655F67617496
:10B55C00740023D1BCEA5F782315DEEF12120000D1
:10B56C00000001000007000000AC020000AC02006B
:10B57C0008000000F0AB020000AC02000800000064
:10B58C00E8AB0200F0AB0200080000006E72665FD0
:10B59C007364680073645F626C655F6366675F7396
:10B5AC00657428292072657475726E656420257324
:10B5BC00207768656E20617474656D7074696E6750
:10B5CC0020746F2073657420424C455F434F4E4E80
:10B5DC005F4346475F4741502E0073645F626C6562
:10B5EC005F6366675F736574282920726574757272
:10B5FC006E6564202573207768656E2061747465B0
:10B60C006D7074696E6720746F2073657420424C82
:10B61C00455F4741505F4346475F524F4C455F4340
:10B62C004F554E542E0073645F626C655F636667A2
:10B63C005F73657428292072657475726E65642059
:10B64C002573207768656E20617474656D707469FC
:10B65C006E6720746F2073657420424C455F434FB6
:10B66C004D4D4F4E5F4346475F56535F55554944CA
:10B67C002E0073645F626C655F6366675F736574ED
:10B68C0028292072657475726E6564202573207785
:10B69C0068656E20617474656D7074696E67207472
:10B6AC006F2073657420424C455F47415454535F7F
:10B6BC004346475F415454525F5441425F53495A89
:10B6CC00452E0073645F626C655F6366675F7365CC
:10B6DC007428292072657475726E65642025732038
:10B6EC007768656E20617474656D7074696E67201F
:10B6FC00746F2073657420424C455F47415454531A
:10B70C005F4346475F534552564943455F43484163
:10B71C004E4745442E00496E7375666669636965CC
:10B72C006E742052414D20616C6C6F636174656462
:10B73C0020666F722074686520536F66744465765A
:10B74C006963652E004368616E67652074686520C7
:10B75C0052414D207374617274206C6F6361746913
:10B76C006F6E2066726F6D203078257820746F2094
:10B77C00307825782E004D6178696D756D205241B9
:10B78C004D2073697A6520666F72206170706C69E8
:10B79C00636174696F6E20697320307825782E0090
:10B7AC0073645F626C655F656E61626C65282920ED
:10B7BC0072657475726E65642025732E000000002E
:10B7CC00B8AB0200E8AB0200080000006E72665FC6
:10B7DC007364685F626C6500B0AB0200B8AB0200CA
:10B7EC00080000006E72665F7364685F736F6300BD
:10B7FC0020202020202020202068282828282020D5
:10B80C00202020202020202020202020202020202C
:10B81C0048101010101010101010101010101010E4
:10B82C008484848484848484848410101010101084
:10B83C0010818181818181010101010101010101DD
:10B84C000101010101010101010101101010101091
:10B85C0010828282828282020202020202020202AE
:10B86C000202020202020202020202101010102056
:10B87C000007032004170201085710408000000045
:10B88C0030BA0200F4B8020008BA020053756E0018
:10B89C004D6F6E00547565005765640054687500F3
:10B8AC004672690053617400000000004A616E002A
:10B8BC00466562004D617200417072004D61790005
:10B8CC004A756E004A756C004175670053657000CF
:10B8DC004F6374004E6F76004465630000000000F7
:10B8EC00414D00504D0000002CBA020028BA020055
:10B8FC0028BA020028BA020028BA020028BA0200AC
:10B90C0028BA020028BA020028BA020028BA02009B
:10B91C00FFFFFFFFFFFFFFFFFFFFFFFFFFFF000029
:10B92C0068B9020098B80200A4B90200B8B80200C5
:10B93C00ECB802004CB90200FCB9020058B9020084
:10B94C00256D2F25642F2579000000002561202509
:10B95C0062202565202554202559000053756E64FE
:10B96C006179004D6F6E6461790054756573646123
:10B97C0079005765646E65736461790054687572FB
:10B98C0073646179004672696461790053617475FE
:10B99C0072646179000000004A616E756172790011
:10B9AC004665627275617279004D6172636800411F
:10B9BC007072696C004D6179004A756E65004A754C
:10B9CC006C79004175677573740053657074656D9F
:10B9DC00626572004F63746F626572004E6F7665BC
:10B9EC006D62657200446563656D6265720000008E
:10B9FC0025483A254D3A255300000000DDA90200E8
:10BA0C00F9A9020005AA020011AA02002DAA02003F
:10BA1C0039AA020045AA020053AA02000000000045
:10BA2C002E00000043000000504F53495800000006
:10BA3C00000000000020004000000000002000403A
:10BA4C000000000000000000FF000000001001409A
:10BA5C00110004000090D0030D000300F9940200C3
:10BA6C00E82A00201F000000072B00201F00000008
:10BA7C00FF00FFFF8CB802008CB802008CB80200EB
:08BA8C008CB802008CB8020026
:040000032000637501
:00000001FF
