:02000002F0000C
:10800000000004205D830F0045830F0047830F00AD
:1080100049830F004B830F004D830F0000000000C9
:10802000000000000000000000000000F1A00F00B0
:1080300051830F000000000053830F0055830F0091
:1080400057830F0057830F0057830F0057830F008C
:1080500057830F0057830F0057830F0057830F007C
:1080600057830F0057830F0057830F0057830F006C
:1080700057830F0057830F0057830F0057830F005C
:1080800095A80F0057830F0057830F0057830F00E9
:1080900057830F0057830F00F59A0F0057830F0087
:1080A00057830F0057830F0057830F0057830F002C
:1080B00057830F0057830F000000000000000000EE
:1080C00057830F0057830F0057830F0057830F000C
:1080D0002DA50F0057830F0057830F0057830F0004
:1080E00057830F0057830F0001D80F0000000000D6
:1080F0000000000057830F000000000057830F00AE
:10810000000000000000000000000000000000006F
:10811000000000000000000000000000000000005F
:10812000000000000000000000000000000000004F
:10813000000000000000000000000000000000003F
:10814000000000000000000000000000000000002F
:10815000000000000000000000000000000000001F
:10816000000000000000000000000000000000000F
:1081700000000000000000000000000000000000FF
:1081800000000000000000000000000000000000EF
:1081900000000000000000000000000000000000DF
:1081A00000000000000000000000000000000000CF
:1081B00000000000000000000000000000000000BF
:1081C00000000000000000000000000000000000AF
:1081D000000000000000000000000000000000009F
:1081E000000000000000000000000000000000008F
:1081F000000000000000000000000000000000007F
:10820000314932480A1A02D0072291438D4630493B
:1082100030480A1A06D00722914381F309880222C6
:1082200082F314882C482D492D4A00F03CF82D4843
:108230002D492E4A00F037F82D482E492E4A00F0DD
:1082400032F82E482E492F4A00F02DF82E482F499B
:108250002F4A00F028F82F482F49304A00F023F821
:108260002F483049304A00F01EF83048304900228B
:1082700000F024F82F483049002200F01FF82F4A60
:1082800090471F481F49884205D00268043003B454
:10829000904703BCF7E700208646EC46002000210B
:1082A000274A9047FEE7884207D0521A05D0037844
:1082B00001300B700131013AF9D17047884202D088
:1082C00002700130FAE770470000042000F8032034
:1082D00000000420000004203CDE0F007C59002038
:1082E000B4590020B8830F00B8830F00B2D90F0033
:1082F0003CDE0F007C5900207C59002028DA0F005A
:1083000028DA0F0028DA0F0028DA0F0028DA0F0029
:1083100028DA0F0028DA0F0028DA0F003CDE0F0001
:1083200074DE0F00B4590020B4590020B459002065
:10833000708F0020708F0020708F002085830F00C9
:10834000E59F0F00FEE7FEE7FEE7FEE7FEE7FEE73C
:10835000FEE7FEE7FEE7FEE700F002B8FFF7FCBF2E
:108360000F484FF00701884385460E4880470E4866
:10837000016841F470010160BFF34F8FBFF36F8F4D
:10838000FFF73EBF09480A490A4A884207D0521AF5
:1083900005D0037801300B700131013AF9D17047F3
:1083A000000004202DA90F0088ED00E014DA0F0072
:0883B000685900207C590020EF
:1083B8004B1C30B5DB00044612F003009BB20DD114
:1083C800074D2A601A44074B1A60074B1870074B71
:1083D8001870074B1C80074B198030BD0720FCE73D
:1083E800BC590020B8590020B4590020C4590020B5
:1083F800C0590020C25900202DE9F3472B4D2B8886
:108408008B4206460C4617464CD34FF000080DF138
:1084180007008DF8078000F087F8254B254A187863
:108428001178CBB2244909888B4238BF0133C0B2D6
:1084380038BF5FFA83F840452ED092F80080137851
:10844800DBB2994286BF0133DBB2002313709DF87B
:10845800070000F08DF84FF6FF73984524D0DFF839
:1084680060A0DAF800304FEAC80903EB090243F8C4
:108478003870A6B19CB1114B28881B68224608FBAE
:108488000030314605F005FADAF800304B44002098
:108498009C8002B0BDE8F0874FF6FF78D7E7002050
:1084A8009080F6E70920F4E70420F2E7C05900209D
:1084B800C4590020B4590020C2590020B8590020DE
:1084C800BC590020F8B5124C124D264622782B785C
:1084D8009A4200D1F8BD23780F48104A07881268DD
:1084E8000F48DBB219B202EBC10C006852F8312018
:1084F800BCF8041003FB070090470A4A2378128847
:10850800DBB29A4286BF0133DBB200233370DDE76A
:10851800C4590020B4590020C0590020BC5900207B
:10852800B8590020C259002070B5EFF3108672B612
:108538000C4A946801239CB993600B4B0B4DD3F8FC
:10854800801029401160C3F88050D3F8841051601E
:108558004FF0FF32C3F88420047006B962B670BDCC
:108568000370FAE7C859002000E100E0FC06FFBDEF
:10857800084B9A6810B55AB150B9EFF3108172B62A
:10858800054A1C6814605C685460986001B962B65A
:1085980010BD00BFC859002000E100E030B53AB175
:1085A8001368DB430A4D0144814204D1D84330BDEE
:1085B8004FF0FF33F6E710F8012B5340082213F071
:1085C800010418BF2C46013A84EA5303F7D1EBE7BC
:1085D8002083B8ED10B561B1B2FBF3F403FB1424AA
:1085E800A4B244B9C0E9001484608281C3812046E2
:1085F80010BD0E20FCE70920FAE782B050E8022FF0
:10860800C188B2EB324F4FF0000317BF92B241EA74
:10861800014142EA014104E04268B2EB324F08BF2F
:10862800012340E80212002AE8D18DF807309DF8AE
:108638000730002B0CBF1120002002B0704737B55F
:1086480050E8013F9DB2C48925448489A54228BFCA
:108658002D1B0489A54202BFBFF32F8F002207E01C
:10866800C5EA030540E80154002CE9D14FF00102A6
:108678008DF803200193019B9DF803200B6002F005
:10868800FF0322B10B880068184403B030BD1846B8
:10869800FBE70A884B889A4209D150E8012FC2EAC1
:1086A800024240E80123002BF7D101207047002047
:1086B800704737B550E8023F1FFAA3F5C488A542B2
:1086C80002BFBFF32F8F00220DE0C489254484899F
:1086D800A54228BF2D1BC3EA054540E80254002CDB
:1086E800E8D14FF001028DF803200193019B9DF81A
:1086F80003200B6002F0FF0322B14B880068184486
:1087080003B030BD1846FBE70A884B889A4209D166
:1087180050E8022FC2EA224240E80223002BF7D198
:10872800012070470020704750E8002F0B4640E8B2
:10873800003C9CF0000FF7D11046704750E8002F1E
:1087480042EA010340E8003C9CF0000FF6D11046D5
:10875800704750E8003F03EA010240E8002C9CF013
:10876800000FF6D1104670470121FFF7E7BF00213F
:10877800FFF7EFBF10B590B1D0E9012301689B1A4C
:10878800DBB20A60013BDBB2FF2B026802D100209A
:10879800107110BD11684C1C14600B70F2E70E20AC
:1087A800F7E737B5054600240DF107008DF80740B7
:1087B800FFF7BAFE2A686B68116899420ED9481EFD
:1087C800106011F8014CEB68298A01FB0434AB688E
:1087D80011791B1ADBB2994238BF13719DF8070053
:1087E800FFF7C6FE204603B030BD37B50546002367
:1087F8000DF107000C468DF80730FFF795FE2A6843
:108808001368591C1160E968641A298AB4FBF1F4E9
:108818001C709DF80700FFF7ABFE03B030BD016088
:108828000B681146184710B40468E468A4465DF85C
:10883800044B604710B404682469A4465DF8044BEF
:108848006047000070B508B10368ABB90C4D0D4C1A
:108858000026641B1423B4FBF3F4B44201D10020B6
:1088680009E02B6813B901361435F6E7DB692846A9
:1088780098470028F7D070BDDB69BDE870401847FD
:10888800685900207C590020014B43600020704744
:1088980028DA0F000846704700207047024B186816
:1088A800003018BF01207047D459002008B502488D
:1088B800FFF75DFF002008BDD459002008B5104619
:1088C8001A4604F0E6FF002008BD00002DE9F04339
:1088D800814687B014480F4616469846FFF744FF6E
:1088E8000446F0B90546AE4215D10F48FFF73FFFE1
:1088F800D9F808305BB102228DF800200022CDE9BA
:108908000127CDE90326CDF814806846984720460C
:1089180007B0BDE8F08307EB053001F0C1F9013578
:10892800E1E71124F3E700BFD45900202DE9F04115
:10893800804686B011480F4616461D46FFF714FFBD
:108948000446C8B9AA083146384601F0D7F90B4899
:10895800FFF70DFFD8F8083053B101228DF8002039
:108968000C9A0592CDE90147CDE903656846984719
:10897800204606B0BDE8F0811124F9E7D45900205B
:1089880029DF704728DF704770B503689D6886B097
:1089980004460E466DB114220021684604F0A2FF79
:1089A800A3680593237901962BB1012B0DD0684656
:1089B800A84706B070BD01238DF8003023690293E3
:1089C800E368039363690493F1E702238DF80030A9
:1089D800E3681B030293F5E70846704700207047D9
:1089E800024B187A003018BF01207047C45B002082
:1089F800034B187A0122B0FA80F05A744009704784
:108A0800C45B002008B510461A4604F042FF002057
:108A180008BD000008B514220021044804F062FFD4
:108A28000348FFF7EAFD002008BD00BFC45B002033
:108A3800B45B002010B5094C094B43602046FFF792
:108A480093FE48B901F038F81C2320744FF4EE72F5
:108A580004490548FFF7BEFD002010BDC45B002097
:108A680054DA0F00D8590020B45B002070B5234CAD
:108A7800234E237A25463BB922492348FFF719FE9E
:108A8800306008B9606070BD346802232B722379A6
:108A980073B1012B22D020460321FFF775FF002375
:108AA8002B726B6017491848BDE87040FFF72CBE61
:108AB800D4E90523D21A142A28BF1422D4E90310B2
:108AC8009208012A38BF012219441844FFF758FFB9
:108AD80050B11128DFD101232B72D4E7D4E9030365
:108AE8001844FFF74FFFF3E72B7C002BCBD101464F
:108AF800BDE87040022000F009B800BFC45B002048
:108B0800DC5B0020D85B0020B45B002038B5831EF6
:108B1800012B43D8224C237A002B3FD0022B09D1BA
:108B280003282ED01F4B1B680022E2601A793AB145
:108B3800012A20D0637C6BBBBDE83840FFF796BFA5
:108B4800D3E905128D1A142D94BF521914329A6163
:108B58009142EFD102284FF0000308BF1946237253
:108B6800104B18BF0D211868FFF70EFF0E490F486C
:108B7800FFF7CAFDDEE71A6901321A615B699A429A
:108B8800E7E7E3680133082B01D8E360D2E7002365
:108B9800E360DFE7BDE8384000F07EBF38BD00BFC6
:108BA800C45B0020DC5B0020D85B0020B45B0020A5
:108BB80000F0FD03012B08D1044B00225A74421E19
:108BC800504250411874FFF751BF7047C45B0020F2
:108BD80010B5064C201DFFF7C7FD28B9637C1BB9EB
:108BE800BDE81040FFF742BF10BD00BFC45B0020C6
:108BF8002DE9F34180460D460F4801A916461F4648
:108C0800FFF71DFD0446A8B11C22002104F06AFEEE
:108C18002D0B0123237101A9C4F80080A760E5602A
:108C280066610548FFF735FDFFF7D2FF002002B067
:108C3800BDE8F0810420FAE7B45B00202DE9F74392
:108C480081468846104801A917461E46FFF7F7FCDB
:108C58000446B0B11C22002104F044FE00250A9B02
:108C6800A36001A92571C4F80090C4E9037866617E
:108C78000548FFF70EFDFFF7ABFF284603B0BDE838
:108C8800F0830420FAE700BFB45B00200B684A6851
:108C98004360934208BF0023016008BF43607047E8
:108CA800436843B10268916852680B449342436039
:108CB80004BF0023436070470023C0E902328B8859
:108CC8001A44B1F9063002611A44C0E90011426140
:108CD8000888003018BF012070474268118838B5ED
:108CE8000346002937D0148A02F1100141602CB9DB
:108CF800C2680168FFF7E0FF204638BD9078118907
:108D080000F03005302D14D1947C04F03004302C60
:108D18001BD190881969091A19610021908AB2F942
:108D28001620084419690144196111445961012048
:108D3800E3E700F0F004202C07D150894143002DCF
:108D4800ECD1986801309860E8E700F0C00080280E
:108D580008BF0421F3E70846CFE770B54568044625
:108D68000E4663681A88B24204D19B7803F00F0359
:108D7800082B07D12046FFF7B0FF6368AB42F0D15C
:108D8800002070BD0120FCE743681A44426011B11D
:108D980001399A4201D10120704713F8010B01F8FB
:108DA800010FF6E783682DE9F3410446884623B9A5
:108DB8000027384602B0BDE8F081036801220DF1B2
:108DC8000701984707460028F2D0A3689DF8075086
:108DD800013B2A06A3601AD505F07F050726A3687C
:108DE800002BE5D0236801220DF1070120469847A2
:108DF8000028DDD0A3689DF80720013BA36002F09E
:108E08007F03B3401D43130606F1070602D4C8F8D2
:108E18000050CEE7232EE2D1CAE770B54568AA789C
:108E280002F00F06082E86B003461FD103691C689E
:108E380000260CB906B070BD236862689D68267369
:108E480029466846FFF738FF6368049304F10C036A
:108E58000593AB7803F0C003802B08BF231D684639
:108E680008BF0493FFF7D9FFA468E2E712F0C00136
:108E78001CD102F0300010280AD15A691170072E4F
:108E8800EC68186909D10146204600F017F8D1E7C7
:108E98009006F4D55B691980CCE72A89214614B17C
:108EA80004F0F7FCC6E704F01DFDC3E78029C1D133
:108EB8000069002192060160BCD5EBE77FB50A4640
:108EC80001466846FFF7F8FE30B16846FFF7A5FF90
:108ED8006846FFF702FFF7E707B05DF804FB0000FC
:108EE80030B5044685B01546A9B90268114B9A42B7
:108EF80011D0102D06D82A4669462046FFF7F0FF04
:108F080005B030BD102269462046FFF7E9FF00286A
:108F1800F6D0103DEDE7A368AB4201D20020EFE7A1
:108F280023682A46204698470028F7D0A3685D1B87
:108F3800A560E5E7918D0F00F7B50E4601A9074634
:108F48001546FFF72FFFA8B1019A0123D3184FF058
:108F5800000404D2B17801F0C001802901D1204673
:108F680008E031899942FAD329463846FFF7B8FF15
:108F7800019BEC5403B0F0BD73B50E4601A905463C
:108F88001446FFF70FFFB8B1019BB3F5803F07D236
:108F980002229A1804D2B17801F0C001802901D1C7
:108FA800002009E031899142FAD321461A4621F876
:108FB800023B2846FFF794FF02B070BD10B5034C82
:108FC80082600022C0E90041C26010BD918D0F008F
:108FD8002DE9F3470025064688462F462C46B368F8
:108FE80043B3336801220DF107013046984708B3AF
:108FF800B3689DF807C0013B0CF07F025FFA82F965
:10900800C4F12001B360A4F1200309FA03F329FA9B
:1090180001F109FA04F20B431CF0800F45EA02053E
:1090280047EA030704F1070402D1C8E9005702E040
:10903800462CD4D1002002B0BDE8F08773B50C46A9
:1090480069461646FFF7C4FF68B12389082B0CD17F
:10905800DDE90045C6E90045DDE90023AB4206BF6E
:10906800A2420120002002B070BD042B04D1009B55
:1090780033601C460025EFE7022B4FF0000004D1B7
:10908800009B33809CB20546E6E7012BEBD1009BA1
:10909800337003F0FF04F6E737B50D46694614460A
:1090A800FFF796FF30B12A89082ADDE9003103D19C
:1090B800C4E9003103B030BD042A18464FEAE37111
:1090C80008D123601A460B468B4206BF8242012014
:1090D8000020EFE7022A04D11BB223801AB2D3176B
:1090E800F2E7012A03D15BB223705AB2F7E70020F6
:1090F800E0E7F7B50C46002119702170116001A94D
:10910800074615461E46FFF74DFE30B9BB6813B932
:1091180001233370002003B0F0BD01990029F7D076
:10912800CB0801F007012B602170F4E713B5044662
:1091380005291FD8DFE801F0030F151E1E1C0122A8
:1091480001A92046FFF7CCFE18B19DF90430002B89
:10915800F5DB02B010BD082200212046FFF7C0FE53
:10916800F7E701A9FFF71EFE0028F2D0019AF3E7FE
:109178000422F1E70020ECE773B50D4601A9044687
:10918800FFF710FE064618B90026304602B070BD3B
:1091980094E80F0085E80F0001998A42F4D3A9608A
:1091A800A3685B1AA360F0E72DE9F0435568AB7834
:1091B80013F0C00489B006468C46174603D0402CED
:1091C80067D000240AE003F00F025D4903F0300382
:1091D800102B51F822801BD004D8E3B1204609B0E7
:1091E800BDE8F083202B1BD0302BF7D17B69298871
:1091F8001980072A09D121462A89386904F072FBA7
:109208007B683969D868FFF759FE3A6979683EE0A2
:109218007B6901221A703A692946C0470446DDE78E
:10922800BCF1020FD7F8149024D1042A22D804A93B
:10923800FFF7A2FF04460028C3D0069B2BB179682C
:10924800B9F800304A899A4205D8059B7360069B95
:10925800002BC3D0B5E708893A6903FB002204A8AC
:10926800C04728B1B9F800300133A9F80030E4E765
:109278000446EAE7B9F800306A899A42A1D92989EF
:109288003A69581C03FB0122A9F800002946304618
:10929800C3E7D2F81080454655F8043B13B9FFF7E9
:1092A80045FFBBE7022914D104A9FFF765FF002891
:1092B80087D0D8F8003079682A4604A89847044629
:1092C80000283FF47EAF069B002BF2D1059B73600C
:1092D80084E701292BD04CB24CB105297FF471AF3A
:1092E80004220DEB0201FFF7FBFD042424E00DF13D
:1092F800040901340B2C3FF464AF0122494630467F
:10930800FFF7EEFD00283FF45CAF19F9013B002B95
:10931800EFDB0C4B049301ABCDE905340023079335
:109328002A46D8F80030796804A8984776E70822D2
:1093380001A9FFF7D5FD08240028EAD141E700BFBD
:1093480080DA0F00918D0F002DE9F04F91B004469F
:10935800002604A8CDE90266FFF7AEFCA3683BBB74
:10936800DDE9053404A89D78FFF7B7FC0028F7D19C
:1093780015F0300F03D1059B1B8803B10134002C75
:1093880000F0A9806309002202A9934240F09C8062
:1093980010AA02EB830304F01F04C4F120044FF069
:1093A800FF3053F8383CE040C31A584258410DE0AA
:1093B8000DF1030301AA0DF102012046FFF799FE02
:1093C80038B99DF80330002BCAD1002011B0BDE890
:1093D800F08F019904A8FFF7C0FC002850D1019B29
:1093E800B3427DD3059D059A937803F00F03082BAC
:1093F8007FD004A8FFF771FC059B9D42F3D14FF085
:10940800FF36019FB7426BD3089B9DF80290D4F8B2
:1094180008801D684FF0010AA368002D5DD09845AB
:109428009CD12B68D3F800B0BBF1000F08D04B4695
:109438003A4629462046D8470028C6D0AD68EBE70B
:10944800D3F808B0BBF800309F42F7D16A68594694
:109458000AA8FFF731FC6B680E9305F10C030F9314
:109468009BF8023003F0C003802B04BF2B1D0E9322
:109478000AAA85F80CA049462046FFF795FEDBE7C7
:10948800059B9B7813F0300F0FD1069A3F2A0CD812
:10949800510910AB03EB810102F01F020123934035
:1094A80051F8382C134341F8383CE5682DB104AB2A
:1094B8009DF8022001992046A84704AA9DF80210A9
:1094C8002046FFF771FE10E051F8225001357FF475
:1094D8007DAF013259E7012078E798457FF43EAF28
:1094E8009DF802102046FFF721FE00287FF436AFD2
:1094F8006BE7168885E770B50C4606461546114693
:109508002046FFF7DBFC2A4621463046BDE870407E
:10951800FFF71ABFF0B585B00C46CD686946074617
:109528001646FFF729FE68B1E06858B1A37803F042
:109538003003202B32462946684605D1FFF7DBFF6A
:10954800019B7B6005B0F0BDFFF7FEFEF8E7D3B5E1
:109558000C466946FFF73CFD80B1DDE900130027A2
:109568004A0801F0010642EAC37256EA07014FEAC7
:1095780053031CBFD243DB43C4E9002302B0D0BD70
:1095880037B50D4669461446FFF7E1FF68B12B89E8
:10959800082B0CD1DDE90001C4E90001DDE9002355
:1095A8008B4206BF82420120002003B030BD042B4D
:1095B80003D100982060C117F0E7022B04D1BDF950
:1095C8000000208000B2F6E7012B04D19DF90000CD
:1095D800207040B2EFE70020E7E713B504220C46FD
:1095E8000DEB0201FFF77CFC08B1019B236002B080
:1095F80010BD1146FFF7F1BF13B508220C466946A6
:10960800FFF76EFC18B1DDE90023C4E9002302B0BE
:1096180010BD1146FFF7F0BF38B5202204460830C8
:109628000D4604F036F92022A91804F1280004F0A8
:1096380030F9002038BD00002DE9F743184D994650
:10964800184B036004460F46284601219046FFF751
:109658006BF80646BFF35F8FF0B900F0DFF84346BA
:109668000A9ACDF8009007F10801204602F072FF2F
:10967800044600F0E1F8BFF35F8F2E6044B10A4959
:1096880048F2425248F216538C420CBF14461C460C
:10969800204603B0BDE8F08348F20454F8E700BF61
:1096A800E06B0020DD55AABB8408F0000D4B984202
:1096B80012D00AD8A8B10C4948F2015248F2165300
:1096C80088420CBF104618467047084B984206D08F
:1096D800074948F20352F1E748F20350704748F24D
:1096E800025070470102F0000002F0000202F00090
:1096F8000F02F00008B5083002F096FFBDE80840F8
:10970800FFF7D4BF13681F2B2DE9F04107468846A1
:1097180014461DD9114D01212846FFF705F80646C4
:10972800BFF35F8FB8B900F079F8414607F1080038
:1097380002F0ECFF074600F07FF8BFF35F8F384672
:109748002E60FFF7B3FF08B920232360BDE8F0813E
:1097580048F21450FAE748F20450F7E7E06B0020AB
:109768002DE9F04107460E46194801211446FEF737
:10977800DBFFBFF35F8F38BB00F050F8DFF8548091
:109788000837B4F5805F254628BF4FF48055314629
:109798002A46404604F07DF82A464146384602F0FB
:1097A8005DFF641B2E4468B9002CEAD100F044F830
:1097B800BFF35F8F064B00222046BDE8F0411A60D8
:1097C800FFF774BF0446F1E748F20450BDE8F081A2
:1097D800E06B0020E05B0020024B0020C3F800058E
:1097E800704700BF00A0025038B50A4B00251D6025
:1097F800BFF35F8F084C0123C4F8003502F0B6FFB1
:10980800C4F8005520B1052848F2035018BF0320BA
:1098180038BD00BFE06B002000A00250044B0122BD
:10982800C3F80025034B4FF480625A60704700BFAD
:1098380000A0025000E100E0044B0022C3F800251C
:10984800034B4FF48062C3F88420704700A0025095
:1098580000E100E0074B1B5C1F2B86BF03F01F03D2
:1098680005494FF0A041012202FA03F3C1F80C3573
:10987800704700BFC8DA0F0000030050074B1B5C9D
:109888001F2B86BF03F01F0305494FF0A04101229B
:1098980002FA03F3C1F80835704700BFC8DA0F00B1
:1098A8000003005008B50020FFF7E8FF0120FFF78C
:1098B800E5FF0220FFF7E2FF0320BDE80840FFF7BD
:1098C800DDBFC20710B504460CD54FF0A0430322F4
:1098D800C3F83427C3F83827C3F83C27C3F8402710
:1098E800FFF7E0FFA3070AD54FF0A0430C22C3F807
:1098F8002C27C3F83027C3F86027C3F8642710BDA6
:1099080010DF704711DF704713B5044609496846F0
:10991800FFF7BCF9019808B902B010BDD0E90031D1
:109928002046984718B16846FFF7BAF9F2E71120C0
:10993800F2E700BFD0DA0F0013B5044607496846BE
:10994800FFF7A4F9019B0BB902B010BD2046D3E97B
:10995800002190476846FFF7A3F9F3E7E8DA0F001C
:10996800064B9A6822B11A6822F480021A6070477E
:10997800034B4FF48002C3F880207047C859002079
:1099880000E100E00B4991F816335A09EC23134122
:10999800DB0706D5084B9A683AB94FF480030B6089
:1099A800704742F2020000F016BB1A6842F48002C7
:1099B8001A60704700E100E0C8590020F7B5194F58
:1099C8003C7864BB184E012520463570FFF79CFF94
:1099D800112821D02046FFF7AFFF144B8DF8034024
:1099E800186801900DF10300FEF79EFD104901A8CB
:1099F800FFF786FF0446B0FA80F0400938709DF8FA
:109A08000300FEF7B5FD3CB90A4B34701C70FFF734
:109A1800B9FF2846FFF790FF204603B0F0BD0824A1
:109A2800FAE700BFE56B0020E46B0020CCDA0F00FA
:109A3800D99F0F00E66B0020F7B5154F3B781BB395
:109A4800144E01203070FFF75FFF11284FF000051A
:109A58001CD00220FFF770FF0DF107008DF80750AA
:109A6800FEF762FDFFF74EFF04469DF807003D70C4
:109A7800FEF77EFD2CB93470FFF772FF0320FFF765
:109A88005BFF204603B0F0BD0824FAE72C46F8E750
:109A9800E56B0020E46B0020054B1B7833B1054BC8
:109AA8001B780BB1FFF7C8BFFFF788BF08207047C6
:109AB800E46B0020E56B0020014B1878704700BF6D
:109AC800E56B002007B508496846FFF7DFF8019BFA
:109AD80013B903B05DF804FBD3E90020904768464A
:109AE800FFF7DEF8F3E700BFDCDA0F00FFF7EABFA5
:109AF80060DF704769DF704761DF704730B5114D2F
:109B0800ADF5017D4FF4FA740DF1020103A8ADF82B
:109B18000240FFF7F1FF70B9294601A8FFF7B6F830
:109B2800029B002BF0D003A8D3E90021904701A89D
:109B3800FFF7B6F8F4E7052801D000F04CFA0DF568
:109B4800017D30BDF4DA0F00024B1B780BB1FFF733
:109B5800D5BF7047E76B002018B1034B03600020A6
:109B680070470E20704700BF68590020F0B50746BF
:109B780085B00D4600295DD02F4B0B600C220021CB
:109B880001A803F0AFFE012606232A68ADF80830C5
:109B980001A920208DF804708DF80660FFF7AAFF50
:109BA8000C22002101A803F09DFE00242A688DF8EC
:109BB800056001A94020ADF80640FFF79BFF0C2285
:109BC800214601A803F08EFEF7232A68ADF8063077
:109BD80001A923208DF80470FFF78CFF0C22214681
:109BE80001A803F07FFE2A688DF8046001A93046B9
:109BF800FFF780FF0C22214601A803F073FE4FF403
:109C0800B0632A68019301A9A120FFF773FF0C2212
:109C1800214601A803F066FE9DF804302A6864F323
:109C2800000301A9A0208DF80430FFF763FF204648
:109C380005B0F0BD0E20FBE76859002008B5FFF716
:109C480057FF10B9014B01221A7008BDE76B0020BD
:109C58004BDF70471FB50D4C01A8FFF7F9FF70B92E
:109C6800214602A8FFF712F8039B002BF4D00198B5
:109C7800D3E90021904702A8FFF712F8F4E7052876
:109C880001D000F0A8F904B010BD00BF00DB0F0040
:109C9800024AD2F80034002BFBD0704700E00140A4
:109CA8000A4908B50223C1F80435BFF36F8FBFF323
:109CB8004F8FC1F80805FFF7EBFF0023C1F8043503
:109CC800BFF36F8FBFF34F8F08BD00BF00E00140A7
:109CD80010B5094C0123C4F80435BFF36F8FBFF3E7
:109CE8004F8F0160FFF7D4FF0023C4F80435BFF39A
:109CF8006F8FBFF34F8F10BD00E001400E4B10B5C2
:109D08000124C3F80445BFF36F8FBFF34F8F01EBF6
:109D18008204401AA14208D1074B0022C3F8042547
:109D2800BFF36F8FBFF34F8F10BD431851F8042B4B
:109D38001A60FFF7ADFFEDE700E0014028B139B147
:109D48000023C1E900301846704748F210507047A8
:109D580048F21350704730B1036848F240508B42C4
:109D680008BF0020704748F21050704728B148F2E9
:109D78001150914208BF0020704748F210507047B8
:109D880070B506460C461D46FFF7D8FF50B9B379A3
:109D98004AB1AB420AD111462046FFF73DFC08B94B
:109DA800044B236070BD48F21050FBE748F2115095
:109DB800F8E700BF7052464D2DE9F0470C460546BE
:109DC8001149204616469846DDE90879FFF7C3FF92
:109DD800A0B963685A79494652003846FFF7C6FF6A
:109DE80060B94EB165B108974346324621462846C8
:109DF800BDE8F047FFF720BC48F21050BDE8F087F7
:109E080048F21550FAE700BF7052464D10B50446A7
:109E180038B149B141600B68984708B9044B2360D1
:109E280010BD48F20150FBE748F21050F8E700BFB8
:109E38006E524648F0B4134648B10768094EB74217
:109E48000AD161B12AB14368F0BC5B68184748F28F
:109E580001531846F0BC704748F20253F9E748F23C
:109E68001053F6E76E524648F0B460B107680C4EDE
:109E7800B7420CD171B143681568DC68A5420CD3B0
:109E88009B68F0BC184748F20150F0BC704748F294
:109E98000250FAE748F21350F7E748F21450F4E793
:109EA8006E5246482DE9F041044617469846DDE9CA
:109EB8000656FFF7ABFF60B9424639462046FFF722
:109EC800B9FF30B9324629462046BDE8F041FFF7D0
:109ED800CBBFBDE8F0810000F8B50A4F0A4C0B4D26
:109EE800E41B0121E40829700026A64203D10223BD
:109EF8002B700020F8BD57F8363098470028F9D164
:109F08000136F2E7B4D90F00BCD90F00E86B002086
:109F180001390144814200D2704703780A7800F879
:109F2800012B01F80139F5E7013A0244013982426F
:109F380000D2704711F8013F02F80139F7E770B510
:109F480016460D46FFF7F0FF3246A9193044BDE822
:109F58007040FFF7E9BF38B50D460446FFF7D8FF54
:109F680029466019BDE83840FFF7D2BFBFF34F8FCD
:109F78000549064BCA6802F4E0621343CB60BFF39D
:109F88004F8F00BFFDE700BF00ED00E00400FA05B9
:109F980008B507281BD8DFE800F004121A1A1A04BB
:109FA8001A040120FFF78DFC0020FFF753FC012065
:109FB800FFF750FC0220BDE80840FFF75FBC012016
:109FC800FFF75CFC0220BDE80840FFF743BC08BD72
:109FD80008B5FFF7CBFF08B5FFF7C8FF08B500F0D5
:109FE80021FC002210464FF4805100F0B3F90246DC
:109FF80008B1FFF7BBFF0548C0F57E2100F0AAF9BC
:10A008000028F6D1024800F0CDF8F2E700800F00F2
:10A01800999F0F0038B1054B0360054B436001233E
:10A028000372002070470E20704700BF63A00F0026
:10A038003DA00F0069B10B78022B0CD1022804D087
:10A0480003280CBF11200820704703230B70002041
:10A0580070470E2070470820704710B50C4681B134
:10A068000B78042B04D8DFE803F00E05030E0E006E
:10A07800112010BD01F042FC0028FAD10223237000
:10A08800F7E70E20F5E70820F3E7000070B5144B5A
:10A09800144A0C21D21AB2FBF1F2816911F8025C60
:10A0A800044635B900690021914205D10123236096
:10A0B8000EE04FF0FF30F6E71E68AE420CD1461CAA
:10A0C80007D19D68D4E90001D4E90223A84720609C
:10A0D80070BD5E688642F4D001310C33E4E700BFFE
:10A0E800C4D90F00D0D90F001EF0040F0CBFEFF336
:10A0F8000880EFF30980FFF7C9BF00BF007800F0C0
:10A108000100704741DF7047014B01221A70704708
:10A118000C700020BFF34F8F0549064BCA6802F444
:10A12800E0621343CB60BFF34F8F00BFFDE700BF72
:10A1380000ED00E00400FA05024B034800221A7003
:10A1480001F0B6BB0C7000201DA10F00831E10B5D6
:10A158000446052B09D8DFE803F0160303080F0FA0
:10A168000B494FF4701000F03BFA0A4B1B686BB1B7
:10A178002046BDE810401847074B084800221A70CF
:10A1880001F096FBF1E701F0DBFAEEE710BD00BF46
:10A1980041A10F00107000200C7000201DA10F00BD
:10A1A8000020704738B5554B554A18604FF0A0430A
:10A1B8000020C3F8642701F091FB044648B900F079
:10A1C800DBFA012800F0918041B221B1022800F0A9
:10A1D8009280032038BD4FF08043D3F8004414F434
:10A1E800803435D04FF48032C3F800240C46454DF6
:10A1F8002B6A012B3FD04FF4701400F053FB424AF6
:10A2080020211820FEF7D4F808B1FFF7E4FE3F4BF1
:10A218001A6802F0F802B02A06D11A68D20742BFBB
:10A228001A6802F04E021A60FFF7BAFF0028D0D170
:10A238002046374900F0D4F9364800F061FC002880
:10A24800C7D100F055FBFEF73DF9FFF75BFFF8E7D4
:10A25800D3F8202502F0F802A82A0AD1D3F820253D
:10A26800D00706D5D3F8202502F05602C3F82025DA
:10A27800BDE70124BBE743F204031A68264B9A4260
:10A2880009D001F0C7FBAA69014694B1234801F03F
:10A29800B3FE90B9AFE76A6B1CB995F86032012B31
:10A2A800EFD04FF480511E4801F0A6FE0028E8D1F7
:10A2B800A1E795F8A132012BE8D14FF0A043D3F8DC
:10A2C8001035990197D5114B1B6813F0B10F92D136
:10A2D80001F04CFB00287FF47CAF124B1870124839
:10A2E80001F0E6FA00F024F873E70E4B0F481C70F3
:10A2F80001F0DEFA6DE74FF4A0247EE7107000202D
:10A308000C000300E0870020EC6B00201C050040D7
:10A3180041A10F0055A10F00DBE5B151818A002052
:10A32800408A00200C70002011A10F001DA10F0011
:10A3380008B5074B4FF0FF32C3F88020C3F88021DF
:10A3480001F024F84FF48050BDE8084000F03EB812
:10A3580000E100E0F0B50646C1F30B0078BBB6F5A6
:10A368007F2F2CD8174CDFF860C02368002A14BF51
:10A37800062702270246072B05D902B123600420CD
:10A38800F0BD0122F7E71D0105F1804202F5F03228
:10A398006544C2F80068C2F80418C5F80878D2F80D
:10A3A80000E8764503F10103EBD1D2F80428914285
:10A3B800E7D1D5F808289742E3D12360E0E70720E2
:10A3C800DEE700BF1470002000E0014010B504462D
:10A3D80017480022C0F57F21FFF7BCFF08B1FFF73F
:10A3E800FAFD01F017FB134B996901F6FF7121F48F
:10A3F8007F6121F00F01002201441046FFF7AAFFF8
:10A4080008B1FFF7E8FDEFF305830023D4E9001254
:10A4180083F3148883F3108883F3118883F31388F4
:10A4280081F308884FF0FF339E46104710BD00BFE8
:10A4380000800F00E087002037B56FF07F42154C91
:10A44800057BD4F804358A4228BF0A46891A134482
:10A458004A1E942A23F07F4305F5A8729BBF963BBA
:10A4680096314160416044F822300B4B4FF4F8605C
:10A4780043F001039847094BAA00134400221A60CD
:10A488001B680193019B4FF48033AB40C4F804333D
:10A4980003B030BD0040024050DB0F004041024095
:10A4A80018490A7884B0002A29D14FF08043A020A7
:10A4B800D3F81834DB035EBF134B01221A60134A2A
:10A4C8000023136012680392039A114A13601268FA
:10A4D8000292029A0F4A136012680192019A0E4A78
:10A4E80082F82403102050600C4A0D48C2F8083541
:10A4F8000123036002201360C2F804030B7004B048
:10A50800704700BF1C700020080000400041024056
:10A51800404102404441024000E100E00040024066
:10A5280008400240284B1A6813B542B127490A6807
:10A5380001320A6000221A601B680093009B244BBA
:10A548001A68A2B100221A6022481B68027B019394
:10A55800019B4FF4803393401F4AC2F80833416887
:10A56800044601BB8168D9B9236803B198471B4BDE
:10A578001A6832B300221A6016481B68027F0193DA
:10A58800019B4FF480339340134AC2F80833416962
:10A59800044659B1103002B0BDE81040FFF74CBF77
:10A5A800FFF74AFFE0E7FFF747FFE0E7816911B1EE
:10A5B8001030FFF741FF23691BB102B0BDE810401E
:10A5C800184702B010BD00BF0441024018700020B7
:10A5D800404102407C590020004002404441024072
:10A5E80070B50B4B1C68227B4FF480339340094AAB
:10A5F8000E46C2F80833054640B1FFF751FF266002
:10A6080029462046BDE87040FFF716BF70BD00BF61
:10A618009C5900200040024070B5074B1C68054655
:10A628000E46A060FFF73CFF266029462046BDE89D
:10A638007040FFF701BF00BFA0590020014B012265
:10A648001A7070471D70002038B50F4BDA6A5D6AC2
:10A658009C6CAC2A10D15B6B1C44ED1A2A4621462F
:10A668000A4803F0DBF868B100F042F929462046B1
:10A67800BDE8384000F06CBE002CEFD101F0E0F9E5
:10A688000446EBE738BD00BFE087002000800F00DC
:10A698002DE9F74F80468946A9EB0804240B02F6FA
:10A6A800FF76154600F0FEF8082C28BF082423037F
:10A6B800DFF860B00193360B0DB92B4626E0B442A3
:10A6C8002CBFB246A2464FF00002514640462CBF6E
:10A6D8002F46019F00F024FE0346B8B9FA1C22F069
:10A6E80003024946404600F00DFE034670B9DBF808
:10A6F8003030ED1BB844B9441F44CBF8307001F03A
:10A70800DDF8A6EB0A0603460028D5D0184603B0A4
:10A71800BDE8F08FE087002010B501F0A1F9154AD7
:10A7280042F20403916CCC5803F1A34303F5471399
:10A7380003F2D7539C4218D1D2E90C32934216D077
:10A74800884204D10020BDE8104001F0B7B8D21A01
:10A7580002F6FF7222F47F6222F00F0219441844B5
:10A76800FFF796FF0028EDD010BD0320FCE700207E
:10A77800FAE700BFE087002070B5264CE36AA52BF6
:10A7880033D003D8012B0BD0002070BDAA2B30D0BA
:10A79800AC2BF9D1FFF7C0FF48BBFFF755FF26E008
:10A7A800A66C656A01F036F9864229D101F032F9C2
:10A7B80000222946FDF7F2FEA36A984202BF012350
:10A7C800C4E90703A5610025134801F017F9134BE5
:10A7D800134800221A7001F071F868B975B1236A3C
:10A7E800012B14BF01200220CFE7FFF795FF0125B9
:10A7F800EAE7FFF729FFE6E70320C6E70120C4E7F9
:10A80800236BEA1AF1181844FFF742FF0028DAD13F
:10A81800CCE700BFE0870020048800201D700020DE
:10A8280045A60F0040F6F87008B50368013302D159
:10A838000749FFF74DFA40F6FC700368013305D16C
:10A848004FF47E21BDE80840FFF742BA08BD00BFBB
:10A8580000800F000A4AD2F800347BB1094800236F
:10A86800D2F80815D940C90748BF03F5C07103F1EC
:10A87800010348BF42F82100072BF1D1704700BF00
:10A88800000001403546526EFFF7E4BF044B00223A
:10A8980082B01A601B680193019B02B0704700BF29
:10A8A8000001014038B50E4C2278BAB90D4BD3F8E7
:10A8B80000248AB1D3F80455FFF7CCFF40F61650B0
:10A8C800A842B8BF28460849A0F54860FFF7A4FE8B
:10A8D800064B4FF480321A600123237038BD00BF45
:10A8E8001E7000200000014091A80F0000E100E068
:10A8F800034BD3F800340BB1FFF7ACBF704700BF70
:10A9080000000140054B1B68082B01BF044B186869
:10A91800B0FA80F0400918BF0020704730010010DD
:10A928003401001008B54FF080430022C3F80C2111
:10A93800C3F81021C3F838254FF0805203F540437F
:10A94800D2F80414C3F82015D2F80814C3F8241553
:10A95800D2F80C14C3F82815D2F81014C3F82C1523
:10A96800D2F81414C3F83015D2F81814C3F83415F3
:10A97800D2F81C14C3F84015D2F82014C3F84415B3
:10A98800D2F82414C3F84815D2F82814C3F84C1583
:10A99800D2F82C14C3F85015D2F83014C3F8541553
:10A9A800D2F83414C3F86015D2F83814C3F8641513
:10A9B800D2F83C14C3F86815D2F84014C3F86C15E3
:10A9C800D2F84424C3F87025FFF79CFF10B1384B28
:10A9D800384A1A60FFF796FF18B1374BFB22C3F8C5
:10A9E8001825FFF78FFF48B13449354B0A681B68B3
:10A9F80022F00F0203F00F0313430B60FFF782FFEF
:10AA080018B1304B4FF400721A604FF08043D3F8FE
:10AA18000024D20744BF6FF00102C3F800242A4A79
:10AA2800D2F8883043F47003C2F88830BFF34F8FF0
:10AA3800BFF36F8F4FF01023D3F80022002A03DBF7
:10AA4800D3F80432002B2FDA204B0122C3F8042557
:10AA5800D3F80024002AFBD04FF010221221C2F8AC
:10AA68000012D3F80024002AFBD04FF01023122242
:10AA7800C3F80422154B1A46D3F800140029FBD05A
:10AA88000021C3F80415D2F80034002BFBD0BFF323
:10AA98004F8F0D490E4BCA6802F4E0621343CB6036
:10AAA800BFF34F8F00BFFDE70A4B0B4A1A6008BD82
:10AAB8008C5600404881030000F00040E40E00403E
:10AAC800580200104096024000ED00E000E001400E
:10AAD8000400FA05A45900200090D003831F012B1D
:10AAE80010B5044602D8002000F070FF034B1B6825
:10AAF8001BB12046BDE81040184710BD207000204B
:10AB080008B5074B18600020FFF7E8FF054800F07C
:10AB180045FF20B90348BDE8084000F0C5BD08BDA1
:10AB280020700020E5AA0F006CDF70476DDF7047CA
:10AB380072DF704773DF704774DF704775DF7047E7
:10AB480076DF70477ADF70477CDF70477DDF7047BC
:10AB58007FDF704786DF70478FDF704790DF704771
:10AB6800A8DF7047AADF7047ADDF7047AEDF7047D8
:10AB7800B0DF7047B1DF7047B5DF704762DF7047FD
:10AB880066DF704713DF70477FB50023CDF80A30C2
:10AB9800ADF80E300A4BADF806109B89ADF80830B9
:10ABA80001238DF80A300DF10603CDE90430054B79
:10ABB80002A91888FFF7DAFF07B05DF804FB00BFA9
:10ABC8008E800020AA59002001460148FDF70DBEDD
:10ABD800D0D90F0070B518228CB000210DEB0200FF
:10ABE80002F080FE2823089316231F4CADF8063088
:10ABF8000023CDF80E30CDF81230ADF81630022310
:10AC0800092606222370237159230125A270637136
:10AC18000322FE230DF10601A0198DF818508DF8B6
:10AC28002D500294ADF80C606570E270A371FFF7C7
:10AC38008DFFB8B9BDF8063026725A19E271BDF811
:10AC48000C200A4C134402A906AA2046ADF80C3081
:10AC5800FFF76EFF30B92078FFF76EFF294620789E
:10AC6800FFF768FF0CB070BDA2800020A859002033
:10AC78002DE9F04103881F2B8AB0044600F0C380F9
:10AC88002AD8112B57D007D8012B00F0CD80102BD4
:10AC980043D00AB0BDE8F081142B00F043811A2B91
:10ACA80034D0132BF5D10023A24CADF81230022377
:10ACB800ADF8103004AA02AB42F6052120880593AE
:10ACC800FFF752FF08B1FFF786F900231A468521DE
:10ACD8002088FFF73DFF86E0512B00F0AB800ED8AF
:10ACE800232B00F08880502B39D0212BD1D1002381
:10ACF80004A98088ADF81030FFF72EFF73E0552BBC
:10AD080059D0562B00F08680522BC2D100231A4608
:10AD18001946A088FFF72EFF65E0864B82881A80C7
:10AD2800854A12681C460AB1012090478349208849
:10AD3800FFF704FFADE77F4B4FF6FF721A80804B99
:10AD48001B685A0704D4FFF745FF08B1FFF743F91A
:10AD5800794B1B68002B9CD00220984799E7794EC5
:10AD6800C288B3889A4294D17748FDF71AFD054600
:10AD780000288ED0228A04F1120102F08AFD1822DE
:10AD8800002104A802F0AEFD08238DF810306F4BA7
:10AD980006936F4B0596CDE9073504A8238AADF8CD
:10ADA800243000F077FC00283FF473AF294666484A
:10ADB800FDF71BFD6DE7C188F6291AD8CB1E9B0746
:10ADC8000DD0CB1F9BB2013B5A4202F0030203F0A5
:10ADD800030301F1FF3158BF5342C91A89B2554BD9
:10ADE8001888FFF7C9FE00283FF453AFFFF7F3F8C0
:10ADF8004FE7F721F3E7002204A98088CDE9042270
:10AE0800FFF7ACFEEFE74B4B00F108011888FFF79E
:10AE180095FEE8E78379002B7FF43BAF454B132180
:10AE28001888FFF78DFEDEE7424B00211888FFF7F0
:10AE3800A7FED8E78379002B3FF42BAF022B7FF4D2
:10AE480028AF404900898A8990420E467FF421AF95
:10AE5800A27B012A7FF41DAF00220120CDE9042244
:10AE68008DF81600208AADF81800324D608AADF8CA
:10AE78001A0004F114000790ADF80A2001AF02AAE5
:10AE8800098A28888DF81030ADF808300397FFF745
:10AE98006BFEA84660B93846FFF730F940B940F272
:10AEA800FD1304A92888ADF81430FFF761FEF0E619
:10AEB800002304A9B8F80000ADF81430FFF758FED5
:10AEC800014600287FF4E5AE182204A802F00AFD26
:10AED800237D1E4A8DF81030022B0596069218D055
:10AEE800062B10D0012B10D11A4B1A881A4B1A8036
:10AEF800637DD4F816200893012B099205D11748D1
:10AF080000F064FD01E0637D089304A800F0C2FB33
:10AF1800BFE6A27D637D43EA02230E4A13800E4AF0
:10AF28001380F2E700231A4619468088FFF712FEBD
:10AF380059E700BFAA590020C880002036DD0F005D
:10AF4800C48000208E800020D0D90F00D5AF0F001C
:10AF5800D1AB0F00CC800020CE800020BCD90F00E0
:10AF6800154A38B51368044613F0010022D0134976
:10AF78008C421ED0124908884FF6FF71884213D0C0
:10AF880043F0040313211360FFF7DAFD90B90D4D68
:10AF9800C82445F001054FF47A40A847013CFAD18E
:10AFA800BDE83840FEF748BD074B1878FFF7C4FDE9
:10AFB800F6E7002038BD00BFC4800020BCD90F00D0
:10AFC800AA59002030DD0F00A859002010B504460A
:10AFD80086B01122002101A802F084FC2378082BF6
:10AFE8000BD1374A374913880988013B9BB2138034
:10AFF800D9B1D3B9032311802370627823788DF8EF
:10B0080005306021012A8DF804108DF806200ED035
:10B018000B2A12D100F092F98DF80700002000F0F9
:10B0280087F9042101A8FFF7AFFD06B010BD062B74
:10B0380005D0082B29D0032B27D00321F2E7E1689C
:10B048008DF80710D4E90123080A8DF80800080CC8
:10B05800090E8DF80A10110A8DF80B208DF80C10C6
:10B06800110C120E8DF80E201A0A8DF80F308DF87B
:10B0780010201A0C1B0E8DF80D108DF809008DF894
:10B0880011208DF812300F21CCE7D4E90123110AE1
:10B098008DF807208DF80810110C120E8DF80A2073
:10B0A8001A0A8DF80B308DF80C201A0C1B0E8DF82F
:10B0B80009108DF80D208DF80E300B21B2E700BF76
:10B0C800CE800020CC8000202DE9F043444B95B081
:10B0D80005464FF6FF721A8001204FF659632A463B
:10B0E80002A98DF80A00ADF80830FFF739FD0446CB
:10B0F800002871D13B4B04AA03F1100716461868C3
:10B108005968144603C40833BB422246F7D1A91C28
:10B118003046FFF733FD044600285DD101461C2266
:10B128000DA802F0DFFB9DF83430ADF8044043F081
:10B1380004038DF834300223ADF80C30AB788DF869
:10B148000E3004F0F80343F003038DF80630F423BF
:10B15800CDE90A44ADF82C302B4601AE4FF0110969
:10B1680003AF33F8040B0C9408AA0DA98DF80590C9
:10B17800CDE90876FFF7F6FCA046044660BB014619
:10B188001C220DA802F0AEFB9DF83430ADF8044047
:10B1980023F0180343F018038DF834300123ADF879
:10B1A8000C30AB788DF80E301723CDE90A44ADF892
:10B1B8002C302B4608F0E80848F0130833F80C0B3D
:10B1C8000C9408AA0DA98DF805908DF80680CDE994
:10B1D8000876FFF7C7FC0446204615B0BDE8F083A3
:10B1E800AA5900200CDD0F0030B5334C236813F04A
:10B1F800010585B05DD1314B18603148FDF7BAFAC9
:10B20800029500F0B6F800284CD12E48FFF7BAFC9A
:10B21800002847D1FEF7D2FB002843D102A8FEF749
:10B228009BFC00283ED102A90120FEF79FFC0028C4
:10B2380038D102A8FEF702FD002833D100F086FBC2
:10B2480030B1214800F076FB236843F00203236005
:10B25800112302A88DF80430FFF768FC10BB9DF895
:10B26800093002A801338DF80930FFF75DFCC8B931
:10B2780023689B0718D514498869043182B201A84C
:10B28800FFF762FC70B91148FFF75CFC50B9104831
:10B29800FFF71AFF30B9FFF79DFC18B9236843F090
:10B2A8000103236005B030BD0A4802F04EFB09498E
:10B2B800E4E70020F6E700BFC4800020C880002033
:10B2C800D0D90F0000800F002470002036DD0F0059
:10B2D8008E8000201CDD0F0043690BB1C068184741
:10B2E800704700000449054B0022904208BF1946E8
:10B2F8000348FDF794BA00BF60DA0F0034DA0F0094
:10B308006859002007B5009313460A4601460348CA
:10B31800FDF789FA03B05DF804FB00BF6859002007
:10B3280013460A4601460148FDF784BA68590020C9
:10B33800014B18700B207047D0800020024B002270
:10B3480018781A70704700BFD080002018DF704747
:10B3580030B585B0054610220C466846002102F03B
:10B36800C1FAA408684601950294FFF7EFFF05B0FB
:10B3780030BD1FB50023CDE901330393684602238E
:10B388000093FFF7E3FF05B05DF804FB4FF00053AF
:10B398004FF480521A60002070470000014B0620CD
:10B3A8001B681847DC8000200A2803D90B38C0B274
:10B3B800FFF7BEBF7047000010B5044686B00020F6
:10B3C800FDF740FA014630B1164A18212046FDF72C
:10B3D80013F806B010BD1822684602F083FA042359
:10B3E8008DF80030104A114B116D1B68994211D12C
:10B3F8000F4B186800F05EFF8DF80100FFF7D4FFCF
:10B40800D4E901138DF8010068469847094800F00F
:10B4180055FADEE701238DF801306846D4E90113B7
:10B428009847D6E7C1B30F00E0870020D4800020FA
:10B43800D8800020A5B30F00F0B5044687B01622C7
:10B4480000210DF1020002F04DFA23788DF800304A
:10B4580001220C2B8DF8012000F210819A4012F481
:10B46800AD7F15D1510706D4D30440F10781844B31
:10B4780007201B689847D4E90113684698479DF848
:10B488000130012B00F0EF807D4B05201B68E9E0BF
:10B49800062B7C4A01D0012B01D12169117011784A
:10B4A800012904D0022954D00023137096E0013BEF
:10B4B800072BE0D801A252F823F000BFE5B40F0033
:10B4C8007FB40F004FB50F0023B50F007FB40F00F6
:10B4D80049B50F007FB40F00FDB40F00684B03207F
:10B4E8001B689847606900F0D5FCFFF75DFF8DF891
:10B4F8000100C0E7A18A206900F0E4FCFFF754FFCF
:10B50800614B8DF80100DA6B1B6C0293E3680192C2
:10B51800002BB0D020699847ADE75C495C4800F043
:10B528001FFDFFF741FF01288DF80100A3D100207E
:10B5380000F0C4F900289ED00A238DF801309AE75C
:10B548004FF400730393504BDA6B1B6C0192029318
:10B5580091E7013B072B8ED801A252F823F000BFD8
:10B5680089B50F007FB40F003FB60F0049B60F0032
:10B578007FB40F0073B60F007FB40F00E9B50F005A
:10B5880000F0C0FC08B90823D7E762690AB90323A9
:10B59800D3E7C2F30B0333B13B4B3C495B6D0968FE
:10B5A80013448B42F3D1B2F5805F01D90423C4E779
:10B5B800354B3649586D096815188D42E3D85A64D9
:10B5C800DA6C9A6418651863314B1B6800220121F4
:10B5D8001844FFF7A5FE00283FF44DAF0523ACE75C
:10B5E80000F090FC0028CED0274DA18AD5E914326E
:10B5F8009B1A6A6C0B449342C9D8254B2E6B1B6867
:10B60800206905F148021E44FCF7C8FFE368A28AD6
:10B61800216907463046FFF775FE08B1E36879E708
:10B62800A38A2A6BAF641A442A632A6D02971344CB
:10B638002B6501931FE7144B9A6C02921B6DF8E778
:10B64800114BD3E91402596C821A8A429BD19A6C25
:10B658005865002120465964DA64FFF7ADFE084BAF
:10B668001B680420984707B0F0BD074B9A6C1B6D08
:10B6780001934FF4805302920393FCE602235CE7A4
:10B68800DC800020AC590020E0870020D480002016
:10B69800D880002083681BB1024A1821FCF7ACBE91
:10B6A8000720704741B40F0038B50546C0B10120E6
:10B6B800FFF718FE044648B900F0DEFB00F022FC54
:10B6C80030B9084B00201D60FFF732FE204638BD18
:10B6D8000549064800F044FC0128F2D00324F5E7A8
:10B6E8000724F3E7DC800020D4800020D8800020E5
:10B6F8002DE9F04115464FF46072064688461F460C
:10B7080002F08CF828B915B90020BDE8F081A847E7
:10B71800FAE7002201213046FFF702FE70B94FF424
:10B7280060724146384602F0B4F82B464FF4607216
:10B7380039463046FFF7E6FD0028E5D00320E4E768
:10B748002DE9F0413D4C236801335CD0002258219B
:10B75800201DFCF723FFD4F80080A8EB0002D2F1EB
:10B76800000848EB0208364D364E2F683B68013317
:10B778005ED000225821381DFCF710FF3B68834239
:10B7880044D17C68012C0AD00022C32107F5187027
:10B79800FCF704FFD7F85C42231A5C425C41B8F11D
:10B7A800000F35D04FF460722449264802F071F832
:10B7B80064B1296824485422043102F06AF82968DF
:10B7C80022484FF432725C3102F063F87468012C3D
:10B7D8002CD11F49402201F5E47002F05AF81D49A6
:10B7E8001C2201F5E47002F054F81B4986F8A142C6
:10B7F8000023042201F2862086F8603286F8E232BD
:10B8080002F047F810E04FF00008ACE70024C6E764
:10B8180024B14FF4607229680A48D5E74FF4607282
:10B828000021084802F05EF802237360BDE8F08149
:10B83800B8F1000FF2D00024B4E700BF00F00F0009
:10B84800B0590020E0870020E48700203C880020D1
:10B858003C8900207C890020FC87002070B50C4CB6
:10B86800054600225821201DFCF798FE0022206082
:10B87800C32104F51870FCF791FE2A46C4F85C024F
:10B888002146044B0448BDE87040FFF731BF00BFB4
:10B89800E0870020E080002000F00F000246024808
:10B8A800024B0068FFF724BFB059002060840020D5
:10B8B8000149FFF7F3BF00BF00F00F0038B5054698
:10B8C8000020FFF7CBFF044618B903492846FFF7C5
:10B8D800E5FF204638BD00BFE087002010B5FFF720
:10B8E80001FD044628B9FFF72BFF2046FFF7E6FFC6
:10B8F80000B1032010BD29DF7047000038B50C4D9A
:10B908000446D5F8643378B101330FD100221821E9
:10B918000430FCF743FE21462060072205F55970E4
:10B92800BDE83840FFF7E7BF0E2038BD0820FCE728
:10B9380000F00F0008B528B11C22034901F0A9FF47
:10B94800002008BD0E20FCE764F30F0010B5064C7C
:10B95800002218212046FCF721FE54F8043C1B1A4B
:10B968005842584110BD00BF68F30F0010B50A4C8B
:10B97800D4F82433D4F864231340013309D04FF4A6
:10B988007F20FEF78DF9C92221464FF47F20FEF76C
:10B99800B5F9002010BD00BFE0870020F8B5094EBA
:10B9A800094CA41B0746E4080025A54201D1002044
:10B9B800F8BD56F83530384698470028F8D1013593
:10B9C800F3E700BFBCD90F00C4D90F00F8B5094E82
:10B9D800094CA41B0746E40800250436A54201D1FA
:10B9E8000020F8BD56F83530384698470028F8D179
:10B9F8000135F3E7BCD90F00C4D90F0008B50C22F4
:10BA0800002101F06FFF024B00221A6308BD00BF3E
:10BA1800E087002043F204031A68084B9A4201BFEA
:10BA280043F20803186800F6FF7020F47F600CBF2B
:10BA380020F00F004FF48050704700BFDBE5B15194
:10BA480008B5FFF7E7FF054B9B69184400F6FF7040
:10BA580020F47F6020F00F0008BD00BFE0870020C1
:10BA68004FF48050704700002DE9F84F1F46224BD5
:10BA7800DFF890A01E6A044615464FF0000843F20E
:10BA880004095FFA88FBBBF1010F14D0BBF1020F68
:10BA98001DD0FFF7D5FF65B1721E53425341174AB7
:10BAA800101AA04200D3F1B1ABB1A0421BD20420BE
:10BAB80020E02B46F3E7FFF7ADFF37B9D9F80030A0
:10BAC800B3EB0A0318BF0123E9E75B46E7E7012365
:10BAD8004FF48050E3E708F10108B8F1030FD0D123
:10BAE800A042E4D302E0BBF1000F02D00448FFF704
:10BAF80085FF0020BDE8F88FE087002000500F0088
:10BB0800F8870020DBE5B15190F8552012F0FB0FC3
:10BB180007D190F8643023B1836ECBB10B6001205C
:10BB2800704712F0010303D090F8563003B1836DCB
:10BB38009207F2D590F85C20002AEED0054A006EF4
:10BB4800C2F57E22904201D80344E6E704207047FC
:10BB58000F20704700800F0010B5084C4FF400729A
:10BB6800FF21204601F0BEFE20220021A4F124007E
:10BB780001F0B8FE002344F82C3C10BD3C8800209E
:10BB88005B68DA680D4B9A4230B508D10C490A68EF
:10BB980012B90C4A14681CB10B4B00221A7030BD44
:10BBA800D0E901341C4413F9015B002DA4EB030018
:10BBB800F9DB0B601060044B0122EFE7E8DB0F00B4
:10BBC800888B0020848B00208C8B002043F2040398
:10BBD80010B5194A1C68944201462BD042F204035E
:10BBE800C358981A434243419442184621D142F21D
:10BBF8000403CB58A3421CD14FF4405301F5005223
:10BC08001B781278142B81BF43F214030B481B686E
:10BC1800B3FBF0F398BF0023142A89BF42F2140241
:10BC280000208858054A88BFB0FBF2F0181A18BFE0
:10BC3800012010BD0023D7E7DBE5B15140420F00DA
:10BC48002DE9FF472F49304D8A6B304C304FDFF8D4
:10BC5800D490DFF8D4A06E465C313046FDF7AEF9DB
:10BC680096E80F0085E80F0000212A4B39704FF441
:10BC780047722046C9F80010CAF80010EB6001F0BE
:10BC880031FE224624492846FDF735FC20B9002715
:10BC9800384604B0BDE8F0873F78002FF7D094F815
:10BCA8006C3194F800801BB3B8F1000FEFD194F811
:10BCB8007231002BEBD0DAF80020D9F800103046AA
:10BCC800FDF77CF996E80F0085E80F004FF4B27293
:10BCD800414604F5BA7001F005FE04F5BA720F4941
:10BCE8002846FDF708FC0028D1D004F5BA7406E010
:10BCF800B8F1000FCBD0A379002BC8D00834084B7B
:10BD08001C60C5E7E0870020AC8E0020908B0020E7
:10BD18008C8B002089BB0F009CDC0F00E8DB0F0038
:10BD2800688F0020888B0020848B002000B591B09C
:10BD3800FEF7D2F8684620220749FEF700F96A465E
:10BD4800402306490648FEF71BF8064B01221A70E5
:10BD580011B05DF804FB00BF0CDB0F00BC8E0020A7
:10BD6800A4DA0F00608B00202DE9F041CCB003ACC1
:10BD780007468846164600217C221D4604A8202333
:10BD8800236001F0AFFDA422002123A801F0AAFD41
:10BD9800194B1B780BB9FFF7C9FFB8F1000F25D075
:10BDA80037BB164F01940097529B15492A4604A8A1
:10BDB800FEF778F8F0B9402E1CD1124D32464146B4
:10BDC800284601F066FD20212846FEF7C4F8CDE993
:10BDD80000563A4623680C4923A8FDF7EDFF0028D2
:10BDE8000CBF012005204CB0BDE8F0811320FAE714
:10BDF8001620F8E70A20F6E7608B0020048F002061
:10BE0800B0DA0F00248F0020BC8E0020F0B5ABB054
:10BE180004460E4617461D467C22202300210BA807
:10BE2800029301F05FFD114B1B780BB9FFF77EFF02
:10BE38002DB12146202203A8FEF776F803AC02AB09
:10BE48000B4D019300953B4632460A490BA8FEF775
:10BE580029F848B920222146284601F0DFFCB0FA2B
:10BE680080F040092BB0F0BD0020FBE7608B00207C
:10BE7800618B0020B0DA0F0008B5044B986B08B14D
:10BE8800FFF7DEFE024B187008BD00BFE0870020F8
:10BE9800648F002010B5044658B1B0F5007F0AD869
:10BEA800064B00221A70FFF757FE054B01209C63D2
:10BEB80010BD0320FCE70420FAE700BF648F0020D0
:10BEC800E087002070B50E4C0646E06BA36B421865
:10BED8009A420D4611D85C300A462044314601F09A
:10BEE800D8FCE36B04F140022B4429463046E36357
:10BEF800FCF754FB2064012070BD0320FCE700BF61
:10BF0800E0870020014B1878704700BF648F00203D
:10BF180013B5104C94F86C21B2B194F8D802B4F867
:10BF2800DA2204F5377104F5B8740B4B1B680093DB
:10BF38000A4B1B68FFF718FF012809D1201D02B022
:10BF4800BDE8104000F0BAB9114610460434ECE7D9
:10BF580002B010BD908B0020848B0020888B0020BD
:10BF6800204BD3E90E329A422DE9F04107460D469F
:10BF780033D1DFF8788098F800604EB1FFF760FDA4
:10BF8800194B386029461868BDE8F041FFF7BCBD79
:10BF9800FFF756FE18B3FFF7BBFF01283E600446C3
:10BFA8002E6017D1104B29461868FFF7ADFD012800
:10BFB80004460FD10346324631462868FFF754FD40
:10BFC80038B9FFF73DFD88F8004038602046BDE8E5
:10BFD800F0810424FFF7C0FDF8E70824F6E70524FC
:10BFE800F4E700BFE0870020688F0020648F0020FE
:10BFF80001237230FFF70ABF037837B50D461146A3
:10C00800032B03D8DFE803F022051019002003B042
:10C0180030BDD0F8014000222846FCF7BFFA844220
:10C0280014BF00200120F2E70A4600232946013008
:10C0380003B0BDE83040FFF7E9BE00912B46411C34
:10C0480040220020FFF790FE0128E9E70120DEE703
:10C058002DE9F041A2B004460D46174600217C2286
:10C06800984603A8202302939DF8A06001F03AFCAB
:10C0780041220021204601F035FCB5F894300BB17F
:10C0880095F896602670032E1ED8DFE806F00902A0
:10C09800111F002241463846FCF780FAC4F8010017
:10C0A800424639462046FFF7A7FF22B0BDE8F08197
:10C0B80002AB0193631C00933A464346074903A821
:10C0C800FDF7F0FE0028EBD00020EEE7B5F8982049
:10C0D80005F19A01601C01F0DCFBE1E7B0DA0F0022
:10C0E8002DE9F0476D4B1D68A4B004460F469046F5
:10C0F8000A4601462846FFF77BFF002800F0CC805F
:10C1080095F855601EBB4FF00109CDF800903B46ED
:10C118002246294613A8FFF79BFF00287FD0B8F1D5
:10C12800000F6DD0412213A95D4801F0B2FB5D4BB1
:10C138006A68C3F82C901E629A600022394620462D
:10C14800FCF72CFA574B0125C3E909709FE04122FF
:10C15800002102A801F0C6FB06F0010941220021D6
:10C1680013A806F0020601F0BDFBB9F1000F4BD091
:10C1780042F20403E15803F1A34303F5471303F222
:10C18800D75399424BD1D5F858A00AF5FF520AF671
:10C19800FF73C3F30B031F32D21A42F20803E358AA
:10C1A80093423CD343F204031B688B4213D14FF4F0
:10C1B80040531B78102B8ABF43F2100300221A68E1
:10C1C80004F500531B78102B8ABF42F2100300239A
:10C1D800E3589A4223D12046FFF7F8FC00B1F6B1A4
:10C1E8000123009322465346294602A8FFF730FF51
:10C1F800A8B1AB6DE218FB1A4EB9B8F1000F18D10F
:10C20800284B01255D6110E03B462246F4E70021FA
:10C21800009113A82946FFF71BFF0028EDD105253B
:10C22800B8F1000F30D1FFF797FC284624B0BDE8DD
:10C23800F087DFF87080B9F1000F21D02046FFF7B2
:10C24800C5FC18B108F11800FFF7D8FB412202A974
:10C25800154801F01EFB002E14BFAC23A523C8F817
:10C268002C30AB6DC8F83430002E3FF466AF412255
:10C2780013A90E4801F00DFB6B68C8F80C305CE799
:10C28800AA23C8F82C30EFE70948FFF7B7FBFFF7F8
:10C2980063FC044B9C64C8E71725C1E7688F00203E
:10C2A800818A0020E0870020408A0020C28A00207E
:10C2B800048800200122FFF713BF000090F85430D3
:10C2C800F0B5002B53D090F85530032B4FD890F889
:10C2D8006E20032A49D1027A002A48D0C268342A3B
:10C2E80047D143F20401028A0C6823498C422CD1BD
:10C2F80052B14169F1B1D2B2002100F1140543F203
:10C308000C06CCB2A24201D8122311E055F82170D4
:10C318003488A74201F10101F3D102780AB3012B55
:10C328004268164B17D89B689A4234BF10230123E2
:10C338001846F0BD13B9012AE6D8EEE713F1FF322B
:10C3480018BF0122002AE8D1DEE712B14269002AAB
:10C35800DAD10278F6E7DB689A428CBF0123102312
:10C36800E6E7012B18BF0F23E2E71423E0E70F23CA
:10C37800DEE71123DCE700BFDBE5B151E0870020F1
:10C3880030B10268034B04489A4208BF0020704746
:10C3980002487047DD55AABB8208F0007108F0001A
:10C3A80038B50D460446B0B1A0220021043000F093
:10C3B80041FD95B10822294604F1640000F040FDD2
:10C3C800082205F1200104F1840000F039FD044B36
:10C3D8002360002038BD0348FCE70348FAE700BFA4
:10C3E800DD55AABB7108F0008308F0002DE9F7437A
:10C3F80005460E4699461146FFF7C2FF0446002837
:10C4080040F08480002E00F08580002900F08480B0
:10C41800B9F1200F40F0828005F14404082205F1AB
:10C428000408204600F00CFD05F1240708223146D7
:10C43800404600F005FD06F120010822384600F0CC
:10C44800FFFC02A94FF4807041F8049D00F0A4FAA3
:10C45800002865D1334A4FF480731360012193603B
:10C468000823314A00F046FB0121084605232F4ADC
:10C4780000F040FB0823424601211C2000F03AFB53
:10C4880008233A460121032000F034FB2246082302
:10C498000121022000F02EFB0823254A01211A2041
:10C4A80000F028FB0523234A01211B2000F022FB72
:10C4B8000823214A0121142000F01CFB08231F4AED
:10C4C8000121152000F016FB082305F16402012163
:10C4D800162000F00FFB082305F184020121172024
:10C4E80000F008FB0823164A01210B2000F002FB8C
:10C4F80000F05CFB0446019800F0EAFA114B002CAE
:10C5080018BF1C46A421284600F096FC204603B01C
:10C51800BDE8F0830C4CF9E70C4CF7E70C4CF5E759
:10C52800084CEFE790B0025080DD0F00F8DD0F00F7
:10C5380040DD0F00E4DD0F00A4DD0F00C4DD0F00B7
:10C5480060DD0F008408F0007608F0008008F00035
:10C558008108F0002DE9F041069F044615461E4665
:10C56800FFF71EFF38B93B46324629462046BDE84C
:10C57800F041FFF73BBFBDE8F08100000C4BC269FA
:10C588001A60826943F8042C426943F8082C02694E
:10C5980043F80C2CC26843F8102C826843F8142C1A
:10C5A800426843F8182C026843F81C2C704700BFF7
:10C5B8005CB602500C4B1B68C3610C4B1B68836153
:10C5C8000B4B1B6843610B4B1B6803610A4B1B68D1
:10C5D800C3600A4B1B688360094B1B684360094BA7
:10C5E8001B680360704700BF5CB6025058B6025023
:10C5F80054B6025050B602504CB6025048B60250DB
:10C6080044B6025040B6025030B10268034B0448A9
:10C618009A4208BF0020704702487047DD55AABB00
:10C628000202F0000002F00038B5044668B1051DAA
:10C638007021284600F000FC28462022044900F01A
:10C64800F7FB044B2360002038BD0348FCE700BF1C
:10C658001CDE0F00DD55AABB0002F0002DE9F043F7
:10C66800284B04460E4615460FCB85B06F4687E823
:10C678000F002DB94FF00009484605B0BDE8F0831A
:10C688002046FFF7C1FF81460028F5D1231D0193FD
:10C69800636AA3BB236F8BB1C3F14008A84528BFC9
:10C6A800A84604F1300031461844424600F0C0FB69
:10C6B800236F434446442367A5EB0805226F402AAD
:10C6C80006D104F13001384600F0C8FB0023236787
:10C6D80005F03F0835F03F0505D031462A46384673
:10C6E80000F0BCFB2E44B8F1000FC3D042463146DF
:10C6F80004F1300000F09CFBC4F87080BCE7DFF860
:10C708000890B9E70CDE0F000C02F0002DE9FF419C
:10C71800144B04460E460FCB6F4687E80F002046A1
:10C72800FFF772FF8046B0B9CEB1636A251D019547
:10C738003BB901236362226F04F13001384600F0EF
:10C748008DFB2B46043E243453F8042B12BAA34223
:10C7580046F8042FF8D1404604B0BDE8F081DFF870
:10C768000880F8E70CDE0F000502F000084B1B6894
:10C778001B0EF02B08D1074B1A68074B9A4205D1BC
:10C78800064B002018607047052070470620704748
:10C7980028B9025024BA02500000E0200CBA025016
:10C7A800002230B549001346023840F6FC7502F104
:10C7B800A05404F52C44A400904202F10102CABF1F
:10C7C800236025605B181E2AF1D1044A13600B44CC
:10C7D8005360034B034A1A6030BD00BF78B0025063
:10C7E80084B0025020F80F0030B51E4B85B01A46B1
:10C7F800196800910099CC07FAD500F1A05000F50E
:10C808002C408000016813680193019BD807FAD572
:10C81800154B164C1868164D1F30202390FBF3F06B
:10C828000138002810DA00230130400153B1A0F18B
:10C8380020014FF00042134204D1013888424FEAE8
:10C848005202F8D105B030BD13680393039BDB0790
:10C85800FAD5431823602B680293029B002BE3D17F
:10C868000138DEE7B4B00250ACB00250E4B0025078
:10C87800DCB00250F0B51D6885B001F01F040DB999
:10C888001F2C25D1154D2E462F680197019FFF07B4
:10C89800FAD500F1A05000F52C40800000683568FA
:10C8A8000395039DED07FAD50D4D00EB6110286047
:10C8B8000C48006802901F2C18BFC94302980FBF8C
:10C8C800106001F01F0100FA01F1116000211960E8
:10C8D80010684300C00F136005B0F0BDB4B002503B
:10C8E800E4B00250DCB002500C4B18603F3020F02E
:10C8F8003F008901403058609960D96019615961D9
:10C9080099611C330648196082B002680192019A45
:10C91800D207FAD5196002B0704700BF90B0025034
:10C92800B4B0025038B5A0F12003B3F5426F054604
:10C938002CD88F2826D800F1470300F16604DB06BF
:10C948004FEA541400D0013464013F34A40901347F
:10C9580011B1A1421AD30C46E3004FF48050B0FB4A
:10C96800F3F0202828BF202002B11060084B0122D4
:10C978001A602146FFF714FF28462146FFF7B4FF47
:10C98800002038BD00F11F046409DDE70148F8E71D
:10C998001CB802502221F0000A460021FFF7C2BF4E
:10C9A800F0B5454B89B01D461C680194019CE4070D
:10C9B800FAD5424BDFF80CE1DFF80CC113449B00B9
:10C9C80000241A680B181E2B88BFC0F11E011F32E5
:10C9D8000B1852095343B3F5806F82BF4FF480613F
:10C9E800B1FBF2F1091A00F1A05000F52C402746DE
:10C9F800A14233DC2B680493049BDB07FAD5304B48
:10CA08001B68296805910599CF07FAD52D4C2E4941
:10CA1800236000231E46934203F1010040D120F019
:10CA280001022948194600268A423CD829680691FD
:10CA38000699CE07FAD52549096828680790079806
:10CA4800C007FAD52160204800210C468B422DD121
:10CA58001D4900209A422CD809B0F0BD2B680293DA
:10CA6800029BDB07FAD503199B001B682E68039607
:10CA7800039EF607FAD5CEF800300023934203F15F
:10CA8800010306D1164623F00103B34204D801344A
:10CA9800AEE7CCF80070F1E7CCF800700136F4E7A7
:10CAA8000E600346B7E706600131BDE70460013157
:10CAB800CCE708600133CDE7B4B0025024AC0014D1
:10CAC8007CB00250D4B00250D8B0025078B00250B6
:10CAD80008B540B1202801464FF0070228BF2021A1
:10CAE8000020FFF75DFF024B00221A6008BD00BF5F
:10CAF8001CB80250F0B5294D85B02C462E6800961A
:10CB0800009EF607FAD500F1A05000F52C408000F1
:10CB18000568206801900198C707FAD52048214F79
:10CB2800056002EB8306B24229D15A1C1D4E22F041
:10CB3800010200279A4227D823680293029BDE0746
:10CB4800FAD5194B0B449B001B681F335B099A42AB
:10CB580013D2216803910399C907FAD51544002116
:10CB68009B1A104A056008468B4210D85A1C0D497A
:10CB780022F0010200209A420CD805B0F0BD52F80C
:10CB880004CBC7F800C0CEE737600133D2E71060A6
:10CB98000131E9E708600133EDE700BFB4B00250A6
:10CBA800D4B00250D8B0025024AC00142DE9F041A2
:10CBB800814B1D6898682033A0B01E461A68019200
:10CBC800019AD707FAD57D4B7D4A1A6032680292DE
:10CBD800029AD407FAD57B4A1A607B4A1446116830
:10CBE80003910399C907FAD5784A1168C1F340211E
:10CBF80037680497049FFF07FAD5754F1F602768A9
:10CC08000597059FFF07FAD51768002900F0CF8020
:10CC1800B90540F1CC80316806910699CF07FAD55D
:10CC28006C491960216807910799C907FAD51168F5
:10CC3800C1F3402137680897089FFF07FAD5664F68
:10CC48001F6027680997099FFF07FAD5126800290E
:10CC580000F0AF80910540F1AC8032680A920A9AE0
:10CC6800D207FAD5564A1A6032680B920B9AD70740
:10CC7800FAD55A4A1A6031680C910C99CC07FAD542
:10CC88005749196031680D910D99C907FAD5554969
:10CC9800196031680E910E99CF07FAD5524919607B
:10CCA80031680F910F99CC07FAD550491960504B4C
:10CCB8001E46196810911099C907FAD53F4C4D4B7B
:10CCC800236033681193119BDB07FAD54A4B236025
:10CCD80033681293129BDF07FAD5484B23603A4B0F
:10CCE8009846196813911399C907FAD5324F3860D5
:10CCF80033681493149BDB07FAD5226033681593C5
:10CD0800159BD807FAD53E4B236033681693169BBC
:10CD1800D907FAD53B4B236033681793179BDA077B
:10CD2800FAD5394B236033681893189BDB07FAD57B
:10CD3800364B236033681993199BD807FAD5344BBF
:10CD4800236033681A931A9BD907FAD5314B2360AD
:10CD580033681B931B9BDA07FAD52F4B236000F02F
:10CD680033FC08BBD8F800301C931C9BDB07F9D5B3
:10CD78003D6033681D931D9BD907FAD5274B236067
:10CD880033681E931E9BDA07FAD5254B2360D8F823
:10CD980000301F931F9BDB07F9D50C4B1B6813F45E
:10CDA800805F204B08BF184620B0BDE8F0811E48C0
:10CDB800FAE71E48F8E700BF90B0025080B0025072
:10CDC80000100251C01F7229B4B0025088B002503E
:10CDD800C0CF0129C01F0E29C03F002940010249C8
:10CDE800003184A800001649400108A18044088841
:10CDF800B0B00250C044708880077A41C0077E41B5
:10CE080000006A498006164940006E490002002168
:10CE180000822021408220218082242140A161A11A
:10CE280000C861510308F1000108F1000208F1008F
:10CE380000F02FBD00F056BD0A46002100F052BD9B
:10CE480001EB820204388A4201D10020704752F86F
:10CE5800043D1BBA40F8043FF5E700002DE9F74F01
:10CE6800314B44688046924699461A68002AFCD19C
:10CE78002E4B9B461A68002AFCD14FF0FF300191D7
:10CE880000F094FC802000F097FC294D294A2A4F95
:10CE98002A4E012307202B60A2F59E72C2F83C019E
:10CEA8001360636A3B60A36A3360D8F8003042F8C5
:10CEB800043CD8F80830204698470199D9F8003042
:10CEC800002BFBD1BAF1000F20D11D4B04221A60B0
:10CED800D9F80030002BFBD1DBF800A0BAF1000F25
:10CEE800FAD1D8F80C30204698473B68636233681B
:10CEF800A362144BC3F800A0C3F844A1D9F80030CA
:10CF0800002BFBD12B6003B0BDE8F08F236A012B07
:10CF180004BF0C4A13600C4B40201960C3F804A0EE
:10CF280000F050FCD4E700BF10B9025020BC0250FA
:10CF380018B8025000B90250CCB70250D0B702500E
:10CF4800C8B7025084B6025028BC025010B5544BE2
:10CF580098B019461A680192019AD207FAD5514B2E
:10CF6800514A1A600A680292029AD407FAD54F4ABF
:10CF78001A600A680392039AD007FAD54C481860D9
:10CF88000A680492049AD207FAD54A4A1A600A68CB
:10CF98000592059AD407FAD5474A1A600A68069294
:10CFA800069AD207FAD5454A1A600A680792079A7C
:10CFB800D407FAD5424A1A600A680892089AD20732
:10CFC800FAD5404A1A600A680992099AD407FAD52C
:10CFD8003D4A1A600A680A920A9AD207FAD53B4A69
:10CFE8001A600A680B920B9AD407FAD5384A1A6065
:10CFF8000A680C920C9AD207FAD5364A1A600A685F
:10D008000D920D9AD407FAD5334A1A600A680E921F
:10D018000E9AD207FAD5314A1A600A680F920F9A07
:10D02800D407FAD52E4A1A600A681092109AD207C5
:10D03800FAD52C4A1A601A4B19461C681194119C8F
:10D04800E407FAD5174B1860086812901298C407BD
:10D05800FAD51A600A681392139AD007FAD5124AB9
:10D068001A600A681492149AD207FAD51E4A1A60EE
:10D078000A681592159AD407FAD51C4A1A600A68E4
:10D088001692169AD007FAD5194A1A600A681792A2
:10D09800179AD207FAD5174A1A6018B010BD00BF00
:10D0A800B0B0025080B00250009365210004319066
:10D0B800409665900083612100C3302100C36490CD
:10D0C8000081619000461021008111210041442116
:10D0D80000C320290C4610C80086312100C36021F6
:10D0E80040C1282940966521001331904096252992
:10D0F800594614C84004324910B5494B94B01946F2
:10D108001A680092009AD207FAD5464B464A1A6026
:10D118000A680192019AD407FAD5444A1A600A6843
:10D128000292029AD007FAD5414818600A68039219
:10D13800039AD207FAD53F4A1A600A680492049AF9
:10D14800D407FAD53C4A1A600A680592059AD207AC
:10D15800FAD53A4A1A600A680692069AD407FAD5A6
:10D16800374A1A600A680792079AD207FAD5354AE9
:10D178001A600A680892089AD407FAD5324A1A60DF
:10D188000A680992099AD207FAD5304A1A600A68D9
:10D198000A920A9AD407FAD52D4A1A600A680B929D
:10D1A8000B9AD207FAD52B4A1A600A680C920C9A85
:10D1B800D407FAD5284A1A600A680D920D9AD20740
:10D1C800FAD5264A1A600A680E920E9AD407FAD53A
:10D1D800234A1A600A680F920F9AD207FAD5214A91
:10D1E8001A600F4B19461C681094109CE407FAD576
:10D1F8000C4B1860086811901198C407FAD51A608A
:10D208000A681292129AD007FAD5174A1A600A6861
:10D218001392139AD207FAD5144A1A6014B010BDA3
:10D22800B0B0025080B0025080906521000409908F
:10D23800409665908080612180200821802064903C
:10D248000081619000461021008111210041442194
:10D2580080202029024610C80086092180206021EC
:10D26800402128294096652140962529594614C809
:10D2780010B5504B96B01C461A680192019AD20715
:10D28800FAD54D4B4D4A1A6022680292029AD2078B
:10D29800FAD54B4A1A604B4A42EA80402268039208
:10D2A800039AD207FAD5186022680492049AD00724
:10D2B800FAD5454A1A60A2F5800242EA81412268FD
:10D2C8000592059AD207FAD5196022680692069A3D
:10D2D800D007FAD53D4A1A6022680792079AD10703
:10D2E800FAD53B4A1A6022680892089AD207FAD5FA
:10D2F800384A1A6022680992099AD007FAD5364A3C
:10D308001A6022680A920A9AD107FAD5334A1A6033
:10D3180022680B920B9AD207FAD5314A1A60226812
:10D328000C920C9AD007FAD52E4A1A6022680D92F0
:10D338000D9AD107FAD52C4A1A6022680E920E9AD5
:10D34800D207FAD5294A1A6022680F920F9AD00795
:10D35800FAD5274A1A60216810911099C907FAD599
:10D368001A60144B1A46196811911199C807FAD511
:10D37800114B20491960116812911299C907FAD501
:10D388001D491960116813911399CC07FAD50B49F7
:10D398001960116814911499C807FAD517491960CA
:10D3A800116815911599C907FAD5154A1A6016B06A
:10D3B80010BD00BFB0B0025080B002504004419090
:10D3C80000862929D81001C8401441904014212909
:10D3D800401465210034409000310C90C0400C90FE
:10D3E800C030202940960D9000416090031645C832
:10D3F8000086112100416021594644C840144590D7
:10D4080040142D9070B5264888B0054604680094ED
:10D41800009CE607FAD52348234C0460234C44EAD1
:10D4280083432C680194019CE407FAD503609301B7
:10D4380043EA824242F0104444F4C0442B68029309
:10D44800029BDE07FAD504602B680393039BDB0776
:10D45800FAD5174B03608B0143EA814141F0104331
:10D4680043F4C0432E680496049EF607FAD5036079
:10D478002B680593059BDE07FAD5046041F05841F7
:10D488002B680693069BDC07FAD5016042F05842E8
:10D498002B680793079BDB07FAD5026008B070BDBD
:10D4A800B0B0025080B00250C021022980710098AB
:10D4B80080611890354B8EB019461A680092009A10
:10D4C800D207FAD5324B334A1A600A680192019A98
:10D4D800D007FAD5304A1A600A680292029AD2072F
:10D4E800FAD52E4A1A600A680392039AD007FAD529
:10D4F8002B4A1A600A680492049AD207FAD5294A74
:10D508001A600A680592059AD007FAD5264A1A6061
:10D518000A680692069AD207FAD5244A1A600A6857
:10D528000792079AD007FAD5214A1A600A68089222
:10D53800089AD207FAD51F4A1A600A680992099A06
:10D54800D007FAD51C4A1A600A680A920A9AD207C2
:10D55800FAD51A4A1A6008680B900B98C007FAD5D2
:10D568001A600A680C920C9AD007FAD5144A1A6005
:10D578000A680D920D9AD207FAD5124A1A600E213E
:10D588000D230F2200200EB0FFF73CBFB0B00250B1
:10D5980080B00250804301294063392180700129FD
:10D5A8008020542100D13490C0403490C0302029CC
:10D5B800C0530D9000413890832308C880E31021A0
:10D5C80000413821CF4308C82DE9F041012392B02A
:10D5D800CDE90333624B1D461A680592059AD207B6
:10D5E800FAD5604C604B2360604B19461A68069266
:10D5F800069AD707FAD55E4B1A68D60400F1A880B8
:10D608002A680792079AD007FAD55A4A22600A6808
:10D618000892089AD207FAD51E68C6F30036002E7B
:10D6280040F098801220FFF7DFF807461320FFF735
:10D63800DBF887428CBF12201320FFF7D5F8471E6E
:10D64800FFF738FF03AB01AA39461220FFF712F99A
:10D6580004AB804602AA39461320FFF70BF900EB0A
:10D668004800022832D003283ED0012874D12B6804
:10D678000993099BDB07FAD53F4B23602B680A9374
:10D688000A9BD807FAD53D4B23602B680F930F9B55
:10D69800D907FAD53A4B23602B681093109BDA0709
:10D6A800FAD5384B23602B681193119BDB07FAD509
:10D6B800354B2360013F25D510231922182100205E
:10D6C800FFF7A0FE304612B0BDE8F0812B680B933F
:10D6D8000B9BD907FAD52D4B23602B680C930C9B19
:10D6E800DA07FAD52A4BCFE72B680D930D9BDB079A
:10D6F800FAD5284B23602B680E930E9BD807FAD5D2
:10D70800254BC1E703AB01AA39461220FFF7B2F84F
:10D7180004AB044602AA39461320FFF7ABF810EB16
:10D72800440402D1FFF712FCC4E7FFF7E5FC022C22
:10D7380008D0032C09D0012C10D117211620FFF78F
:10D7480097FDB7E715211420F9E70F210E20F6E71A
:10D75800124EB7E7124EB5E7124EB3E7124EB1E7D5
:10D76800B0B0025080B0025000084A51B4B0025024
:10D7780088B0025000084E5100065A4940065E49DA
:10D78800000442410014424940042E49000652490F
:10D798004006564900063A4940063E490608F10047
:10D7A8000708F1000408F1000508F100014B1860B2
:10D7B800704700BF08BA0250014B1860704700BF9D
:10D7C80004BA0250094BC2431A60043B82B01B687A
:10D7D8000193074B019A024204D0064A1060186868
:10D7E80002B0704720BF1A680192F3E704BA0250EA
:10D7F8006C8F002008BA0250054B4FF0FF321A60B8
:10D8080053F8042C034B1A601A68034B1A607047CC
:10D8180004BA02506C8F002008BA0250002A36D091
:10D8280070B413460F2A1AD940EA010212F0030F06
:10D8380001D05A1E15E004680A689442F9D1043BE5
:10D84800041D0A1D114620460434043206680D687A
:10D85800AE42EED120461146043B042BF2D85A1EA4
:10D8680010D004780B789C420CD1431C4C1C024409
:10D8780018462146934205D00133013406780D78C5
:10D88800AE42F5D000780B78C01A70BC7047002003
:10D898007047844640EA010313F0030F18D1844609
:10D8A800202A0BD32DE9F007B1E8F807A0E8F8071C
:10D8B800A2F12002202AF7D2BDE8F007042A07D3F4
:10D8C80051F8043B40F8043BA2F10402042AF7D2C1
:10D8D800002A05D011F8013B00F8013B013AF9D1C3
:10D8E800604670478446002A2DD010F0030F04D0FC
:10D8F80000F8011B013A26D0F7E7C9B241EA012135
:10D9080041EA0141202A12D3A2F120022DE9F003B5
:10D918000B460C460D460E460F4688468946A0E83B
:10D92800FA03203AFBD2BDE8F00320320BD0042AD8
:10D9380005D340F8041B043A05D0042AF9D200F8AC
:10D94800011B013AFBD16046704700F1010110F05C
:10D95800030F11D010F8012B002A23D010F0030F69
:10D968000AD010F8012B002A1CD010F0030F03D0A6
:10D9780010F8012B002A15D02DE970004FF0013264
:10D988004FF0803350F8044BA4EB020525EA040558
:10D998001D4000D1F6E7A0F1040070BC10F8012B7F
:0AD9A800002AFBD1A0EB010070473C
:08D9B400F1970F00E1970F004D
:08D9BC00F1B10F0069AF0F008B
:0CD9C40000000000030000001DA00F0088
:10D9D000407000207C8000208D8000204870002056
:04D9E000F40000004F
:08D9E40079AC0F000000000007
:08D9EC00B98B0F0000000000E0
:10D9F400519B0F00000000005D9C0F000000000020
:08DA0400F9890F000000000089
:08DA0C00158B0F000000000063
:10DA14000000000000000000E1B20F000010000050
:04DA240000001000EE
:10DA280000100000040000000100000091880F00B1
:10DA3800B5880F00C5880F0035890F00D5880F00FD
:10DA48009D880F00A1880F00A5880F000010000016
:10DA580004000000010000003D8A0F001D8A0F002D
:10DA68000D8A0F00458C0F00F98B0F00E1890F001C
:10DA7800E5890F00E9890F00A1900F0045900F007C
:10DA880089950F00FB950F001B960F00818F0F00E3
:10DA9800418F0F001D950F00000000004800000096
:10DAA8000020400000000000FD960F0069970F005D
:10DAB8000D970F002000000000000000000000008B
